:100000000C9462010C9493010C9493010C94930151
:100010000C9493010C9493010C9493010C94930110
:100020000C9493010C940A170C940A170C940A1759
:100030000C9493010C9493010C9493010C949301F0
:100040000C9493010C9493010C9493010C949301E0
:100050000C9493010C9493010C9493010C946016EE
:100060000C9493010C94D4160C94AA160C9493013E
:100070000C9493010C9493010C9493010C949301B0
:100080000C9493010C9493010C9493010C949301A0
:100090000C9493010C9493010C9493010C94930190
:1000A0000C9493010C9493010C9493010C94930180
:1000B0000C9493010C9493010C9493010C94930170
:1000C0000C9493010C9493010C9493010C94930160
:1000D0000C9493010C9493010C9493010C94930150
:1000E0000C9493010C9439020C94ED010C947A0356
:1000F0000C94580C0C9431020C948A040C94190240
:100100000C94F80E0C9413020C94D4030C94541019
:100110000C9478100C94FD040C9435020C9443025A
:100120000C9479100C948B040C94C80E0C9404025B
:100130000C94E7040C9486170C94F2010C94E81EBE
:100140000C94E80E0C9427020C945E0E0C948E0313
:100150000C9421040C9408020C949C030C941D0232
:100160000C94150F0C942B020C9423020C94720423
:100170000C943E030C944A100C940C020C94BF0E89
:100180000C946B030C943F020C9410020C943B12E1
:100190007C3C3E5E2B3D3F2F5B5D3B2C2A225C006E
:1001A00000002100240027002A002D003000330029
:1001B00001010000040107010A0100000A0B020905
:1001C0000C0D0E08070304010000000000000000F1
:1001D000000000000000000000000000000000001F
:1001E00000000000000012111000000000000000DC
:1001F00000000000000000000000000000000000FF
:10020000000020002300260029002C002F003200CF
:100210000001000003010601090100002200250081
:1002200028002B002E0031003400020100000501DF
:1002300008010B0105050505070508080808020265
:1002400002020A0A08080404040401010101010170
:1002500001010303030303030303040707070C0C53
:100260000C0C0C0C0C0C020202020606060606061A
:1002700006060B0B0B0B0B0B0B0B010210202008BF
:1002800008102040102040800201020108040201F1
:100290000102040810204080804020100804020160
:1002A00080040201804020100804020108040201B9
:1002B0000102040810204080010204081020408040
:1002C0008617E81E11241FBECFEFD1E2DEBFCDBFDF
:1002D00000E00CBF14E0A0E0B2E0EEEAF5E400E0DC
:1002E0000BBF02C007900D92AC3EB107D9F728E0D2
:1002F000ACEEB4E001C01D92AA36B207E1F711E0FE
:10030000C1E6D1E000E006C021970109802FFE017F
:100310000E946221C036D10780E00807A9F70E9439
:100320008E180C94C5220C940000E7E4F7E0A08935
:10033000B18982E08C93A485B5851C92A685B7858A
:100340008FEC8C93108EA489B58986E08C93A2895A
:10035000B3898C9180618C93A289B3898C918860D8
:100360008C93A289B3898C9180688C930288F389DD
:10037000E02D80818F7D80830895282F30E0F90162
:10038000E654FE4F9491F901E658FD4F44912C5CE0
:100390003D4FF9012491222309F435C0992311F12D
:1003A00091509231F8F4E92FF0E08827E552FE4FA2
:1003B0008F4F0C9462210C021002ED01040208021E
:1003C000F201130219021D02230227022B0231023D
:1003D0003502F20139023F024302809180008F779B
:1003E00080938000E22FF0E0EE0FFF1FE65EFD4FEE
:1003F000A591B4918FB7F894EC91611148C04095E4
:100400004E234C938FBF0895809180008F7DE8CF5D
:1004100080918000877FE4CF84B58F7784BDE2CF61
:1004200084B58F7DFBCF8091B0008F778093B00033
:10043000D9CF8091B0008F7DF9CF809190008F77D8
:1004400080939000CFCF809190008F7DF9CF8091E5
:100450009000877FF5CF8091A0008F778093A000D8
:10046000C1CF8091A0008F7DF9CF8091A000877FC0
:10047000F5CF809120018F7780932001B3CF8091B9
:1004800020018F7DF9CF80912001877FF5CF4E2B02
:10049000B8CFCF93DF9390E0FC01E658FD4F249155
:1004A0008C5C9D4FFC0184918823D1F090E0880FF3
:1004B000991FFC01E056FE4FA591B491FC01E65E48
:1004C000FD4FC591D49161110EC09FB7F8948C91E6
:1004D000E22FE0958E238C932881E223E8839FBF4F
:1004E000DF91CF9108958FB7F894EC91E22BEC93C4
:1004F0008FBFF6CF863308F0865320917B00982F6C
:100500009870277F922B90937B00877080648093F4
:100510007C0080917A00806480937A0080917A00D8
:1005200086FDFCCF80917800909179000895CF925C
:10053000DF92EF92FF9286E30E947A029250BC0112
:10054000990F880B990B0E94192020E030E040EAB7
:100550005BE30E94CE2020E030E040EF51E40E94B7
:10056000761F6B017C0120E030E0A9010E94C920C8
:10057000181624F0F7FAF094F7F8F094C701B601D2
:10058000FF90EF90DF90CF90089587E30E947A026A
:10059000BC01990F880B990B0E94192020E030E0D4
:1005A00040EA5BE30E94CE202FE832E44AE653E4BF
:1005B0000E94CE2008953FB7F89480914105909114
:1005C0004205A0914305B091440526B5A89B05C0FE
:1005D0002F3F19F00196A11DB11D3FBFBA2FA92FC2
:1005E000982F8827BC01CD01620F711D811D911DBF
:1005F00042E0660F771F881F991F4A95D1F708952B
:100600008F929F92AF92BF92CF92DF92EF92FF9222
:100610004B015C010E94DB026B017C010E94DB024A
:100620006C197D098E099F09683E7340810591050B
:10063000A8F321E0821A9108A108B10888EEC80E3B
:1006400083E0D81EE11CF11C81149104A104B104C3
:1006500029F7FF90EF90DF90CF90BF90AF909F90E1
:100660008F9008952FB7F89460913D0570913E05E5
:1006700080913F05909140052FBF0895AF92BF92A2
:10068000CF92DF92EF92FF920F931F93CF93DF935E
:100690006C017B018B01040F151FEB015E01AE188D
:1006A000BF08C017D10759F06991D601ED91FC91AF
:1006B0000190F081E02DC6011995892B79F7C501CC
:1006C000DF91CF911F910F91FF90EF90DF90CF902E
:1006D000BF90AF900895FC01538D448D252F30E0DD
:1006E000842F90E0821B930B541710F0CF9608953F
:1006F00001970895FC01918D828D981761F0A28D6C
:10070000AE0FBF2FB11D5D968C91928D9F5F9F7331
:10071000928F90E008958FEF9FEF0895FC01918DE7
:10072000828D981731F0828DE80FF11D858D90E054
:1007300008958FEF9FEF0895FC01918D228D892FF1
:1007400090E0805C9F4F821B91098F7399270895D9
:1007500087E497E00E949C0321E0892B09F420E0C4
:10076000822F0895FC01A48DA80FB92FB11DA35AA3
:10077000BF4F2C91848D90E001968F739927848FC1
:10078000A689B7892C93A089B1898C9183708064E4
:100790008C93938D848D981306C00288F389E02D85
:1007A00080818F7D80830895EF92FF920F931F9336
:1007B000CF93DF93EC0181E0888F9B8D8C8D981314
:1007C0001AC0E889F989808185FF15C09FB7F89420
:1007D000EE89FF896083E889F9898081837080646C
:1007E00080839FBF81E090E0DF91CF911F910F91B7
:1007F000FF90EF900895F62E0B8D10E00F5F1F4FC6
:100800000F731127E02E8C8D8E110CC00FB607FCD4
:10081000FACFE889F989808185FFF5CFCE010E9462
:10082000B203F1CFEB8DEC0FFD2FF11DE35AFF4F1B
:10083000F0829FB7F8940B8FEA89FB8980818062F0
:10084000CFCFCF93DF93EC01888D8823B9F0AA89AD
:10085000BB89E889F9898C9185FD03C0808186FD7B
:100860000DC00FB607FCF7CF8C9185FFF2CF8081CA
:1008700085FFEDCFCE010E94B203E9CFDF91CF918A
:10088000089580E090E0892B29F00E94A80381114F
:100890000E94000080E090E0892B49F080E090E029
:1008A000892B29F00E94000081110E94000080E045
:1008B00090E0892B49F080E090E0892B29F00E949C
:1008C000000081110E94000080E090E0892B49F037
:1008D00080E090E0892B29F00E94000081110C94A7
:1008E0000000089520913605309137052817390703
:1008F00071F49091340580913505981741F0E0919D
:100900003405F0E0ED50FB4F808190E008958FEFCB
:100910009FEF08950895EF92FF920F931F93CF9347
:10092000DF93DC015C96ED90FC905D97E114F1049F
:1009300079F481E090E013969C938E93129790E067
:1009400080E0DF91CF911F910F91FF90EF9008957C
:100950005196ED91FC91529750968C915097982F0B
:1009600090950FB75E962C915E97122F127021FD15
:100970006095F8942081112319F1282B2083E70139
:100980002197F1F728E0462F50E0308160FF1AC030
:10099000382B3083E7012197F1F7BA0175956795F8
:1009A000215089F7112381F08081892380830FBF33
:1009B0005C968D919C910197F1F781E090E0C1CF19
:1009C0002923DCCF3923E5CF9081892BEFCF2091EC
:1009D0003605309137052817390761F480913505C0
:1009E0002091340590E0805C9F4F821B91098F73AA
:1009F0009927089590E080E0089520913605309180
:100A0000370528173907B9F49091340580913505D9
:100A1000981789F0E0913405F0E0ED50FB4F8081AC
:100A20002091340530E02F5F3F4F2F733327209301
:100A3000340590E008958FEF9FEF08958FB7F894F5
:100A40008091ED048FBF089561E0FC0184810E94D4
:100A5000BD018091EC0481111092EC0408958EBDCB
:100A600000000DB407FEFDCF8EB508958FEF0C94F6
:100A70002F050F931F93CF93DF93EC010E94320356
:100A80008B010E9436058F3F69F00E943203601B84
:100A9000710B6C177D07A8F380E0DF91CF911F9158
:100AA0000F91089581E0F9CF8CBD9DBD0895CF933E
:100AB000DF93EC018091EC04811109C081E0809307
:100AC000EC048091E4079091E5070E94540560E0F2
:100AD0008C81DF91CF910C94BD018F929F92AF9248
:100AE000BF92FF920F931F93CF93DF93EC01F62EEB
:100AF00049015A018E81882389F08F8198859C0154
:100B00002F5F3F4F38872F838230924018F40E9426
:100B10003605F3CFCE010E9424051E82CE010E942D
:100B200057058CE291E00E9439058F2D80640E9468
:100B30002F0508E110E0D501C401002E04C0B695D0
:100B4000A795979587950A94D2F70E942F0508508C
:100B50001109083F8FEF180771F785E9FF2021F091
:100B600028E087E8F2128FEF0E942F0510E00E9424
:100B700036058A8787FF04C01F3F11F01F5FF7CF3C
:100B8000DF91CF911F910F91FF90BF90AF909F90F9
:100B90008F900895AF92BF92CF92DF92EF92FF9223
:100BA0000F931F93CF93DF93EC016901C801820F6C
:100BB000931F8130924050F58E81882379F088818F
:100BC0009981AA81BB8184179507A607B70731F4DD
:100BD0008F819885C816D90608F042C0488359838A
:100BE0006A837B838B85833039F089E0440F551FFE
:100BF000661F771F8A95D1F79A01AB0161E1CE019B
:100C00000E946D05882389F083E08D83CE010E94C8
:100C1000240580E0DF91CF911F910F91FF90EF901D
:100C2000DF90CF90BF90AF9008950E9432035B0198
:100C30000E9436058A878F3F69F40E9432036A1941
:100C40007B096D327140A0F38FE08D83CE010E944D
:100C50002405DCCF8E3F89F418861F8281E08E83C5
:100C60008F8198858C159D0550F40E9436058F81E3
:100C70009885019698878F83F3CF8DE0E6CF670143
:100C8000E00EF11E0E943605F60181936F01EE150C
:100C9000FF05C1F78F819885080F191F18870F83EB
:100CA0008985882319F001151240A0F08E818823D0
:100CB00089F08F8198859C012F5F3F4F38872F8364
:100CC0008230924018F40E943605F3CFCE010E9484
:100CD00024051E8281E09ECFCF92DF92EF92FF9299
:100CE0000F93CF93DF93EC01690182E14115510528
:100CF0006105710599F08B85833039F089E0440FE7
:100D0000551F661F771F8A95D1F79A01AB0168E1DD
:100D1000CE010E946D05882319F084E08D832DC0DB
:100D20008EEF0E942F0576018EEFD81AF701819180
:100D30007F010E942F05EC14FD04C1F78FEF0E9484
:100D40002F058FEF0E942F050E9436058A878F712D
:100D5000853071F4011116C0CE010E94240581E096
:100D6000DF91CF910F91FF90EF90DF90CF9008959A
:100D700081E18D83CE010E942405CE010E942405CD
:100D800080E0EECF88E592E00E943905811102C033
:100D900085E1C4CF20E030E0A9016DE0CE010E94E2
:100DA0006D05882311F084E1B9CF0E9436058111C9
:100DB000FACFD2CF0F934091EF045091F00460919D
:100DC000F1047091F204411551056105710599F026
:100DD000082F25E435E080914507909146070E9451
:100DE0006C06882349F01092EF041092F0041092E0
:100DF000F1041092F20481E00F9108950F93CF93C4
:100E0000C82F8091EE04811105C0C1E08C2FCF91D5
:100E10000F910895409100025091010260910202E9
:100E2000709103020C2F25E435E0809145079091E5
:100E300046070E946C06811102C0C0E0E7CFCC23B8
:100E400021F381E00E94DA068823B9F31092EE04C0
:100E5000DDCF8F929F92AF92BF92EF92FF920F934E
:100E60001F93CF934B015C01C42F8091000290919E
:100E70000102A0910202B091030288159905AA050A
:100E8000BB0551F181E00E94FE0681110BC080E09C
:100E9000CF911F910F91FF90EF90BF90AF909F90D7
:100EA0008F90089585E4E82E85E0F82E00E012E0AA
:100EB00030E020E0B501A4018091450790914607FC
:100EC0000E94CA05882319F38092000290920102C1
:100ED000A0920202B09203024091EE044C2B409388
:100EE000EE0481E0D5CF8F929F92AF92BF92CF92C6
:100EF000DF92EF92FF92CF9326EE37E030934607D2
:100F000020934507882309F46DC040E060E070E05D
:100F1000CB010E94290781110BC080E0CF91FF9087
:100F2000EF90DF90CF90BF90AF909F908F900895FB
:100F3000809103078F7789F780910F0790911007B1
:100F4000A0911107B091120784369105A105B10552
:100F500020F3C0900B07D0900C07E0900D07F090A5
:100F60000E07C114D104E104F104B9F240E0C70155
:100F7000B6010E942907882381F280915005909143
:100F800051058115924049F6A0915505AA2329F2F1
:100F900060915305709154056115710509F4BDCF39
:100FA00020915205222309F4B8CFA093040820937E
:100FB000F60790E080E030E0E1E0F0E0C82FAF011C
:100FC000082E02C0440F551F0A94E2F72417350774
:100FD00069F041E0480F01968930910579F7409317
:100FE000FF079BCFC12CD12C7601C0CF8093FF0788
:100FF00020915B0530915C0550E040E02115310502
:1010000041F42091690530916A0540916B0550913A
:101010006C052093F7073093F8074093F907509336
:10102000FA0746015701860E971EA11CB11C80923B
:10103000050890920608A0920708B0920808E0916F
:101040005605F0915705F0930B08E0930A08B0E0BD
:101050000E946A21DC01CB01880D991DAA1DBB1DD0
:1010600080930C0890930D08A0930E08B0930F087E
:1010700025E0EE0FFF1F2A95E1F7E150FE4FEF2F1D
:10108000FF27E6958E0F9F1FA11DB11D80930008BD
:1010900090930108A0930208B0930308809058052C
:1010A00090905905B12CA12C8114910441F48090A9
:1010B000650590906605A0906705B0906805C81A10
:1010C000D90AEA0AFB0AC80CD91CEA1CFB1C04C09A
:1010D000F694E794D794C794CA95D2F7C092FB07C9
:1010E000D092FC07E092FD07F092FE0785EFC8164C
:1010F0008FE0D806E104F10428F48CE0809309081D
:1011000081E00CCF80E125EFC2162FEFD206E1047B
:10111000F104A0F38091710590917205A09173057F
:10112000B091740580930C0890930D08A0930E085D
:10113000B0930F0880E2E2CF4F925F926F927F925E
:101140008F929F92AF92BF92CF92DF92EF92FF92D7
:101150000F931F93CF93DF93EC014230510561054C
:10116000710590F480E0DF91CF911F910F91FF9076
:10117000EF90DF90CF90BF90AF909F908F907F9037
:101180006F905F904F90089589859A85AB85BC8557
:101190000196A11DB11D84179507A607B70710F387
:1011A000CB88DC88ED88FE888F89803109F042C0C9
:1011B000BB27A72F962F852F480159012A013B01F4
:1011C000C80ED91EEA1EFB1E8091000290910102FA
:1011D000A0910202B0910302C816D906EA06FB06E6
:1011E00099F58F898031C1F5B301A2015527662792
:1011F0007727440F551F4B5B5A4FFA01918280822B
:101200008091EE0481608093EE048A89823080F0C0
:101210008D819E81AF81B8858C0D9D1DAE1DBF1D3A
:101220008093EF049093F004A093F104B093F20440
:1012300081E099CFDB01CA01E7E0B695A7959795C4
:101240008795EA95D1F7B8CF40E0C701B6010E9473
:1012500029078111C6CF86CFB301A2014F77552749
:1012600066277727440F551F440F551F4B5B5A4F76
:10127000FA0180829182A282B382C2CF8F929F9222
:10128000AF92BF92CF92DF92EF92FF920F931F9394
:10129000CF93DF93FC0181859285A385B485019668
:1012A000A11DB11D84179507A607B70770F480E04C
:1012B000DF91CF911F910F91FF90EF90DF90CF9032
:1012C000BF90AF909F908F90089583889488A58851
:1012D000B6888789803189F5BB27A72F962F852F60
:1012E000E9016A017B018F01BC01CD01680D791D07
:1012F0008A1D9B1D8090000290900102A090020226
:10130000B090030286169706A806B90601F5F80103
:101310008789803111F5DD24EE24FF24F601EE0FDC
:10132000FF1FEB5BFA4F80819181B0E0A0E08883E2
:101330009983AA83BB8381E0BBCFDB01CA01C7E0ED
:10134000B695A79597958795CA95D1F7C9CF40E0EF
:101350000E9429078111DBCFAACFE894C7F8DD24CA
:10136000EE24FF24F601EE0FFF1FEE0FFF1FEB5BD5
:10137000FA4F80819181A281B381BF70D8CF4F9203
:101380005F926F927F92AF92BF92CF92DF92EF9275
:10139000FF920F931F93CF93DF9300D01F92CDB78F
:1013A000DEB78C0149835A836B837C835901C12C3E
:1013B000D12C7601412C82E0582E612C712C498170
:1013C0005A816B817C819E012F5F3F4FC8010E9433
:1013D0003E09882339F1F8018585A301920104C0F3
:1013E000220F331F441F551F8A95D2F7DA01C90116
:1013F000C80ED91EEA1EFB1E49815A816B817C8171
:101400008789803111F188EF9FEFAFEFBFE0481778
:1014100059076A077B0798F2F501C082D182E28200
:10142000F38281E00F900F900F900F90DF91CF919A
:101430001F910F91FF90EF90DF90CF90BF90AF90F2
:101440007F906F905F904F90089588EF9FEFA0E09E
:10145000B0E0DDCFCF93DF93FC012581222321F083
:1014600080E0DF91CF910895EC01809109088031EF
:1014700059F582E08583178A108E118E128E809125
:101480000A0890910B08B0E0A0E025E0880F991FB2
:10149000AA1FBB1F2A95D1F7838B948BA58BB68B84
:1014A00082EF97E09C8F8B8F81E08C831E821F825E
:1014B000188619861A861B861C861D861E861F8620
:1014C000188A198A1A8ACDCF803251F683E0858333
:1014D00040910C0850910D0860910E0870910F0812
:1014E000478B508F618F728F9F012D5E3F4F82EF30
:1014F00097E00E94BF098111D3CFB2CF8F929F9204
:10150000AF92BF92CF92DF92EF92FF920F931F9311
:10151000CF93DF93EC018D8181110EC080E0DF91CC
:10152000CF911F910F91FF90EF90DF90CF90BF90E0
:10153000AF909F908F9008950B891C892D893E89CB
:10154000041715072607370748F34A015B01823065
:1015500031F48A869B86AC86BD8681E0E0CF81141B
:101560009104A104B10449F41E821F8218861986D1
:101570001A861B861C861D86F0CF0A851B852C8546
:101580003D85EB8DFC8D858590E00996B901A8011C
:101590004150510961097109082E04C0769567957B
:1015A000579547950A94D2F775016401E1E0CE1A88
:1015B000D108E108F10804C0F694E794D794C794E1
:1015C0008A95D2F7C416D506E606F70620F0012B59
:1015D000022B032B11F58F89988DA98DBA8D8E83DF
:1015E0009F83A887B9878E010A5F1F4FC114D1045A
:1015F000E104F10409F4ADCF4E815F8168857985FE
:1016000098018B8D9C8D0E943E0991E0C91AD108EA
:10161000E108F1088111EACF81CFC41AD50AE60AA0
:10162000F70AE1CF3F924F925F926F927F928F9233
:101630009F92AF92BF92CF92DF92EF92FF920F9361
:101640001F93CF93DF93CDB7DEB72C970FB6F894E7
:10165000DEBF0FBECDBF5C01DC015B968D909C9020
:101660005C9716964D905D906D907C901997411403
:1016700051046104710409F468C0BFEF4B1A5B0A9E
:101680006B0A7B0A312CF40181859285A385B48590
:101690009C01AD012F5F3F4F4F4F5F4F29873A8726
:1016A0004B875C87730162011D821E821F82188630
:1016B000F40181859285A385B4852D813E814F817A
:1016C0005885281739074A075B0708F056C08985EF
:1016D0009A85AB85BC858C159D05AE05BF0550F47C
:1016E00082E0C82ED12CE12CF12C92E0492E512C15
:1016F000612C712C9E012F5F3F4FB701A601C401E1
:101700000E943E098823C9F189819A81AB81BC81FD
:10171000892B8A2B8B2B09F1260137019FEF491A60
:10172000590A690A790A2D813E814F8158852F5FB8
:101730003F4F4F4F5F4F2D833E834F8358873FEF7F
:10174000C31AD30AE30AF30AB3CFF40140805180ED
:10175000628073803324339496CFC414D504E60496
:10176000F70409F70FEF1FEF2FEF3FE0B701A601D6
:10177000C4010E949C08811119C080E02C960FB60C
:10178000F894DEBF0FBECDBFDF91CF911F910F91B7
:10179000FF90EF90DF90CF90BF90AF909F908F9091
:1017A0007F906F905F904F903F900895D50116966F
:1017B0004D915D916D917C91199741155105610590
:1017C000710539F097018601C4010E949C088823A5
:1017D000A1F2D5011696CD92DD92ED92FC92199769
:1017E000332051F0D701C6010196A11DB11DF401AE
:1017F00080839183A283B383F5018789908DA18D26
:10180000B28D892B8A2B8B2B39F48481C78AD08E99
:10181000E18EF28E80688483F50184818062848306
:1018200081E0ACCF1F93CF93DF93FC01258122236E
:10183000D1F1162FEC01848187FF2AC06685778558
:101840008089918941E00E942907882361F1EA8912
:1018500080E2E89FF0011124EB5BFA4F309719F119
:101860008D81823040F48B899C89AD89BE89848FBB
:10187000958FA68FB78F8F89988D938F828F8F8941
:10188000988DA98DBA8DB58BA48B8C818F778C8325
:10189000111103C08C818F7E8C83812FDF91CF91BA
:1018A0001F910C94FE0680E0DF91CF911F91089567
:1018B000FF920F931F93CF93DF93EC018D818130C3
:1018C00041F090E080E0DF91CF911F910F91FF9068
:1018D00008958C8181FFF5CF82FD1BC000914507E3
:1018E00010914607C8010E9457050E943605F82E40
:1018F000C8010E9424058FEFF812E3CF8C8185FF89
:101900001BC060E0CE010E94120C8C818F7D8C8305
:10191000D8CF4B895C896D897E898A859B85AC850A
:10192000BD8584179507A607B707C1F2CE010E94AF
:101930007E0A8111D3CFC5CF4091EF045091F004BE
:101940006091F1047091F204452B462B472B21F056
:1019500080E00E94DA06B5CF80618C832A853B85C2
:10196000317080E092E0821B930BADCFCF93DF9379
:10197000EC0161E00E94120C882311F01D8281E0CD
:10198000DF91CF9108952F923F924F925F926F9285
:101990007F928F929F92AF92BF92CF92DF92EF92FF
:1019A000FF920F931F93CF93DF9300D01F921F924C
:1019B000CDB7DEB77C015B01342E5D83DC0115966B
:1019C0008C911597813009F0CEC014962C9021FE91
:1019D000CAC022FCB4C0C32CDD8022947FE0272241
:1019E0002094B22DB1702B2ED7011A964D915D9196
:1019F0006D917C911D97C114D10409F428C15B96A7
:101A00008D919C915C97FC0174807A948A019B0172
:101A100069E036952795179507956A95D1F7702255
:101A20008A011170711020C001151105E9F4169694
:101A30004D915D916D917C9119974115510561050D
:101A4000710509F099C057968D919D910D90BC91AB
:101A5000A02D0097A105B10509F0B0C0C7010E94F3
:101A6000120B882309F47FC080E092E0801B910B69
:101A700046018C159D0508F44C01D7015B964D91EC
:101A80005C915C9716968D919D910D90BC91A02DC7
:101A90000297A109B109FA01258504C0880F991F91
:101AA000AA1FBB1F2A95D2F7468557856089718981
:101AB000840F951FA61FB71F9C01AD01270D311D77
:101AC000411D511D29013A01811432E0930609F0AC
:101AD0007BC08091000290910102A0910202B0911E
:101AE000030284159505A605B70559F48FEF9FEFFE
:101AF000DC018093000290930102A0930202B09354
:101B00000302022D9501B301A20180914507909136
:101B100046070E946C06882331F19EEFB91AC81857
:101B2000D908F70182859385A485B585880D991D0F
:101B3000A11DB11D82879387A487B58755CFF70173
:101B4000438954896589768982859385A485B5857D
:101B5000481759076A077B0709F43DCFC7010E9460
:101B60007E0A811138CF81E090E0D70113969C93D3
:101B70008E93129780E007C09E012F5F3F4F0E9417
:101B80003E09811102C090E079C089819A81AB81C0
:101B9000BC81F701238D348DF901278948EF5FEF70
:101BA00060E070E0203121F048EF5FEF6FEF7FE001
:101BB00084179507A607B70708F050CFF70186836B
:101BC0009783A087B18750CF0115110599F5D701EB
:101BD0001A964D915D916D917C911D9753968D91C3
:101BE0009D910D90BC91A02D481759076A077B075E
:101BF00008F181E00E94FE06882309F4B4CF4092E8
:101C000000025092010260920202709203028091DF
:101C1000EE0481608093EE04C8018B5B9A4FD5017E
:101C20009C01280D391DFC012E173F0759F04D91DD
:101C30004193FACF41E0C301B2010E94290781110B
:101C4000EBCF91CF281B390BA20EB31E68CFF70143
:101C500083899489A589B68984179507A607B7074C
:101C600038F48481438B548B658B768B80688483B6
:101C7000F701848183FD1AC0832D9D810F900F9001
:101C80000F900F900F90DF91CF911F910F91FF90C8
:101C9000EF90DF90CF90BF90AF909F908F907F900C
:101CA0006F905F904F903F902F90089561E0C70133
:101CB0000E94120C882309F456CFDECFCF93DF9316
:101CC0001F92CDB7DEB7698341E050E0BE016F5F80
:101CD0007F4F0E94C30C0F90DF91CF910895FC01BC
:101CE000DB0112968D919C911397938382838BE3F2
:101CF00092E09183808314968C9114978483159637
:101D00008C911597858316964D915D916D917C917F
:101D1000199746835783608771871A964D915D9115
:101D20006D917C911D9742875387648775871E96B6
:101D30004D915D916D917C91519746875787608B4E
:101D4000718B52968C915297828B53964D915D91E7
:101D50006D917C915697438B548B658B768B579600
:101D60004D915D916D917C915A97478B508F618F0A
:101D7000728F5B968D919C91948F838F0895FC0157
:101D8000818D928D009719F061E00C94120C0895EA
:101D9000DC015996ED91FC913097B9F083899489D3
:101DA000A589B6894285538564857585841B950B05
:101DB000A60BB70B811520E89207A105B10538F0F5
:101DC0008FEF9FE7A0E0B0E0089590E080E00895F5
:101DD000DC0159968D919C91009739F0DC01ED91D1
:101DE000FC910480F581E02D199490E080E0089545
:101DF000CF93DF93EC01E98DFA8D309749F481E0C0
:101E000090E09B838A8390E080E0DF91CF910895FA
:101E100013821282898D9A8D0E94C30CE98DFA8DEE
:101E200022813381232B59F7F0CFCF93DF931F9279
:101E3000CDB7DEB76983DC01ED91FC910280F381BF
:101E4000E02D41E050E0BE016F5F7F4F19950F908C
:101E5000DF91CF9108952F923F924F925F926F92B0
:101E60007F928F929F92AF92BF92CF92DF92EF922A
:101E7000FF920F931F93CF93DF9300D0CDB7DEB7C0
:101E8000FC018581811118C08FEF9FEF0F900F909B
:101E90000F90DF91CF911F910F91FF90EF90DF9006
:101EA000CF90BF90AF909F908F907F906F905F90FA
:101EB0004F903F902F900895848180FFE5CF438914
:101EC00054896589768982859385A485B585312C69
:101ED000212C481759076A077B0719F022242394FD
:101EE000312C6F012101CE0101963C01DF011696D4
:101EF000BB83AA834114510409F4C5C0F60142858D
:101F00005385648575854A01F1E09F22D6015B9671
:101F10008D919C915C978A019B01E9E0369527950C
:101F200017950795EA95D1F71596EC91E230E9F50A
:101F3000FC01628D738D848D958D600F711F821FE2
:101F4000931FA12C22E0B22EA818B9084A145B04F2
:101F500008F45201F601248126FD04C0A114F2E028
:101F6000BF0671F40091000210910102209102025B
:101F700030910302061717072807390709F05EC0DA
:101F800040E00E942907882309F47ECFC4018B5BBF
:101F90009A4FD3019C012A0D3B1DFC012E173F07D0
:101FA00009F46CC041914D93F9CFDC011496BC90BB
:101FB000BA94B0228114910479F4B1100DC0452B6C
:101FC000462B472B69F5F6018789908DA18DB28D3F
:101FD00086839783A087B187D6015B96ED91FC91AC
:101FE0005C9716966D917D918D919C911997625099
:101FF000710981099109258504C0660F771F881F23
:10200000991F2A95D2F70685178520893189600F97
:10201000711F821F931F6B0D711D811D911D91CF2B
:10202000D60116964D915D916D917C9119972A81FB
:102030003B810E943E098111CFCF26CF73018501DC
:102040009401AB01BC0180914507909146070E9425
:10205000CA05882309F418CF6A0C7B1CF601828517
:102060009385A485B5858A0D9B1DA11DB11D828711
:102070009387A487B5874A185B083CCF281B390B88
:10208000620E731EEBCF2A94232809F0FDCE8981BE
:1020900090E0FCCEFC01818D928D009711F00C94A4
:1020A0002B0F8FEF9FEF08950F931F93CF93DF9325
:1020B000EC01898D9A8D10E000E0009799F00E9464
:1020C0002B0F8C010F3F100769F0898D9A8DFC0151
:1020D00042855385648575854150510961097109AF
:1020E0000E947E0AC801DF91CF911F910F91089540
:1020F000089590E080E00895CF92DF92EF92FF92F2
:102100001F93CF93DF93EC0180E2689FF0011124CD
:10211000EB5BFA4F9385917161F0842F827449F0E3
:1021200080E0DF91CF911F91FF90EF90DF90CF90F3
:102130000895142F6A8B8091000290910102A09162
:102140000202B09103028E879F87A88BB98BC48847
:10215000D588F12CE12C7601DD24CC24CF8AD88ED1
:10216000E98EFA8E828D938DB0E0A0E0AC01BD01C6
:102170004C295D296E297F294F8B588F698F7A8F63
:1021800083858871B1F4848D958DA68DB78D8B8BE9
:102190009C8BAD8BBE8B81E08D831F701C831E8258
:1021A0001F82188619861A861B861C861D8681E06A
:1021B000B8CF803109F0B4CF9E012D5E3F4F8B8D9B
:1021C0009C8D0E94BF09882309F4AACF84E0E4CF44
:1021D000CF93DF93EC0160E08E810E94BD0161E04E
:1021E0008E810E94BD0160E08E810E94BD018BE85E
:1021F00091E00197F1F7DF91CF910895CF92DF92AF
:10220000EF92FF920F931F93CF93DF936C017C01AA
:1022100087E0E80EF11CD0E0C0E0062F10E0B80126
:102220000C2E02C0759567950A94E2F76170F7016C
:1022300081917F010E94BD012196C430D10579F7BB
:10224000C601DF91CF911F910F91FF90EF90DF902A
:10225000CF900C94E810CF92DF92EF92FF920F9301
:102260001F93CF93DF93EC01F62E642F8C810E9495
:10227000BD018D818F3F19F060E00E94BD010F2DDF
:1022800010E08F8584FF25C06E0187E0C80ED11C49
:10229000F12CE12CB8010E2C02C0759567950A94BB
:1022A000E2F76170F60181916F010E94BD01FFEFBD
:1022B000EF1AFF0A88E0E816F10461F7CE01DF911A
:1022C000CF911F910F91FF90EF90DF90CF900C94E2
:1022D000E810B80184E0759567958A95E1F7CE011D
:1022E0000E94FE106F2DCE01DF91CF911F910F91B3
:1022F000FF90EF90DF90CF900C94FE1040E0682F9D
:102300008EE498E00C942B1181E00E947E118BE307
:102310009FE10197F1F70895CF93DF93823029F47D
:1023200090915D08986090935D0880936108109289
:10233000620880E48093630880E18093640880E50C
:102340008093650861E0809152080E944902809163
:1023500053088F3F19F061E00E94490261E08091CB
:1023600054080E944902CEE4D8E09E012E54384021
:1023700080915D0884FD0BC084E090E021962817D1
:10238000390744F461E08E810E944902EECF88E073
:1023900090E0F4CF8BE39DE00197F1F760E080914E
:1023A00052080E94BD0160E0809154080E94BD0166
:1023B000809153088F3F19F060E00E94BD01809129
:1023C0005D0884FD34C063E08EE498E00E94FE1056
:1023D000CBE4D6E4CE010197F1F763E08EE498E018
:1023E0000E94FE102197F1F763E08EE498E00E94CE
:1023F000FE1083E592E00197F1F762E08EE498E049
:102400000E94FE1080915D0880620E947E1184E02F
:1024100080935E088CE00E947E110E94841182E00D
:1024200080935F0886E0DF91CF910C947E118062EB
:102430000E947E118BE496E40197F1F780915D088C
:1024400080620E947E1183E592E00197F1F780910E
:102450005D0880620E947E11D5CF90916108891736
:1024600010F08FEF890FE82FF0E0E25BF74F8489DF
:1024700080680C947E1141E00E942B1181E090E075
:102480000895FB0101900020E9F73197AF01461B49
:10249000570BDC01ED91FC910280F381E02D199442
:1024A0008F929F92AF92BF92EF92FF920F931F93E2
:1024B000CF93DF93CDB7DEB7A1970FB6F894DEBF09
:1024C0000FBECDBF7C01FA01CB0119A2223008F466
:1024D0002AE08E010F5D1F4F822E912CB12CA12C72
:1024E000BF01A50194010E944021F901CA016A308F
:1024F0000CF5605DD8016E938D01232B242B252BC9
:1025000079F790E080E0109721F0BD01C7010E94AB
:102510004112A1960FB6F894DEBF0FBECDBFDF917A
:10252000CF911F910F91FF90EF90BF90AF909F9030
:102530008F900895695CDECF2F923F924F925F9209
:102540006F927F928F929F92AF92BF92CF92DF92C3
:10255000EF92FF921F93CF93DF93EC016A017B010F
:10256000722EAB019601CB01B6010E943B2161E6C0
:1025700072E0811126C046015701E894B7F82FEFA9
:102580003FEF4FE75FE7C501B4010E943B21811196
:102590000CC02FEF3FEF4FE75FE7C501B4010E948A
:1025A000711F65E672E0181664F02FEF3FEF4FE7FA
:1025B0005FE4C701B6010E94C9201816B4F469E6A9
:1025C00072E0CE01DF91CF911F91FF90EF90DF90ED
:1025D000CF90BF90AF909F908F907F906F905F90C3
:1025E0004F903F902F900C9441122FEF3FEF4FE709
:1025F0005FECC701B6010E94711F87FDE0CF20E0AC
:1026000030E0A901C701B6010E94711F312C212CB5
:1026100087FF0DC0E881F9810190F081E02D6DE226
:10262000CE0119951C01F7FAF094F7F8F09410E038
:1026300060E070E080E09FE3711641F020E030E060
:1026400040E251E40E94761F1F5FF6CFA70196017A
:102650000E94051F2B013C010E94E81F4B015C01F9
:102660002AE0BC01A401CE010E9450127C01E20CC0
:10267000F31C1123E1F1C501B4010E9417209B0155
:10268000AC01C301B2010E94041F4B015C01E8814F
:10269000F9810190F081E02D6EE2CE011995E80EEE
:1026A000F91E115020F120E030E040E251E4C50174
:1026B000B4010E94CE202B013C010E94E81F4B0177
:1026C000B12CA12C2AE0B501A401CE010E94501228
:1026D000E80EF91EC501B4010E9417209B01AC0150
:1026E000C301B2010E94041F4B015C01DACFC70194
:1026F000DF91CF911F91FF90EF90DF90CF90BF902F
:10270000AF909F908F907F906F905F904F903F9091
:102710002F90089522E00C949C120F931F93CF9357
:10272000DF93EC0122E00E949C128C016DE672E0C6
:10273000CE010E944112800F911FDF91CF911F9116
:102740000F9108950F931F93CF93DF93EC010E9495
:1027500041128C016DE672E0CE010E944112800FA1
:10276000911FDF91CF911F910F9108950C94411209
:102770004F925F926F927F928F929F92AF92BF9291
:10278000CF92DF92EF92FF920F931F932B013C01A8
:1027900049015A0167016AEE73E08FE298E00E94F6
:1027A000B613B301A2018FE298E00E948A1360E79A
:1027B00072E08FE298E00E94B613B501A4018FE2A7
:1027C00098E00E948A136EE772E08FE298E00E9420
:1027D000B613B801A6018FE298E00E948A136AE856
:1027E00072E08FE298E00E94A2136DE872E087E445
:1027F00097E01F910F91FF90EF90DF90CF90BF90E7
:10280000AF909F908F907F906F905F904F900C94BF
:10281000A2133F924F925F926F927F928F929F92FC
:10282000AF92BF92CF92DF92EF92FF920F931F93DE
:10283000CF93DF9300D000D000D01F921F92CDB76E
:10284000DEB77C01FE013196CE010C966F0130E2BD
:102850003193E817F907E1F7DA0130E087E09D915D
:10286000B92E992309F43CC09E32F1F48A30C9F4A0
:1028700080E02B960FB6F894DEBF0FBECDBFDF9180
:10288000CF911F910F91FF90EF90DF90CF90BF906D
:10289000AF909F908F907F906F905F904F903F9000
:1028A000089538E08AE0DBCFE0E9F1E04491442389
:1028B00021F031969413FACFDBCF8317C8F24FED96
:1028C000490F4E35A8F64FE9490F4A3118F440EE4A
:1028D000B42EB90EF601E30FF11DB0823F5FBFCFFA
:1028E0008981803229F2322E8B01DB015B968D913A
:1028F0009C915C97F701948F838F16961D921D9281
:102900001D921C921997FB01128613861486158658
:10291000F80182859385A485B585438954896589A5
:10292000768984179507A607B70708F04DC025E0FC
:10293000B695A795979587952A95D1F7F82FFF70AB
:10294000AF2ED80115968C91823008F491CFC80132
:102950000E942B0F97FD8CCFF80182859385A4856B
:10296000B5854F96A11DB11D82879387A487B58732
:10297000F0E2AF9EB00111246B5B7A4F61157105D7
:1029800009F476CFDB018C91882341F0853E09F074
:1029900062C0BB2029F0BB24B394BACFB1100EC0E3
:1029A000F701A28A8091000290910102A091020297
:1029B000B091030286879787A08BB18BDB018C9146
:1029C0008111E9CFBB24B394832D8271823109F048
:1029D0004FCFBB2009F44DC0F7016685778580890C
:1029E000918941E00E942907882309F441CFD7014A
:1029F00052968C91B0E28B9FC00111248B5B9A4F51
:102A0000009709F435CFFC013A9626E1DF011D92CB
:102A10002A95E9F72BE0F601DC0101900D922A9549
:102A2000E1F721E238E2FC01318B208B40E058E0F5
:102A300057874687338B228B318F208F578B468B5E
:102A400081E00E94FE06882309F412CF432DD701AE
:102A500052966C910AC04BE050E0C6010E94A92238
:102A6000892B09F055CF432D6A2DC7010E947C1098
:102A700000CFF8018581823009F4FACEC8010E94A6
:102A8000120B882309F4F4CED8015B96ED91FC91EA
:102A90005C9716968D909D90AD90BC901997B2E082
:102AA0008B1A9108A108B108858504C0880C991C6F
:102AB000AA1CBB1C8A95D2F786859785A089B18907
:102AC000880E991EAA1EBB1E848124013501480E62
:102AD000511C611C711C84149504A604B70409F1EF
:102AE000E1E04E1A51086108710881E00E94FE067B
:102AF000882309F4BDCEE5E4F5E0119285E497E082
:102B00008E179F07D1F74092000250920102609207
:102B10000202709203028091EE0481608093EE04C1
:102B2000DACFD8015B96ED91FC91258580E092E0AB
:102B3000A0E0B0E004C0880F991FAA1FBB1F2A9510
:102B4000D2F7F8014389548965897689840F951FE6
:102B5000A61FB71F838B948BA58BB68BD70152967C
:102B60001C9285E495E04FCFEF92FF920F931F9355
:102B7000CF93DF93EC017B018A011B821A8288EEDE
:102B800093E0A0E0B0E08C839D83AE83BF8387E1B8
:102B900092E0998388838DE190E00E9484219A8F4E
:102BA000898F009779F02DE1F701DC0101900D92FA
:102BB0002A95E1F74CE050E0B801CE010C960E9456
:102BC000B622188EDF91CF911F910F91FF90EF9059
:102BD0000895EF92FF920F931F93CF93DF93CDB79A
:102BE000DEB7C755D1090FB6F894DEBF0FBECDBF13
:102BF0008C011C821B828BE3E82E82E0F82EFA8285
:102C0000E9821E82CE0101960E942A0ABE016F5FF0
:102C10007F4FCE01CB960E946F0E19A218A2FF8E95
:102C2000EE8E1BA221968FAD2197811121C0F80154
:102C30001382128288EE93E0A0E0B0E08483958353
:102C4000A683B78387E192E091838083128E118EF1
:102C50001486C801C95ADF4F0FB6F894DEBF0FBE05
:102C6000CDBFDF91CF911F910F91FF90EF9008950D
:102C700027E146E254E0BE01655C7F4FCE014E96EF
:102C80000E940914882399F2CE01CB960E94B60CBB
:102C900049A95AA96BA97CA9CE014E960E947E0A29
:102CA000BE01625E7F4FCE0101960E946F0E46E22A
:102CB00054E0BE016F5F7F4FC8010E94B415C9CFB9
:102CC0001F920F920FB60F9211242F933F938F9361
:102CD0009F93AF93BF9380913D0590913E05A09146
:102CE0003F05B091400530913C0523E0230F2D377F
:102CF00058F50196A11DB11D20933C0580933D051B
:102D000090933E05A0933F05B09340058091410507
:102D100090914205A0914305B09144050196A11DF3
:102D2000B11D8093410590934205A0934305B09354
:102D30004405BF91AF919F918F913F912F910F903B
:102D40000FBE0F901F90189526E8230F0296A11D25
:102D5000B11DD2CF1F920F920FB60F9211240BB656
:102D60000F922F933F934F935F936F937F938F9324
:102D70009F93AF93BF93EF93FF9387E497E00E94F5
:102D8000B203FF91EF91BF91AF919F918F917F918E
:102D90006F915F914F913F912F910F900BBE0F90CC
:102DA0000FBE0F901F9018951F920F920FB60F92A3
:102DB00011240BB60F922F938F939F93EF93FF9352
:102DC000E0915707F09158078081E0915D07F091FD
:102DD0005E0782FD1DC09081809160078F5F8F73B9
:102DE00020916107821741F0E0916007F0E0E95B14
:102DF000F84F958F80936007FF91EF919F918F918E
:102E00002F910F900BBE0F900FBE0F901F90189533
:102E10008081F2CF1F920F920FB60F9211240BB642
:102E20000F922F933F934F935F936F937F938F9363
:102E30009F93AF93BF93EF93FF93E0913605F0918B
:102E40003705309749F0A685B7858585968D91FF22
:102E500016C09C918923B1F4FF91EF91BF91AF917E
:102E60009F918F917F916F915F914F913F912F91A2
:102E70000F900BBE0F900FBE0F901F9018959C9156
:102E8000892351F7A389B4899C91858980958923E9
:102E90008C93868997890197F1F7608D718DA6854E
:102EA000B785558538E020E0CB010197F1F7822FF7
:102EB00090E095958795282F4C91452309F020683F
:102EC000315091F7868D81FD20958091350590E0F8
:102ED00001968F73992730913405381799F0A09196
:102EE0003505B0E0AD50BB4F2C9380933505828DF6
:102EF000938D0197F1F7A389B4898C919589892BDA
:102F00008C93AACF868D8160868FF1CFCF92DF928E
:102F1000EF92FF9210924A071092490798EEC92E3D
:102F200093E0D92EE12CF12CC0924B07D0924C07A4
:102F3000E0924D07F0924E0789E292E090934807A5
:102F40008093470785EC90E0909354078093530754
:102F500084EC90E0909356078093550780EC90E0C6
:102F6000909358078093570781EC90E090935A070D
:102F70008093590782EC90E090935C0780935B0705
:102F800086EC90E090935E0780935D071092600757
:102F900010926107109262071092630780E5809398
:102FA000E4071092E5071092EB071092EC071092DD
:102FB000EF071092F10782E090E0A0E0B0E080938C
:102FC000F2079093F307A093F407B093F5071092DC
:102FD000090810921308109212088BE392E0909364
:102FE0001108809310081092150810925108109241
:102FF000500889E592E090934F0880934E088CE04A
:10300000809352088FEF809353088BE0809354088D
:1030100085E08093550884E08093560883E0809390
:10302000570882E0809358081092590810925A0865
:1030300010925B0810925C0810925D0881E00E947B
:103040008C111092320810923108C0923308D0923D
:103050003408E0923508F092360887E492E09093C5
:10306000300880932F08109246081092450810925D
:1030700048081092470810924A0810924908109286
:103080004C0810924B0860914D086E7F6D7F6093E5
:103090004D086695617081E068278BE00E94BD0154
:1030A00061E08BE00E944902E5E8F2E0E491E09300
:1030B0003F08EFE3F2E0E491F0E0EE0FFF1FE65E81
:1030C000FD4F85919491909341088093400860E072
:1030D0008AE00E94490280914D0881FD04C061E0B0
:1030E0008AE00E94BD018AE080933B08E4E8F2E0B8
:1030F000E491E0933C08EEE3F2E0E491F0E0EE0FBF
:10310000FF1FE050FE4F8591949190933E0880936D
:103110003D08FF90EF90DF90CF900895CF93DF931D
:10312000CDB7DEB7A3970FB6F894DEBF0FBECDBF05
:10313000789484B5826084BD84B5816084BD85B592
:10314000826085BD85B5816085BD80916E0081609E
:1031500080936E0010928100809181008260809344
:103160008100809181008160809381008091800046
:103170008160809380008091B10084608093B10071
:103180008091B00081608093B00080919100826056
:103190008093910080919100816080939100809153
:1031A00090008160809390008091A1008260809364
:1031B000A1008091A10081608093A1008091A00076
:1031C00081608093A0008091210182608093210121
:1031D0008091210181608093210180912001816093
:1031E0008093200180917A00846080937A0080919E
:1031F0007A00826080937A0080917A008160809367
:103200007A0080917A00806880937A001092C100E1
:103210000E94950182E00E948C1167EA72E08EE4C0
:1032200098E00E94B61360ED77E080E090E00E94A5
:1032300000030E9484110E94950182E00E948C117B
:1032400067EA72E08EE498E00E94B61360ED77E0E2
:1032500080E090E00E9400030E9484118091150894
:10326000882321F080E198E00E94B60C1092F107CB
:103270001092EF071092EC071092EB0784E0809316
:10328000EA070E9432037B0161E08091EA070E9415
:10329000490261E08091EA070E94BD01DFB6F8941F
:1032A00080913305811127C0E9E6F2E08491EFEACD
:1032B000F2E09491E82FF0E0EE0FFF1FE056FE4F92
:1032C000A591B491EC91E92321F461E085E30E949A
:1032D000BD0161E085E30E9449028CB580618CBD2F
:1032E0008CB580648CBD61E084E30E94490261E09A
:1032F00083E30E944902809133058F5F80933305F9
:10330000DFBE82E58093E4071092E5078091E40731
:103310009091E5070E9454051AE08FEF0E942F0557
:103320001150D9F786EE97E00E94570520E030E073
:10333000A90160E086EE97E00E946D05182F80934A
:10334000F0078130D9F00E9432036E197F09613D88
:10335000774060F381E08093EB0786EE97E00E9470
:10336000240568ED72E087E497E00E94A21367EFFE
:1033700072E08EE498E00E94B6138CC02AEA31E035
:1033800040E050E068E086EE97E00E946D0582FF25
:103390002AC01093F1078091F107812C912C5401E0
:1033A000823029F4812C912CA12C80E4B82E20E0CD
:1033B00030E0A90167E386EE97E00E946D05A50164
:1033C000940169E286EE97E00E946D058093F00714
:1033D0008823C1F00E9432036E197F09613D774056
:1033E00030F388E0B8CF14E00E9436058093F007F0
:1033F0001150D1F78A3A11F082E0ADCF82E080938C
:10340000F107C9CF8091F1078230D1F420E030E09C
:10341000A9016AE386EE97E00E946D05882311F00A
:1034200086E099CF0E943605807C803C19F483E0C9
:103430008093F1070E9436050E9436050E943605EA
:1034400086EE97E00E94240580E58093E4071092C1
:10345000E50781E00E947307882309F433C480E103
:1034600098E00E942A0A882309F47BCF63EB72E07C
:1034700087E497E00E94A21368EC72E08EE498E083
:103480000E94B61360ED77E080E090E00E940003B8
:103490000E94841110924A0810924908109248081C
:1034A0001092470810924608109245088DE991E065
:1034B00090934C0880934B0880913B0896EF980FAF
:1034C000943048F02EEC280F243028F022EC280FFE
:1034D000283008F061C02DEB30E03093460820938F
:1034E00045082BE931E030934808209347082CE247
:1034F00031E030934A0820934908943050F02EEC84
:10350000280F243030F022EC280FF0E0E0E02830E3
:1035100010F4E8E6F0E02081943028F032EC380F27
:10352000383008F4D6C331E0232B943048F09EECB9
:10353000980F943028F08E53F0E0E0E0883010F4DB
:10354000E8E6F0E0208320913B0836EF320F34307C
:1035500008F4C1C38EEC820F843008F4BCC382EC43
:10356000820F883008F4BAC390E080E0909343085B
:1035700080934208343008F0B4C32650330B81E006
:1035800001C0880F2A95EAF78093440880914B0880
:1035900090914C080197F1F78091490890914A0861
:1035A000892B49F1E0913605F091370548E0EF327B
:1035B000F40709F1309739F0A389B4899C91858982
:1035C000809589238C9380914D088E7F80934D0840
:1035D00010923505109234058FE298E090933705EC
:1035E00080933605E0914208F091430880819091E4
:1035F0004408892B808366E073E087E497E00E94AB
:10360000A21361E08DE00E94490260E08DE00E941B
:10361000BD016DE173E087E497E00E94A21368E3C7
:1036200073E087E497E00E94A2130E94841180E077
:103630000E942D126FE673E08EE498E00E94B613AC
:1036400081E00E942D1261E873E08EE498E00E9410
:10365000B61368EB7BE080E090E00E94000320E07E
:1036600030E040E251E460910402709105028091E3
:103670000602909107020E94051F60930402709356
:10368000050280930602909307020E9484116CE861
:1036900073E08EE498E00E94B613409104025091CA
:1036A000050260910602709107028EE498E00E9484
:1036B0008A1360ED77E080E090E00E94000368E903
:1036C00073E087E497E00E94A213332433940E94AE
:1036D00097024B015C010E94C5026B017C01AC01A9
:1036E0009B01C501B4010E94CE202B013C010E9428
:1036F000320368A379A38AA39BA380913805909194
:103700003905A0913A05B0913B0528A139A14AA1FC
:103710005BA1281B390B4A0B5B0B203D3740410551
:10372000510580F128A139A14AA15BA12093380558
:103730003093390540933A0550933B050E9484111C
:1037400080910802882309F4E1C280E00E942D12D2
:1037500067EC73E08EE498E00E94B61381E00E946B
:103760002D12B301A2018EE498E00E948A136AE848
:1037700072E08EE498E00E94B613809108028325DF
:103780008093080264E772E087E497E00E94B61332
:10379000B501A40187E497E00E948A1366EE73E006
:1037A00087E497E00E94B613B701A60187E497E08B
:1037B0000E948A1364EF73E087E497E00E94B613D7
:1037C000B301A20187E497E00E948A136AE872E0DD
:1037D00087E497E00E94A2130E9497024B015C01CC
:1037E0000E94C5026B017C01AC019B01C501B401C3
:1037F0000E94CE202B013C01CE0101960E94E915CA
:10380000EA8DFB8D309709F4A8C28581882309F4DD
:10381000A4C26AEE73E0CE0101960E94B613B7010E
:10382000A601CE0101960E948A1360E772E0CE01E4
:1038300001960E94B613B501A401CE0101960E9423
:103840008A136EE772E0CE0101960E94B613B301AF
:10385000A201CE0101960E948A136AE872E0CE01AD
:1038600001960E94A2138A8D9B8D009741F00E94C1
:10387000B60C8A8D9B8D0E9420221B8E1A8E60E0D2
:1038800074E087E497E00E94A2130E94320368A3C9
:1038900079A38AA39BA38091380590913905A091C3
:1038A0003A05B0913B0528A139A14AA15BA1281B8B
:1038B000390B4A0B5B0B203D37404105510580F128
:1038C00028A139A14AA15BA120933805309339057D
:1038D00040933A0550933B050E9484118091080261
:1038E000882309F43DC280E00E942D1267EC73E04A
:1038F0008EE498E00E94B61381E00E942D12B3017D
:10390000A2018EE498E00E948A136AE872E08EE4D5
:1039100098E00E94B61380910802832580930802E4
:1039200064E772E087E497E00E94B613B501A40152
:1039300087E497E00E948A1366EE73E087E497E0DD
:103940000E94B613B701A60187E497E00E948A138C
:1039500064EF73E087E497E00E94B613B301A2011D
:1039600087E497E00E948A136AE872E087E497E0B0
:103970000E94A2130E9497022B013C010E94C502E3
:103980004B015C01AC019B01C301B2010E94CE203E
:103990007B018C01A3019201C501B4010E94B813FF
:1039A0000E9497022B013C010E94C5024B015C0161
:1039B000AC019B01C301B2010E94CE206B017C01CE
:1039C00062E872E087E497E00E94B613B701A601AF
:1039D00087E497E00E948D1387017601A30192018D
:1039E000C501B4010E94B8130E94970220E030E0A4
:1039F00040EF51E40E94CE202B013C010E94C50201
:103A00002FE832E44AE653E40E94CE204B015C01E9
:103A1000AC019B01C301B2010E94CE206B017C016D
:103A200062E872E087E497E00E94B613B701A6014E
:103A300087E497E00E948D1387017601A30192012C
:103A4000C501B4010E94B8130E9497026B017C016A
:103A50000E94C5029B01AC01C701B6010E94CE20A5
:103A600020E030E048EC52E40E94C92018160CF027
:103A70009EC161E08DE00E94BD0162E374E087E4D5
:103A800097E00E94A2136DE574E087E497E00E943E
:103A9000A2130E9497024B015C010E94C5022B01F8
:103AA0003C01AC019B01C501B4010E94CE206B0119
:103AB0007C010E9432036C8F7D8F8E8F9F8F66E713
:103AC00074E087E497E00E94B6132AE04C8D5D8D88
:103AD0006E8D7F8D87E497E00E94501268EE73E050
:103AE00087E497E00E94B613B301A20187E497E050
:103AF0000E948A1360E772E087E497E00E94B613A1
:103B0000B501A40187E497E00E948A136EE772E092
:103B100087E497E00E94B613B701A60187E497E017
:103B20000E948A136AE872E087E497E00E94A21379
:103B3000CE0101960E94E915EA8DFB8D309709F4BC
:103B40003BC18581882309F437C166E774E0CE0163
:103B500001960E94B6132AE04C8D5D8D6E8D7F8D8F
:103B6000CE0101960E94501268EE73E0CE010196DC
:103B70000E94B613B301A201CE0101960E948A13DE
:103B800060E772E0CE0101960E94B613B501A40170
:103B9000CE0101960E948A136EE772E0CE01019673
:103BA0000E94B613B701A601CE0101960E948D13A3
:103BB0008A8D9B8D009731F00E94B60C8A8D9B8D6B
:103BC0000E94202220E030E048EC52E4C701B60118
:103BD0000E94C92018160CF0F6C061E08DE00E942A
:103BE000BD0162E374E087E497E00E94A21362E8FB
:103BF00074E087E497E00E94A2130E9497026B0191
:103C00007C010E94C5024B015C016BE974E087E412
:103C100097E00E94B613A5019401C701B6010E9466
:103C2000CE2020E030E04AE754E40E94761F2FE8DF
:103C300032EC45EF5DE30E94CE20AB01BC0187E48E
:103C400097E00E948D136DEA74E087E497E00E948C
:103C5000A2132AE037ED43EA5CE360910902709118
:103C60000A0280910B0290910C020E94051F609342
:103C7000090270930A0280930B0290930C020E9437
:103C8000841166EC74E08EE498E00E94B6134091D3
:103C9000090250910A0260910B0270910C028EE4AD
:103CA00098E00E948A1360ED77E080E090E00E9447
:103CB000000362ED74E087E497E00E94A2130E9483
:103CC000410405CD80E00E947307882309F449CBA5
:103CD000C6CB34E029CC8BE690E048CC8DE690E072
:103CE00045CC88E0223309F44FCC84E0233309F437
:103CF0004BCC82E0243309F447CC82EC820F88302D
:103D000018F42E53330B3BCC81E03ECC80E00E9474
:103D10002D126EEC73E08EE498E00E94B613B701AA
:103D2000A6018EE498E00E948A1367ED73E08EE4AA
:103D300098E00E94B61381E00E942D126AED73E0B4
:103D40008EE498E00E94B613B501A4018EE498E0D9
:103D50000E948A1363EE73E00CCD68E174E091CDAC
:103D600080E00E942D126EEC73E08EE498E00E94D9
:103D7000B613B701A6018EE498E00E948A1367ED9E
:103D800073E08EE498E00E94B61381E00E942D1249
:103D90006AED73E08EE498E00E94B613B501A401C9
:103DA0008EE498E00E948A1363EE73E0B0CD60E089
:103DB0008DE00E94BD0167CE68E174E087E497E082
:103DC0000E94A213FFCE60E08DE00E94BD010FCFE4
:103DD00087E492E09093300880932F088091360515
:103DE000909137058F52984071F4E0914208F0911C
:103DF00043089081809144088095892380831092A4
:103E000037051092360508955058BB27AA270E94FF
:103E10001C1F0C948F200E94812038F00E94882063
:103E200020F039F49F3F19F426F40C947E200EF410
:103E3000E095E7FB0C947820E92F0E94A02058F32E
:103E4000BA17620773078407950720F079F4A6F57F
:103E50000C94C2200EF4E0950B2EBA2FA02D0B016E
:103E6000B90190010C01CA01A0011124FF27591BBF
:103E700099F0593F50F4503E68F11A16F040A22FC5
:103E8000232F342F4427585FF3CF46953795279536
:103E9000A795F0405395C9F77EF41F16BA0B620B35
:103EA000730B840BBAF09150A1F0FF0FBB1F661F7C
:103EB000771F881FC2F70EC0BA0F621F731F841FBF
:103EC00048F4879577956795B795F7959E3F08F0E5
:103ED000B0CF9395880F08F09927EE0F97958795A7
:103EE00008950E94542008F481E008950E948A1FDA
:103EF0000C948F200E94882058F00E94812040F06E
:103F000029F45F3F29F00C94782051110C94C320C0
:103F10000C947E200E94A02068F39923B1F35523CE
:103F200091F3951B550BBB27AA27621773078407CC
:103F300038F09F5F5F4F220F331F441FAA1FA9F362
:103F400035D00E2E3AF0E0E832D091505040E69550
:103F5000001CCAF72BD0FE2F29D0660F771F881FB1
:103F6000BB1F261737074807AB07B0E809F0BB0BA4
:103F7000802DBF01FF2793585F4F3AF09E3F5105B8
:103F800078F00C9478200C94C3205F3FE4F3983EC3
:103F9000D4F3869577956795B795F7959F5FC9F7A1
:103FA000880F911D9695879597F90895E1E0660F22
:103FB000771F881FBB1F621773078407BA0720F09B
:103FC000621B730B840BBA0BEE1F88F7E095089504
:103FD0000E94A82088F09F5798F0B92F9927B751D1
:103FE000B0F0E1F0660F771F881F991F1AF0BA959D
:103FF000C9F714C0B13091F00E94C220B1E0089519
:104000000C94C220672F782F8827B85F39F0B93F0A
:10401000CCF3869577956795B395D9F73EF490954F
:104020008095709561957F4F8F4F9F4F0895E894CD
:1040300009C097FB3EF490958095709561957F4FF0
:104040008F4F9F4F9923A9F0F92F96E9BB2793959E
:10405000F695879577956795B795F111F8CFFAF4AE
:10406000BB0F11F460FF1BC06F5F7F4F8F4F9F4FDF
:1040700016C0882311F096E911C0772321F09EE83D
:10408000872F762F05C0662371F096E8862F70E0A3
:1040900060E02AF09A95660F771F881FDAF7880F7D
:1040A0009695879597F90895990F0008550FAA0BD3
:1040B000E0E8FEEF16161706E807F907C0F012163B
:1040C0001306E407F50798F0621B730B840B950B3E
:1040D00039F40A2661F0232B242B252B21F4089593
:1040E0000A2609F4A140A6958FEF811D811D089530
:1040F00097F99F6780E870E060E008959FEF80EC9B
:10410000089500240A94161617061806090608953D
:1041100000240A9412161306140605060895092EA3
:104120000394000C11F4882352F0BB0F40F4BF2B12
:1041300011F460FF04C06F5F7F4F8F4F9F4F089552
:1041400057FD9058440F551F59F05F3F71F0479548
:10415000880F97FB991F61F09F3F79F0879508952D
:10416000121613061406551FF2CF4695F1DF08C04C
:10417000161617061806991FF1CF86957105610569
:1041800008940895E894BB2766277727CB0197F911
:1041900008950E94542008F48FEF08950E94E120B2
:1041A0000C948F200E94812038F00E94882020F0FB
:1041B000952311F00C9478200C947E2011240C94FB
:1041C000C3200E94A02070F3959FC1F3950F50E08B
:1041D000551F629FF001729FBB27F00DB11D639FB9
:1041E000AA27F00DB11DAA1F649F6627B00DA11D5F
:1041F000661F829F2227B00DA11D621F739FB00D05
:10420000A11D621F839FA00D611D221F749F332774
:10421000A00D611D231F849F600D211D822F762F0D
:104220006A2F11249F5750409AF0F1F088234AF0EA
:10423000EE0FFF1FBB1F661F771F881F9150504056
:10424000A9F79E3F510580F00C9478200C94C32070
:104250005F3FE4F3983ED4F3869577956795B795DD
:10426000F795E7959F5FC1F7FE2B880F911D9695F7
:10427000879597F908950E945420880B990B08950B
:10428000A1E21A2EAA1BBB1BFD010DC0AA1FBB1F5A
:10429000EE1FFF1FA217B307E407F50720F0A21BCC
:1042A000B30BE40BF50B661F771F881F991F1A9439
:1042B00069F760957095809590959B01AC01BD0163
:1042C000CF010895EE0FFF1F881F8BBF0790F69157
:1042D000E02D19940E947521A59F900DB49F900D1B
:1042E000A49F800D911D11240895A29FB001B39F3A
:1042F000C001A39F700D811D1124911DB29F700DEF
:10430000811D1124911D08950F931F93CF93DF9367
:104310008230910510F482E090E0E0916808F0911D
:10432000690830E020E0B0E0A0E0309799F4211572
:10433000310509F44AC0281B390B24303105D8F562
:104340008A819B816115710589F1FB0193838283C9
:10435000FE0111C040815181028113814817590724
:10436000E0F04817590799F4109761F012960C93F2
:10437000129713961C933296CF01DF91CF911F9124
:104380000F9108950093680810936908F4CF2115E0
:10439000310551F04217530738F0A901DB019A01AA
:1043A000BD01DF01F801C1CFEF01F9CF909369089A
:1043B00080936808CDCFFE01E20FF31F81939193A4
:1043C0002250310939832883D7CF20916608309154
:1043D0006708232B41F420910F0230911002309393
:1043E00067082093660820910D0230910E02211576
:1043F000310541F42DB73EB74091110250911202A0
:10440000241B350BE0916608F0916708E217F3076B
:10441000A0F42E1B3F0B2817390778F0AC014E5F34
:104420005F4F2417350748F04E0F5F1F5093670802
:1044300040936608819391939FCFF0E0E0E09CCF9A
:10444000CF93DF930097E9F0FC0132971382128239
:10445000A0916808B0916908ED0130E020E0109764
:10446000A1F420813181820F931F20916608309141
:1044700067082817390709F061C0F0936708E093CF
:104480006608DF91CF910895EA01CE17DF07E8F5BE
:104490004A815B819E0141155105B1F7E901FB831A
:1044A000EA8349915991C40FD51FEC17FD0761F4B8
:1044B000808191810296840F951FE90199838883F9
:1044C000828193819B838A83F0E0E0E012968D9154
:1044D0009C9113970097B9F52D913C911197CD01BF
:1044E0000296820F931F2091660830916708281763
:1044F000390739F6309751F510926908109268081B
:10450000B0936708A0936608BCCFD383C283408171
:104510005181840F951FC817D90761F44E5F5F4F13
:1045200088819981480F591F518340838A819B81DB
:10453000938382832115310509F0B0CFF093690888
:10454000E09368089ECFFD01DC01C0CF1382128288
:10455000D7CFFB01DC0104C08D910190801921F4BB
:1045600041505040C8F7881B990B0895FB01DC01AE
:104570004150504048F001900D920020C9F701C011
:104580001D9241505040E0F7089511E0C1E6D1E09E
:1045900000E006C0802FFE010E9462212196011DCD
:0E45A000C236D10780E00807A9F7F894FFCFD4
:1045AE00FFFFFFFF0000C842018FC2F53D00006A09
:1045BE0008800000000000150FF80EE80EBF0EC8B0
:1045CE000E4A10541000000000D4033E036B03216A
:1045DE00049C037A038E03000000005E0E3E035817
:1045EE000C7810000000008B043E0379108A04E75B
:1045FE0004FD047204000000003B123E03791078A3
:10460E00106E616E00696E66006F7666000D0A00B0
:10461E0020562C2043757272656E743A200020412C
:10462E002C20506F7765723A200020570044617439
:10463E00612073656E74206F76657220426C7565AD
:10464E00746F6F74682E00506F776572204D6574AD
:10465E006572005344206361726420696E697469E7
:10466E00616C697A65642E00534420496E6974202A
:10467E0053756363657373005344206361726420E2
:10468E00696E697469616C697A6174696F6E2066AE
:10469E0061696C65642100534420496E697420463B
:1046AE0061696C656400426C7565746F6F74682027
:1046BE00696E697469616C697A65642E00566572FB
:1046CE0073696F6E20372E302053657475702043DA
:1046DE006F6D706C6574650056657273696F6E20D0
:1046EE00392E3020536574757020436F6D706C6574
:1046FE007465207769746820456E6572677920430A
:10470E006F737420457374696D6174696F6E0031D7
:10471E002E506F776572205468726573686F6C6483
:10472E0000322E436F73742F6B5768005468726596
:10473E0073686F6C643A200056657273696F6E20F1
:10474E0031302E3020536574757020436F6D706C50
:10475E0065746520776974682053657474696E6733
:10476E0073204D656E7500506F7765723A00566F07
:10477E006C746167653A0020560043757272656EFF
:10478E00743A0020410020412C20566F6C746167F2
:10479E00653A200020562C20506F7765723A200023
:1047AE0044617461206C6F6767656420746F205379
:1047BE004420636172642E004572726F72206F70B6
:1047CE00656E696E6720646174616C6F672E7478B4
:1047DE007400506F776572207468726573686F6CC1
:1047EE00642065786365656465642120416C65723B
:1047FE0074207472696767657265642E00566572FF
:10480E0073696F6E20372E30204C6F6F702052758B
:10481E006E6E696E670054696D657374616D703A82
:10482E00200056657273696F6E20382E30204C6FE3
:10483E006F702052756E6E696E6700457374696D88
:10484E006174656420436F73743A20240056657258
:10485E0073696F6E20392E30204C6F6F7020527539
:10486E006E6E696E6700436F73742F6B57683A20D4
:10487E00240056657273696F6E2031302E30204CD5
:0C488E006F6F702052756E6E696E6700CF
:00000001FF
