:100000000C942E010C945F010C945F010C945F0121
:100010000C945F010C945F010C945F010C945F01E0
:100020000C945F010C945F010C945F010C945F01D0
:100030000C945F010C945F010C945F010C945F01C0
:100040000C945F010C945F010C945F010C945F01B0
:100050000C945F010C945F010C945F010C942606D4
:100060000C945F010C949A060C9470060C945F013A
:100070000C945F010C945F010C945F010C945F0180
:100080000C945F010C945F010C945F010C945F0170
:100090000C945F010C945F010C945F010C945F0160
:1000A0000C945F010C945F010C945F010C945F0150
:1000B0000C945F010C945F010C945F010C945F0140
:1000C0000C945F010C945F010C945F010C945F0130
:1000D0000C945F010C945F010C945F010C945F0120
:1000E0000C945F010C9482030C9420060C94020281
:1000F0000C94F8010C94D6010C9431030C94B001CB
:100100000C94D0060C947B020C94F4010C94C7015F
:100110000C9483030C944E020C949E020C948A025D
:100120000C94EA010C94E6010C94E0010C94060294
:100130000C94DC010C94E4020C94AC020C94EE01DF
:100140000C94FC010C94CF010C94D3010C94B501D8
:100150000C94CB0100000A0B02090C0D0E080703DA
:10016000040100000000000000000000000000008A
:10017000000000000000000000000000000000007F
:10018000121110000000000000000000000000003C
:100190000000000000000000000000002200250018
:1001A00028002B002E003100340002010000050160
:1001B00008010B0100002100240027002A002D0067
:1001C0003000330001010000040107010A010505A8
:1001D0000505070508080808020202020A0A0808BD
:1001E00004040404010101010101010103030303EB
:1001F00003030303040707070C0C0C0C0C0C0C0C7A
:100200000202020206060606060606060B0B0B0B8A
:100210000B0B0B0B010210202008081020401020AF
:1002200040800201020108040201010204081020BA
:1002300040808040201008040201800402018040B8
:100240002010080402010804020101020408102021
:1002500040800102040810204080D00611241FBEF7
:10026000CFEFD1E2DEBFCDBF00E00CBF12E0A0E0D7
:10027000B2E0E8E8F6E100E00BBF02C007900D92A3
:10028000A038B107D9F723E0A0E8B2E001C01D9281
:10029000A234B207E1F711E0CEE2D1E000E006C0FF
:1002A00021970109802FFE010E943A0BCD32D10720
:1002B00080E00807A9F70E941A070C94420B0C94DF
:1002C000000090E0FC01EC5EFD4F249182539E4FB4
:1002D000FC018491882399F090E0880F991FFC011C
:1002E000EC54FE4FA591B491FC01E656FE4F85916A
:1002F00094918FB7F894EC91E22BEC938FBF089513
:10030000282F30E0F901EC5AFE4F9491F901EC5E90
:10031000FD4F449122533E4FF9012491222309F4C9
:1003200035C0992311F191509231F8F4E92FF0E0A2
:100330008827E256FE4F8F4F0C943A0BCF01D30122
:10034000B001C701CB01B501D601DC01E001E60136
:10035000EA01EE01F401F801B501FC010202060216
:10036000809180008F7780938000E22FF0E0EE0F85
:10037000FF1FE656FE4FA591B4918FB7F894EC910C
:10038000611148C040954E234C938FBF08958091D2
:1003900080008F7DE8CF80918000877FE4CF84B597
:1003A0008F7784BDE2CF84B58F7DFBCF8091B00085
:1003B0008F778093B000D9CF8091B0008F7DF9CF37
:1003C000809190008F7780939000CFCF80919000A4
:1003D0008F7DF9CF80919000877FF5CF8091A0002D
:1003E0008F778093A000C1CF8091A0008F7DF9CF3F
:1003F0008091A000877FF5CF809120018F77809337
:100400002001B3CF809120018F7DF9CF8091200111
:10041000877FF5CF4E2BB8CF863308F086532091D7
:100420007B00982F9870277F922B90937B0087708A
:10043000806480937C0080917A00806480937A004D
:1004400080917A0086FDFCCF8091780090917900B0
:1004500008953FB7F8948091890290918A02A09103
:100460008B02B0918C0226B5A89B05C02F3F19F0D6
:100470000196A11DB11D3FBFBA2FA92F982F882724
:10048000BC01CD01620F711D811D911D42E0660FFF
:10049000771F881F991F4A95D1F70895AF92BF9291
:1004A000CF92DF92EF92FF920F931F93CF93DF9340
:1004B0006C017B018B01040F151FEB015E01AE186F
:1004C000BF08C017D10759F06991D601ED91FC9191
:1004D0000190F081E02DC6011995892B79F7C501AE
:1004E000DF91CF911F910F91FF90EF90DF90CF9010
:1004F000BF90AF900895FC01538D448D252F30E0BF
:10050000842F90E0821B930B541710F0CF96089520
:1005100001970895FC01918D828D981761F0A28D4D
:10052000AE0FBF2FB11D5D968C91928D9F5F9F7313
:10053000928F90E008958FEF9FEF0895FC01918DC9
:10054000828D981731F0828DE80FF11D858D90E036
:1005500008958FEF9FEF0895FC01918D228D892FD3
:1005600090E0805C9F4F821B91098F7399270895BB
:100570008DE892E00E94AC0221E0892B09F420E092
:10058000822F0895FC01A48DA80FB92FB11DA35A85
:10059000BF4F2C91848D90E001968F739927848FA3
:1005A000A689B7892C93A089B1898C9183708064C6
:1005B0008C93938D848D981306C00288F389E02D67
:1005C00080818F7D80830895EF92FF920F931F9318
:1005D000CF93DF93EC0181E0888F9B8D8C8D9813F6
:1005E0001AC0E889F989808185FF15C09FB7F89402
:1005F000EE89FF896083E889F9898081837080644E
:1006000080839FBF81E090E0DF91CF911F910F9198
:10061000FF90EF900895F62E0B8D10E00F5F1F4FA7
:100620000F731127E02E8C8D8E110CC00FB607FCB6
:10063000FACFE889F989808185FFF5CFCE010E9444
:10064000C202F1CFEB8DEC0FFD2FF11DE35AFF4FEE
:10065000F0829FB7F8940B8FEA89FB8980818062D2
:10066000CFCFCF93DF93EC01888D8823B9F0AA898F
:10067000BB89E889F9898C9185FD03C0808186FD5D
:100680000DC00FB607FCF7CF8C9185FFF2CF8081AC
:1006900085FFEDCFCE010E94C202E9CFDF91CF915D
:1006A000089580E090E0892B29F00E94B802811122
:1006B0000E94000080E090E0892B49F080E090E00B
:1006C000892B29F00E94000081110E94000080E027
:1006D00090E0892B49F080E090E0892B29F00E947E
:1006E000000081110E94000080E090E0892B49F019
:1006F00080E090E0892B29F00E94000081110C9489
:1007000000000895089590E080E00895FB010190B5
:100710000020E9F73197AF01461B570BDC01ED9143
:10072000FC910280F381E02D19948F929F92AF92F9
:10073000BF92EF92FF920F931F93CF93DF93CDB7AA
:10074000DEB7A1970FB6F894DEBF0FBECDBF7C0118
:10075000FA01CB0119A2223008F42AE08E010F5DC4
:100760001F4F822E912CB12CA12CBF01A501940109
:100770000E94180BF901CA016A300CF5605DD801BE
:100780006E938D01232B242B252B79F790E080E0AD
:10079000109721F0BD01C7010E948603A1960FB6F4
:1007A000F894DEBF0FBECDBFDF91CF911F910F91A7
:1007B000FF90EF90BF90AF909F908F900895695CED
:1007C000DECF0C9486032F923F924F925F926F92EE
:1007D0007F928F929F92AF92BF92CF92DF92EF92D1
:1007E000FF921F93CF93DF93EC016A017B01722E7E
:1007F000AB019601CB01B6010E94130B6FE172E0D1
:10080000811126C046015701E894B7F82FEF3FEF5A
:100810004FE75FE7C501B4010E94130B81110CC0C3
:100820002FEF3FEF4FE75FE7C501B4010E94490991
:1008300063E272E0181664F02FEF3FEF4FE75FE4DA
:10084000C701B6010E94A10A1816B4F467E272E06B
:10085000CE01DF91CF911F91FF90EF90DF90CF906D
:10086000BF90AF909F908F907F906F905F904F90D0
:100870003F902F900C9486032FEF3FEF4FE75FECF4
:10088000C701B6010E94490987FDE0CF20E030E0B2
:10089000A901C701B6010E944909312C212C87FF0B
:1008A0000DC0E881F9810190F081E02D6DE2CE016B
:1008B00019951C01F7FAF094F7F8F09410E060E055
:1008C00070E080E09FE3711641F020E030E040E20C
:1008D00051E40E944E091F5FF6CFA70196010E94C6
:1008E000DD082B013C010E94C0094B015C012AE09C
:1008F000BC01A401CE010E9495037C01E20CF31C13
:100900001123E1F1C501B4010E94EF099B01AC0183
:10091000C301B2010E94DC084B015C01E881F9814E
:100920000190F081E02D6EE2CE011995E80EF91EDE
:10093000115020F120E030E040E251E4C501B40163
:100940000E94A60A2B013C010E94C0094B01B12C58
:10095000A12C2AE0B501A401CE010E949503E80E66
:10096000F91EC501B4010E94EF099B01AC01C3014E
:10097000B2010E94DC084B015C01DACFC701DF91B4
:10098000CF911F91FF90EF90DF90CF90BF90AF90ED
:100990009F908F907F906F905F904F903F902F909F
:1009A0000895CF93DF93EC0160E08E810E94800177
:1009B00061E08E810E94800160E08E810E94800152
:1009C0008BE891E00197F1F7DF91CF910895CF92F5
:1009D000DF92EF92FF920F931F93CF93DF936C01FF
:1009E0007C0187E0E80EF11CD0E0C0E0062F10E0AB
:1009F000B8010C2E02C0759567950A94E2F76170F4
:100A0000F70181917F010E9480012196C430D105B8
:100A100079F7C601DF91CF911F910F91FF90EF9071
:100A2000DF90CF900C94D104CF92DF92EF92FF929F
:100A30000F931F93CF93DF93EC01F62E642F8C81DD
:100A40000E9480018D818F3F19F060E00E9480013B
:100A50000F2D10E08F8584FF25C06E0187E0C80E42
:100A6000D11CF12CE12CB8010E2C02C075956795B4
:100A70000A94E2F76170F60181916F010E94800192
:100A8000FFEFEF1AFF0A88E0E816F10461F7CE01E4
:100A9000DF91CF911F910F91FF90EF90DF90CF905A
:100AA0000C94D104B80184E0759567958A95E1F7B7
:100AB000CE010E94E7046F2DCE01DF91CF911F91EF
:100AC0000F91FF90EF90DF90CF900C94E70440E0FF
:100AD000682F8AE293E00C94140581E00E94670578
:100AE0008BE39FE10197F1F70895CF93DF93823075
:100AF00029F49091390398609093390380933D03D2
:100B000010923E0380E480933F0380E18093400392
:100B100080E58093410380912E030E9461018091C2
:100B20002F038F3F11F00E946101809130030E94DA
:100B30006101CAE2D3E09E012A5233408091390319
:100B400084FD0AC084E090E02196281739073CF420
:100B50008E810E946101EFCF88E090E0F5CF8BE3BA
:100B60009DE00197F1F760E080912E030E948001E3
:100B700060E0809130030E94800180912F038F3FBD
:100B800019F060E00E9480018091390384FD34C037
:100B900063E08AE293E00E94E704CBE4D6E4CE016E
:100BA0000197F1F763E08AE293E00E94E70421975E
:100BB000F1F763E08AE293E00E94E70483E592E0C4
:100BC0000197F1F762E08AE293E00E94E7048091E6
:100BD000390380620E94670584E080933A038CE0C9
:100BE0000E9467050E946D0582E080933B0386E0CA
:100BF000DF91CF910C94670580620E9467058BE4BA
:100C000096E40197F1F78091390380620E946705AD
:100C100083E592E00197F1F78091390380620E94A9
:100C20006705D5CF90913D03891710F08FEF890F9D
:100C3000E82FF0E0E65DFC4F848980680C9467053E
:100C400041E00E94140581E090E008951F920F9208
:100C50000FB60F9211242F933F938F939F93AF93CF
:100C6000BF938091850290918602A0918702B091F6
:100C700088023091840223E0230F2D3758F5019626
:100C8000A11DB11D2093840280938502909386025A
:100C9000A0938702B09388028091890290918A0282
:100CA000A0918B02B0918C020196A11DB11D809381
:100CB000890290938A02A0938B02B0938C02BF9119
:100CC000AF919F918F913F912F910F900FBE0F90F9
:100CD0001F90189526E8230F0296A11DB11DD2CFB3
:100CE0001F920F920FB60F9211240BB60F922F93F3
:100CF0003F934F935F936F937F938F939F93AF93A4
:100D0000BF93EF93FF938DE892E00E94C202FF91A0
:100D1000EF91BF91AF919F918F917F916F915F9173
:100D20004F913F912F910F900BBE0F900FBE0F90E0
:100D30001F9018951F920F920FB60F9211240BB6A9
:100D40000F922F938F939F93EF93FF93E0919D02C8
:100D5000F0919E028081E091A302F091A40282FDB5
:100D60001DC090818091A6028F5F8F732091A70292
:100D7000821741F0E091A602F0E0E357FD4F958F16
:100D80008093A602FF91EF919F918F912F910F90E9
:100D90000BBE0F900FBE0F901F9018958081F2CF61
:100DA000EDE8F2E01382128288EE93E0A0E0B0E07A
:100DB00084839583A683B78385E092E091838083C3
:100DC00085EC90E09587848784EC90E09787868710
:100DD00080EC90E0918B808B81EC90E0938B828B08
:100DE00082EC90E0958B848B86EC90E0978B868BE1
:100DF000118E128E138E148EEAE2F3E013821282A9
:100E000087E192E0918380838CE084838FEF8583F8
:100E10008BE0868385E0878384E0808783E0818719
:100E200082E082871386148615861686178681E0EF
:100E30000C947505789484B5826084BD84B5816016
:100E400084BD85B5826085BD85B5816085BD809195
:100E50006E00816080936E0010928100809181000D
:100E60008260809381008091810081608093810005
:100E7000809180008160809380008091B1008460C7
:100E80008093B1008091B00081608093B000809128
:100E900091008260809391008091910081608093A5
:100EA0009100809190008160809390008091A100DA
:100EB00082608093A1008091A10081608093A10055
:100EC0008091A00081608093A000809121018260C8
:100ED0008093210180912101816080932101809183
:100EE000200181608093200180917A00846080934A
:100EF0007A0080917A00826080937A0080917A00F3
:100F0000816080937A0080917A00806880937A0073
:100F10001092C100E0919D02F0919E0282E08083D8
:100F2000E0919902F0919A021082E0919B02F09177
:100F30009C028FEC80831092A502E091A102F091B7
:100F4000A20286E08083E0919F02F091A00280815E
:100F500080618083E0919F02F091A002808188608F
:100F60008083E0919F02F091A0028081806880835D
:100F7000E0919F02F091A00280818F7D808382E0CA
:100F80000E9475056BE272E08AE293E00E94E10341
:100F90000E9429024B015C0180EDC82E87E0D82E0B
:100FA000E12CF12C0E942902681979098A099B0910
:100FB000683E734081059105A8F301E0C01AD1088D
:100FC000E108F10818EE810E13E0911EA11CB11C7E
:100FD000C114D104E104F10429F70E946D05C1E0B8
:100FE00086E30E940C029250BC01990F880B990B6A
:100FF0000E94F10920E030E040EA5BE30E94A60A8B
:1010000020E030E040EF51E40E944E096B017C018A
:1010100020E030E0A9010E94A10A181624F0F7FA96
:10102000F094F7F8F09487E30E940C02BC01990F4A
:10103000880B990B0E94F10920E030E040EA5BE365
:101040000E94A60A2FE832E44AE653E40E94A60A68
:101050004B015C01A70196010E94A60A2B013C01ED
:101060002FB7F8948091850290918602A091870213
:10107000B09188022FBF409180025091810260910F
:101080008202709183028C019D01041B150B260BBB
:10109000370BB901A801403D57406105710568F162
:1010A0008093800290938102A0938202B093830286
:1010B0000E946D0580910002882309F454C080E0ED
:1010C0000E94120667E372E08AE293E00E94E10365
:1010D00081E00E94120622E0B301A2018AE293E0BD
:1010E0000E94E3036EE372E08AE293E00E94E10370
:1010F000809100028C278093000269E572E08DE800
:1011000092E00E94E10322E0B701A6018DE892E09F
:101110000E94E30363E672E08DE892E00E94E1033F
:1011200022E0B501A4018DE892E00E94E30361E7AB
:1011300072E08DE892E00E94E10322E0B301A20197
:101140008DE892E00E94E3036EE372E08DE892E0A6
:101150000E9486036DE772E08DE892E00E948603AC
:101160000E9451033DCF80E00E94120661E472E0CC
:101170008AE293E00E94E10322E0B501A4018AE241
:1011800093E00E94E3036AE472E08AE293E00E9443
:10119000E10381E00E9412066DE472E08AE293E0CE
:1011A0000E94E10322E0B701A6018AE293E00E94D7
:1011B000E30366E572E098CF5058BB27AA270E9448
:1011C000F4080C94670A0E94590A38F00E94600AD9
:1011D00020F039F49F3F19F426F40C94560A0EF4CB
:1011E000E095E7FB0C94500AE92F0E94780A58F327
:1011F000BA17620773078407950720F079F4A6F5FC
:101200000C949A0A0EF4E0950B2EBA2FA02D0B0128
:10121000B90190010C01CA01A0011124FF27591B3B
:1012200099F0593F50F4503E68F11A16F040A22F41
:10123000232F342F4427585FF3CF469537952795B2
:10124000A795F0405395C9F77EF41F16BA0B620BB1
:10125000730B840BBAF09150A1F0FF0FBB1F661FF8
:10126000771F881FC2F70EC0BA0F621F731F841F3B
:1012700048F4879577956795B795F7959E3F08F061
:10128000B0CF9395880F08F09927EE0F9795879523
:1012900008950E942C0A08F481E008950E946209D2
:1012A0000C94670A0E94600A58F00E94590A40F0A4
:1012B00029F45F3F29F00C94500A51110C949B0AB9
:1012C0000C94560A0E94780A68F39923B1F35523C7
:1012D00091F3951B550BBB27AA2762177307840749
:1012E00038F09F5F5F4F220F331F441FAA1FA9F3DF
:1012F00035D00E2E3AF0E0E832D091505040E695CD
:10130000001CCAF72BD0FE2F29D0660F771F881F2D
:10131000BB1F261737074807AB07B0E809F0BB0B20
:10132000802DBF01FF2793585F4F3AF09E3F510534
:1013300078F00C94500A0C949B0A5F3FE4F3983EBB
:10134000D4F3869577956795B795F7959F5FC9F71D
:10135000880F911D9695879597F90895E1E0660F9E
:10136000771F881FBB1F621773078407BA0720F017
:10137000621B730B840BBA0BEE1F88F7E095089580
:101380000E94800A88F09F5798F0B92F9927B7518B
:10139000B0F0E1F0660F771F881F991F1AF0BA9519
:1013A000C9F714C0B13091F00E949A0AB1E00895D3
:1013B0000C949A0A672F782F8827B85F39F0B93FC5
:1013C000CCF3869577956795B395D9F73EF49095CC
:1013D0008095709561957F4F8F4F9F4F0895E8944A
:1013E00009C097FB3EF490958095709561957F4F6D
:1013F0008F4F9F4F9923A9F0F92F96E9BB2793951B
:10140000F695879577956795B795F111F8CFFAF42A
:10141000BB0F11F460FF1BC06F5F7F4F8F4F9F4F5B
:1014200016C0882311F096E911C0772321F09EE8B9
:10143000872F762F05C0662371F096E8862F70E01F
:1014400060E02AF09A95660F771F881FDAF7880FF9
:101450009695879597F90895990F0008550FAA0B4F
:10146000E0E8FEEF16161706E807F907C0F01216B7
:101470001306E407F50798F0621B730B840B950BBA
:1014800039F40A2661F0232B242B252B21F408950F
:101490000A2609F4A140A6958FEF811D811D0895AC
:1014A00097F99F6780E870E060E008959FEF80EC17
:1014B000089500240A9416161706180609060895BA
:1014C00000240A9412161306140605060895092E20
:1014D0000394000C11F4882352F0BB0F40F4BF2B8F
:1014E00011F460FF04C06F5F7F4F8F4F9F4F0895CF
:1014F00057FD9058440F551F59F05F3F71F04795C5
:10150000880F97FB991F61F09F3F79F087950895A9
:10151000121613061406551FF2CF4695F1DF08C0C8
:10152000161617061806991FF1CF869571056105E5
:1015300008940895E894BB2766277727CB0197F98D
:1015400008950E942C0A08F48FEF08950E94B90AAA
:101550000C94670A0E94590A38F00E94600A20F031
:10156000952311F00C94500A0C94560A11240C94F3
:101570009B0A0E94780A70F3959FC1F3950F50E083
:10158000551F629FF001729FBB27F00DB11D639F35
:10159000AA27F00DB11DAA1F649F6627B00DA11DDB
:1015A000661F829F2227B00DA11D621F739FB00D81
:1015B000A11D621F839FA00D611D221F749F3327F1
:1015C000A00D611D231F849F600D211D822F762F8A
:1015D0006A2F11249F5750409AF0F1F088234AF067
:1015E000EE0FFF1FBB1F661F771F881F91505040D3
:1015F000A9F79E3F510580F00C94500A0C949B0A69
:101600005F3FE4F3983ED4F3869577956795B79559
:10161000F795E7959F5FC1F7FE2B880F911D969573
:10162000879597F908950E942C0A880B990B0895C5
:10163000A1E21A2EAA1BBB1BFD010DC0AA1FBB1FD6
:10164000EE1FFF1FA217B307E407F50720F0A21B48
:10165000B30BE40BF50B661F771F881F991F1A94B5
:1016600069F760957095809590959B01AC01BD01DF
:10167000CF010895EE0FFF1F881F8BBF0790F691D3
:08168000E02D1994F894FFCF4E
:101688000100000000E4024E027B023103AC028A32
:10169800029E020000000020064E02830382036EB1
:1016A800616E00696E66006F766600506F776572CE
:1016B800204D6574657200506F7765723A00205747
:1016C80000566F6C746167653A0020560043757266
:1016D80072656E743A0020410043757272656E74CB
:1016E8003A200020412C20566F6C746167653A20BF
:1016F8000020562C20506F7765723A20000D0A00A2
:00000001FF
