:100000000C9462010C9493010C9493010C94930151
:100010000C9493010C9493010C9493010C94930110
:100020000C9493010C941C170C941C170C941C1723
:100030000C9493010C9493010C9493010C949301F0
:100040000C9493010C9493010C9493010C949301E0
:100050000C9493010C9493010C9493010C947216DC
:100060000C9493010C94E6160C94BC160C9493011A
:100070000C9493010C9493010C9493010C949301B0
:100080000C9493010C9493010C9493010C949301A0
:100090000C9493010C9493010C9493010C94930190
:1000A0000C9493010C9493010C9493010C94930180
:1000B0000C9493010C9493010C9493010C94930170
:1000C0000C9493010C9493010C9493010C94930160
:1000D0000C9493010C9493010C9493010C94930150
:1000E0000C9493010C94FD040C9498170C94310219
:1000F0000C943B120C94F2010C940C020C941D0213
:100100000C9443020C9454100C9435020C94E704A4
:100110000C945E0E0C9421040C94580C0C9419024F
:100120000C9478100C9414220C94150F0C94390232
:100130000C9427020C94C80E0C943F020C943E03BE
:100140000C947A030C948A040C94E80E0C947910A5
:100150000C944A100C948E030C946B030C940402C0
:100160000C949C030C94BF0E0C9423020C94720408
:100170000C94D4030C94ED010C9410020C94F80E22
:100180000C9413020C942B020C948B040C94080214
:100190007C3C3E5E2B3D3F2F5B5D3B2C2A225C006E
:1001A00000002100240027002A002D003000330029
:1001B00001010000040107010A0100000A0B020905
:1001C0000C0D0E08070304010000000000000000F1
:1001D000000000000000000000000000000000001F
:1001E00000000000000012111000000000000000DC
:1001F00000000000000000000000000000000000FF
:10020000000020002300260029002C002F003200CF
:100210000001000003010601090100002200250081
:1002200028002B002E0031003400020100000501DF
:1002300008010B0105050505070508080808020265
:1002400002020A0A08080404040401010101010170
:1002500001010303030303030303040707070C0C53
:100260000C0C0C0C0C0C020202020606060606061A
:1002700006060B0B0B0B0B0B0B0B010210202008BF
:1002800008102040102040800201020108040201F1
:100290000102040810204080804020100804020160
:1002A00080040201804020100804020108040201B9
:1002B0000102040810204080010204081020408040
:1002C0009817142211241FBECFEFD1E2DEBFCDBF9D
:1002D00000E00CBF2DE0A2ECB9E001C01D92A034FB
:1002E000B207E1F719E0A0E0B2E0EAEFFDE400E0D8
:1002F0000BBF02C007900D92A23CB107D9F711E0E5
:10030000C1E6D1E000E006C021970109802FFE017F
:100310000E94A824C036D10780E00807A9F70E94F0
:10032000A0180C94EB260C940000EDE1FCE0A089F1
:10033000B18982E08C93A485B5851C92A685B7858A
:100340008FEC8C93108EA489B58986E08C93A2895A
:10035000B3898C9180618C93A289B3898C918860D8
:100360008C93A289B3898C9180688C930288F389DD
:10037000E02D80818F7D80830895282F30E0F90162
:10038000E654FE4F9491F901E658FD4F44912C5CE0
:100390003D4FF9012491222309F435C0992311F12D
:1003A00091509231F8F4E92FF0E08827E552FE4FA2
:1003B0008F4F0C94A8240C021002ED0104020802D5
:1003C000F201130219021D02230227022B0231023D
:1003D0003502F20139023F024302809180008F779B
:1003E00080938000E22FF0E0EE0FFF1FE65EFD4FEE
:1003F000A591B4918FB7F894EC91611148C04095E4
:100400004E234C938FBF0895809180008F7DE8CF5D
:1004100080918000877FE4CF84B58F7784BDE2CF61
:1004200084B58F7DFBCF8091B0008F778093B00033
:10043000D9CF8091B0008F7DF9CF809190008F77D8
:1004400080939000CFCF809190008F7DF9CF8091E5
:100450009000877FF5CF8091A0008F778093A000D8
:10046000C1CF8091A0008F7DF9CF8091A000877FC0
:10047000F5CF809120018F7780932001B3CF8091B9
:1004800020018F7DF9CF80912001877FF5CF4E2B02
:10049000B8CFCF93DF9390E0FC01E658FD4F249155
:1004A0008C5C9D4FFC0184918823D1F090E0880FF3
:1004B000991FFC01E056FE4FA591B491FC01E65E48
:1004C000FD4FC591D49161110EC09FB7F8948C91E6
:1004D000E22FE0958E238C932881E223E8839FBF4F
:1004E000DF91CF9108958FB7F894EC91E22BEC93C4
:1004F0008FBFF6CF863308F0865320917B00982F6C
:100500009870277F922B90937B00877080648093F4
:100510007C0080917A00806480937A0080917A00D8
:1005200086FDFCCF80917800909179000895CF925C
:10053000DF92EF92FF9286E30E947A029250BC0112
:10054000990F880B990B0E94372220E030E040EA97
:100550005BE30E94962220E030E040EF51E40E94ED
:10056000DB236B017C0120E030E0A9010E947C24A8
:10057000181624F0F7FAF094F7F8F094C701B601D2
:10058000FF90EF90DF90CF90089587E30E947A026A
:10059000BC01990F880B990B0E94372220E030E0B4
:1005A00040EA5BE30E9496222FE832E44AE653E4F5
:1005B0000E94962208953FB7F8948091170A90916F
:1005C000180AA091190AB0911A0A26B5A89B05C06D
:1005D0002F3F19F00196A11DB11D3FBFBA2FA92FC2
:1005E000982F8827BC01CD01620F711D811D911DBF
:1005F00042E0660F771F881F991F4A95D1F708952B
:100600008F929F92AF92BF92CF92DF92EF92FF9222
:100610004B015C010E94DB026B017C010E94DB024A
:100620006C197D098E099F09683E7340810591050B
:10063000A8F321E0821A9108A108B10888EEC80E3B
:1006400083E0D81EE11CF11C81149104A104B104C3
:1006500029F7FF90EF90DF90CF90BF90AF909F90E1
:100660008F9008952FB7F8946091130A7091140A2F
:100670008091150A9091160A2FBF0895AF92BF92EC
:10068000CF92DF92EF92FF920F931F93CF93DF935E
:100690006C017B018B01040F151FEB015E01AE188D
:1006A000BF08C017D10759F06991D601ED91FC91AF
:1006B0000190F081E02DC6011995892B79F7C501CC
:1006C000DF91CF911F910F91FF90EF90DF90CF902E
:1006D000BF90AF900895FC01538D448D252F30E0DD
:1006E000842F90E0821B930B541710F0CF9608953F
:1006F00001970895FC01918D828D981761F0A28D6C
:10070000AE0FBF2FB11D5D968C91928D9F5F9F7331
:10071000928F90E008958FEF9FEF0895FC01918DE7
:10072000828D981731F0828DE80FF11D858D90E054
:1007300008958FEF9FEF0895FC01918D228D892FF1
:1007400090E0805C9F4F821B91098F7399270895D9
:100750008DE19CE00E949C0321E0892B09F420E0BC
:10076000822F0895FC01A48DA80FB92FB11DA35AA3
:10077000BF4F2C91848D90E001968F739927848FC1
:10078000A689B7892C93A089B1898C9183708064E4
:100790008C93938D848D981306C00288F389E02D85
:1007A00080818F7D80830895EF92FF920F931F9336
:1007B000CF93DF93EC0181E0888F9B8D8C8D981314
:1007C0001AC0E889F989808185FF15C09FB7F89420
:1007D000EE89FF896083E889F9898081837080646C
:1007E00080839FBF81E090E0DF91CF911F910F91B7
:1007F000FF90EF900895F62E0B8D10E00F5F1F4FC6
:100800000F731127E02E8C8D8E110CC00FB607FCD4
:10081000FACFE889F989808185FFF5CFCE010E9462
:10082000B203F1CFEB8DEC0FFD2FF11DE35AFF4F1B
:10083000F0829FB7F8940B8FEA89FB8980818062F0
:10084000CFCFCF93DF93EC01888D8823B9F0AA89AD
:10085000BB89E889F9898C9185FD03C0808186FD7B
:100860000DC00FB607FCF7CF8C9185FFF2CF8081CA
:1008700085FFEDCFCE010E94B203E9CFDF91CF918A
:10088000089580E090E0892B29F00E94A80381114F
:100890000E94000080E090E0892B49F080E090E029
:1008A000892B29F00E94000081110E94000080E045
:1008B00090E0892B49F080E090E0892B29F00E949C
:1008C000000081110E94000080E090E0892B49F037
:1008D00080E090E0892B29F00E94000081110C94A7
:1008E0000000089520910C0A30910D0A281739074D
:1008F00071F490910A0A80910B0A981741F0E091E7
:100900000A0AF0E0E753F64F808190E008958FEFF8
:100910009FEF08950895EF92FF920F931F93CF9347
:10092000DF93DC015C96ED90FC905D97E114F1049F
:1009300079F481E090E013969C938E93129790E067
:1009400080E0DF91CF911F910F91FF90EF9008957C
:100950005196ED91FC91529750968C915097982F0B
:1009600090950FB75E962C915E97122F127021FD15
:100970006095F8942081112319F1282B2083E70139
:100980002197F1F728E0462F50E0308160FF1AC030
:10099000382B3083E7012197F1F7BA0175956795F8
:1009A000215089F7112381F08081892380830FBF33
:1009B0005C968D919C910197F1F781E090E0C1CF19
:1009C0002923DCCF3923E5CF9081892BEFCF2091EC
:1009D0000C0A30910D0A2817390761F480910B0A2F
:1009E00020910A0A90E0805C9F4F821B91098F73CF
:1009F0009927089590E080E0089520910C0A3091A5
:100A00000D0A28173907B9F490910A0A80910B0A48
:100A1000981789F0E0910A0AF0E0E753F64F8081D9
:100A200020910A0A30E02F5F3F4F2F733327209326
:100A30000A0A90E008958FEF9FEF08958FB7F8941A
:100A40008091C3098FBF089561E0FC0184810E94F9
:100A5000BD018091C20981111092C20908958EBD15
:100A600000000DB407FEFDCF8EB508958FEF0C94F6
:100A70002F050F931F93CF93DF93EC010E94320356
:100A80008B010E9436058F3F69F00E943203601B84
:100A9000710B6C177D07A8F380E0DF91CF911F9158
:100AA0000F91089581E0F9CF8CBD9DBD0895CF933E
:100AB000DF93EC018091C209811109C081E080932C
:100AC000C2098091BA0C9091BB0C0E94540560E061
:100AD0008C81DF91CF910C94BD018F929F92AF9248
:100AE000BF92FF920F931F93CF93DF93EC01F62EEB
:100AF00049015A018E81882389F08F8198859C0154
:100B00002F5F3F4F38872F838230924018F40E9426
:100B10003605F3CFCE010E9424051E82CE010E942D
:100B200057058CE291E00E9439058F2D80640E9468
:100B30002F0508E110E0D501C401002E04C0B695D0
:100B4000A795979587950A94D2F70E942F0508508C
:100B50001109083F8FEF180771F785E9FF2021F091
:100B600028E087E8F2128FEF0E942F0510E00E9424
:100B700036058A8787FF04C01F3F11F01F5FF7CF3C
:100B8000DF91CF911F910F91FF90BF90AF909F90F9
:100B90008F900895AF92BF92CF92DF92EF92FF9223
:100BA0000F931F93CF93DF93EC016901C801820F6C
:100BB000931F8130924050F58E81882379F088818F
:100BC0009981AA81BB8184179507A607B70731F4DD
:100BD0008F819885C816D90608F042C0488359838A
:100BE0006A837B838B85833039F089E0440F551FFE
:100BF000661F771F8A95D1F79A01AB0161E1CE019B
:100C00000E946D05882389F083E08D83CE010E94C8
:100C1000240580E0DF91CF911F910F91FF90EF901D
:100C2000DF90CF90BF90AF9008950E9432035B0198
:100C30000E9436058A878F3F69F40E9432036A1941
:100C40007B096D327140A0F38FE08D83CE010E944D
:100C50002405DCCF8E3F89F418861F8281E08E83C5
:100C60008F8198858C159D0550F40E9436058F81E3
:100C70009885019698878F83F3CF8DE0E6CF670143
:100C8000E00EF11E0E943605F60181936F01EE150C
:100C9000FF05C1F78F819885080F191F18870F83EB
:100CA0008985882319F001151240A0F08E818823D0
:100CB00089F08F8198859C012F5F3F4F38872F8364
:100CC0008230924018F40E943605F3CFCE010E9484
:100CD00024051E8281E09ECFCF92DF92EF92FF9299
:100CE0000F93CF93DF93EC01690182E14115510528
:100CF0006105710599F08B85833039F089E0440FE7
:100D0000551F661F771F8A95D1F79A01AB0168E1DD
:100D1000CE010E946D05882319F084E08D832DC0DB
:100D20008EEF0E942F0576018EEFD81AF701819180
:100D30007F010E942F05EC14FD04C1F78FEF0E9484
:100D40002F058FEF0E942F050E9436058A878F712D
:100D5000853071F4011116C0CE010E94240581E096
:100D6000DF91CF910F91FF90EF90DF90CF9008959A
:100D700081E18D83CE010E942405CE010E942405CD
:100D800080E0EECF88E592E00E943905811102C033
:100D900085E1C4CF20E030E0A9016DE0CE010E94E2
:100DA0006D05882311F084E1B9CF0E9436058111C9
:100DB000FACFD2CF0F934091C5095091C6096091E7
:100DC000C7097091C809411551056105710599F070
:100DD000082F2BE13AE080911B0C90911C0C0E9493
:100DE0006C06882349F01092C5091092C60910922A
:100DF000C7091092C80981E00F9108950F93CF930E
:100E0000C82F8091C409811105C0C1E08C2FCF91FA
:100E10000F910895409100025091010260910202E9
:100E2000709103020C2F2BE13AE080911B0C909102
:100E30001C0C0E946C06811102C0C0E0E7CFCC23DD
:100E400021F381E00E94DA068823B9F31092C409E5
:100E5000DDCF8F929F92AF92BF92EF92FF920F934E
:100E60001F93CF934B015C01C42F8091000290919E
:100E70000102A0910202B091030288159905AA050A
:100E8000BB0551F181E00E94FE0681110BC080E09C
:100E9000CF911F910F91FF90EF90BF90AF909F90D7
:100EA0008F9008958BE1E82E8AE0F82E00E012E0A2
:100EB00030E020E0B501A40180911B0C90911C0C46
:100EC0000E94CA05882319F38092000290920102C1
:100ED000A0920202B09203024091C4094C2B4093AD
:100EE000C40981E0D5CF8F929F92AF92BF92CF92EB
:100EF000DF92EF92FF92CF932CEB3CE030931C0CEF
:100F000020931B0C882309F46DC040E060E070E082
:100F1000CB010E94290781110BC080E0CF91FF9087
:100F2000EF90DF90CF90BF90AF909F908F900895FB
:100F30008091D90B8F7789F78091E50B9091E60B23
:100F4000A091E70BB091E80B84369105A105B1059E
:100F500020F3C090E10BD090E20BE090E30BF09017
:100F6000E40BC114D104E104F104B9F240E0C7017B
:100F7000B6010E942907882381F28091260A909168
:100F8000270A8115924049F6A0912B0AAA2329F23B
:100F90006091290A70912A0A6115710509F4BDCF83
:100FA0002091280A222309F4B8CFA093DA0C2093C9
:100FB000CC0C90E080E030E0E1E0F0E0C82FAF0141
:100FC000082E02C0440F551F0A94E2F72417350774
:100FD00069F041E0480F01968930910579F7409317
:100FE000D50C9BCFC12CD12C7601C0CF8093D50CD2
:100FF0002091310A3091320A50E040E0211531054C
:1010000041F420913F0A3091400A4091410A5091A9
:10101000420A2093CD0C3093CE0C4093CF0C5093CA
:10102000D00C46015701860E971EA11CB11C809260
:10103000DB0C9092DC0CA092DD0CB092DE0CE09107
:101040002C0AF0912D0AF093E10CE093E00CB0E053
:101050000E945423DC01CB01880D991DAA1DBB1DE4
:101060008093E20C9093E30CA093E40CB093E50C16
:1010700025E0EE0FFF1F2A95E1F7E150FE4FEF2F1D
:10108000FF27E6958E0F9F1FA11DB11D8093D60CE3
:101090009093D70CA093D80CB093D90C80902E0AC3
:1010A00090902F0AB12CA12C8114910441F48090CE
:1010B0003B0A90903C0AA0903D0AB0903E0AC81AA4
:1010C000D90AEA0AFB0AC80CD91CEA1CFB1C04C09A
:1010D000F694E794D794C794CA95D2F7C092D10CEE
:1010E000D092D20CE092D30CF092D40C85EFC816BB
:1010F0008FE0D806E104F10428F48CE08093DF0C43
:1011000081E00CCF80E125EFC2162FEFD206E1047B
:10111000F104A0F38091470A9091480AA091490AEE
:10112000B0914A0A8093E20C9093E30CA093E40CF4
:10113000B093E50C80E2E2CF4F925F926F927F9284
:101140008F929F92AF92BF92CF92DF92EF92FF92D7
:101150000F931F93CF93DF93EC014230510561054C
:10116000710590F480E0DF91CF911F910F91FF9076
:10117000EF90DF90CF90BF90AF909F908F907F9037
:101180006F905F904F90089589859A85AB85BC8557
:101190000196A11DB11D84179507A607B70710F387
:1011A000CB88DC88ED88FE888F89803109F042C0C9
:1011B000BB27A72F962F852F480159012A013B01F4
:1011C000C80ED91EEA1EFB1E8091000290910102FA
:1011D000A0910202B0910302C816D906EA06FB06E6
:1011E00099F58F898031C1F5B301A2015527662792
:1011F0007727440F551F455E554FFA019182808233
:101200008091C40981608093C4098A89823080F00A
:101210008D819E81AF81B8858C0D9D1DAE1DBF1D3A
:101220008093C5099093C609A093C709B093C809D4
:1012300081E099CFDB01CA01E7E0B695A7959795C4
:101240008795EA95D1F7B8CF40E0C701B6010E9473
:1012500029078111C6CF86CFB301A2014F77552749
:1012600066277727440F551F440F551F455E554F7E
:10127000FA0180829182A282B382C2CF8F929F9222
:10128000AF92BF92CF92DF92EF92FF920F931F9394
:10129000CF93DF93FC0181859285A385B485019668
:1012A000A11DB11D84179507A607B70770F480E04C
:1012B000DF91CF911F910F91FF90EF90DF90CF9032
:1012C000BF90AF909F908F90089583889488A58851
:1012D000B6888789803189F5BB27A72F962F852F60
:1012E000E9016A017B018F01BC01CD01680D791D07
:1012F0008A1D9B1D8090000290900102A090020226
:10130000B090030286169706A806B90601F5F80103
:101310008789803111F5DD24EE24FF24F601EE0FDC
:10132000FF1FE55EF54F80819181B0E0A0E08883EA
:101330009983AA83BB8381E0BBCFDB01CA01C7E0ED
:10134000B695A79597958795CA95D1F7C9CF40E0EF
:101350000E9429078111DBCFAACFE894C7F8DD24CA
:10136000EE24FF24F601EE0FFF1FEE0FFF1FE55ED8
:10137000F54F80819181A281B381BF70D8CF4F9208
:101380005F926F927F92AF92BF92CF92DF92EF9275
:10139000FF920F931F93CF93DF9300D01F92CDB78F
:1013A000DEB78C0149835A836B837C835901C12C3E
:1013B000D12C7601412C82E0582E612C712C498170
:1013C0005A816B817C819E012F5F3F4FC8010E9433
:1013D0003E09882339F1F8018585A301920104C0F3
:1013E000220F331F441F551F8A95D2F7DA01C90116
:1013F000C80ED91EEA1EFB1E49815A816B817C8171
:101400008789803111F188EF9FEFAFEFBFE0481778
:1014100059076A077B0798F2F501C082D182E28200
:10142000F38281E00F900F900F900F90DF91CF919A
:101430001F910F91FF90EF90DF90CF90BF90AF90F2
:101440007F906F905F904F90089588EF9FEFA0E09E
:10145000B0E0DDCFCF93DF93FC012581222321F083
:1014600080E0DF91CF910895EC018091DF0C803115
:1014700059F582E08583178A108E118E128E809125
:10148000E00C9091E10CB0E0A0E025E0880F991FFE
:10149000AA1FBB1F2A95D1F7838B948BA58BB68B84
:1014A00088EC9CE09C8F8B8F81E08C831E821F8256
:1014B000188619861A861B861C861D861E861F8620
:1014C000188A198A1A8ACDCF803251F683E0858333
:1014D0004091E20C5091E30C6091E40C7091E50CAA
:1014E000478B508F618F728F9F012D5E3F4F88EC2D
:1014F0009CE00E94BF098111D3CFB2CF8F929F92FF
:10150000AF92BF92CF92DF92EF92FF920F931F9311
:10151000CF93DF93EC018D8181110EC080E0DF91CC
:10152000CF911F910F91FF90EF90DF90CF90BF90E0
:10153000AF909F908F9008950B891C892D893E89CB
:10154000041715072607370748F34A015B01823065
:1015500031F48A869B86AC86BD8681E0E0CF81141B
:101560009104A104B10449F41E821F8218861986D1
:101570001A861B861C861D86F0CF0A851B852C8546
:101580003D85EB8DFC8D858590E00996B901A8011C
:101590004150510961097109082E04C0769567957B
:1015A000579547950A94D2F775016401E1E0CE1A88
:1015B000D108E108F10804C0F694E794D794C794E1
:1015C0008A95D2F7C416D506E606F70620F0012B59
:1015D000022B032B11F58F89988DA98DBA8D8E83DF
:1015E0009F83A887B9878E010A5F1F4FC114D1045A
:1015F000E104F10409F4ADCF4E815F8168857985FE
:1016000098018B8D9C8D0E943E0991E0C91AD108EA
:10161000E108F1088111EACF81CFC41AD50AE60AA0
:10162000F70AE1CF3F924F925F926F927F928F9233
:101630009F92AF92BF92CF92DF92EF92FF920F9361
:101640001F93CF93DF93CDB7DEB72C970FB6F894E7
:10165000DEBF0FBECDBF5C01DC015B968D909C9020
:101660005C9716964D905D906D907C901997411403
:1016700051046104710409F468C0BFEF4B1A5B0A9E
:101680006B0A7B0A312CF40181859285A385B48590
:101690009C01AD012F5F3F4F4F4F5F4F29873A8726
:1016A0004B875C87730162011D821E821F82188630
:1016B000F40181859285A385B4852D813E814F817A
:1016C0005885281739074A075B0708F056C08985EF
:1016D0009A85AB85BC858C159D05AE05BF0550F47C
:1016E00082E0C82ED12CE12CF12C92E0492E512C15
:1016F000612C712C9E012F5F3F4FB701A601C401E1
:101700000E943E098823C9F189819A81AB81BC81FD
:10171000892B8A2B8B2B09F1260137019FEF491A60
:10172000590A690A790A2D813E814F8158852F5FB8
:101730003F4F4F4F5F4F2D833E834F8358873FEF7F
:10174000C31AD30AE30AF30AB3CFF40140805180ED
:10175000628073803324339496CFC414D504E60496
:10176000F70409F70FEF1FEF2FEF3FE0B701A601D6
:10177000C4010E949C08811119C080E02C960FB60C
:10178000F894DEBF0FBECDBFDF91CF911F910F91B7
:10179000FF90EF90DF90CF90BF90AF909F908F9091
:1017A0007F906F905F904F903F900895D50116966F
:1017B0004D915D916D917C91199741155105610590
:1017C000710539F097018601C4010E949C088823A5
:1017D000A1F2D5011696CD92DD92ED92FC92199769
:1017E000332051F0D701C6010196A11DB11DF401AE
:1017F00080839183A283B383F5018789908DA18D26
:10180000B28D892B8A2B8B2B39F48481C78AD08E99
:10181000E18EF28E80688483F50184818062848306
:1018200081E0ACCF1F93CF93DF93FC01258122236E
:10183000D1F1162FEC01848187FF2AC06685778558
:101840008089918941E00E942907882361F1EA8912
:1018500080E2E89FF0011124E55EF54F309719F121
:101860008D81823040F48B899C89AD89BE89848FBB
:10187000958FA68FB78F8F89988D938F828F8F8941
:10188000988DA98DBA8DB58BA48B8C818F778C8325
:10189000111103C08C818F7E8C83812FDF91CF91BA
:1018A0001F910C94FE0680E0DF91CF911F91089567
:1018B000FF920F931F93CF93DF93EC018D818130C3
:1018C00041F090E080E0DF91CF911F910F91FF9068
:1018D00008958C8181FFF5CF82FD1BC000911B0C08
:1018E00010911C0CC8010E9457050E943605F82E65
:1018F000C8010E9424058FEFF812E3CF8C8185FF89
:101900001BC060E0CE010E94120C8C818F7D8C8305
:10191000D8CF4B895C896D897E898A859B85AC850A
:10192000BD8584179507A607B707C1F2CE010E94AF
:101930007E0A8111D3CFC5CF4091C5095091C60908
:101940006091C7097091C809452B462B472B21F0A0
:1019500080E00E94DA06B5CF80618C832A853B85C2
:10196000317080E092E0821B930BADCFCF93DF9379
:10197000EC0161E00E94120C882311F01D8281E0CD
:10198000DF91CF9108952F923F924F925F926F9285
:101990007F928F929F92AF92BF92CF92DF92EF92FF
:1019A000FF920F931F93CF93DF9300D01F921F924C
:1019B000CDB7DEB77C015B01342E5D83DC0115966B
:1019C0008C911597813009F0CEC014962C9021FE91
:1019D000CAC022FCB4C0C32CDD8022947FE0272241
:1019E0002094B22DB1702B2ED7011A964D915D9196
:1019F0006D917C911D97C114D10409F428C15B96A7
:101A00008D919C915C97FC0174807A948A019B0172
:101A100069E036952795179507956A95D1F7702255
:101A20008A011170711020C001151105E9F4169694
:101A30004D915D916D917C9119974115510561050D
:101A4000710509F099C057968D919D910D90BC91AB
:101A5000A02D0097A105B10509F0B0C0C7010E94F3
:101A6000120B882309F47FC080E092E0801B910B69
:101A700046018C159D0508F44C01D7015B964D91EC
:101A80005C915C9716968D919D910D90BC91A02DC7
:101A90000297A109B109FA01258504C0880F991F91
:101AA000AA1FBB1F2A95D2F7468557856089718981
:101AB000840F951FA61FB71F9C01AD01270D311D77
:101AC000411D511D29013A01811432E0930609F0AC
:101AD0007BC08091000290910102A0910202B0911E
:101AE000030284159505A605B70559F48FEF9FEFFE
:101AF000DC018093000290930102A0930202B09354
:101B00000302022D9501B301A20180911B0C90915B
:101B10001C0C0E946C06882331F19EEFB91AC8187C
:101B2000D908F70182859385A485B585880D991D0F
:101B3000A11DB11D82879387A487B58755CFF70173
:101B4000438954896589768982859385A485B5857D
:101B5000481759076A077B0709F43DCFC7010E9460
:101B60007E0A811138CF81E090E0D70113969C93D3
:101B70008E93129780E007C09E012F5F3F4F0E9417
:101B80003E09811102C090E079C089819A81AB81C0
:101B9000BC81F701238D348DF901278948EF5FEF70
:101BA00060E070E0203121F048EF5FEF6FEF7FE001
:101BB00084179507A607B70708F050CFF70186836B
:101BC0009783A087B18750CF0115110599F5D701EB
:101BD0001A964D915D916D917C911D9753968D91C3
:101BE0009D910D90BC91A02D481759076A077B075E
:101BF00008F181E00E94FE06882309F4B4CF4092E8
:101C000000025092010260920202709203028091DF
:101C1000C40981608093C409C801855E954FD501D0
:101C20009C01280D391DFC012E173F0759F04D91DD
:101C30004193FACF41E0C301B2010E94290781110B
:101C4000EBCF91CF281B390BA20EB31E68CFF70143
:101C500083899489A589B68984179507A607B7074C
:101C600038F48481438B548B658B768B80688483B6
:101C7000F701848183FD1AC0832D9D810F900F9001
:101C80000F900F900F90DF91CF911F910F91FF90C8
:101C9000EF90DF90CF90BF90AF909F908F907F900C
:101CA0006F905F904F903F902F90089561E0C70133
:101CB0000E94120C882309F456CFDECFCF93DF9316
:101CC0001F92CDB7DEB7698341E050E0BE016F5F80
:101CD0007F4F0E94C30C0F90DF91CF910895FC01BC
:101CE000DB0112968D919C9113979383828381E4FB
:101CF00092E09183808314968C9114978483159637
:101D00008C911597858316964D915D916D917C917F
:101D1000199746835783608771871A964D915D9115
:101D20006D917C911D9742875387648775871E96B6
:101D30004D915D916D917C91519746875787608B4E
:101D4000718B52968C915297828B53964D915D91E7
:101D50006D917C915697438B548B658B768B579600
:101D60004D915D916D917C915A97478B508F618F0A
:101D7000728F5B968D919C91948F838F0895FC0157
:101D8000818D928D009719F061E00C94120C0895EA
:101D9000DC015996ED91FC913097B9F083899489D3
:101DA000A589B6894285538564857585841B950B05
:101DB000A60BB70B811520E89207A105B10538F0F5
:101DC0008FEF9FE7A0E0B0E0089590E080E00895F5
:101DD000DC0159968D919C91009739F0DC01ED91D1
:101DE000FC910480F581E02D199490E080E0089545
:101DF000CF93DF93EC01E98DFA8D309749F481E0C0
:101E000090E09B838A8390E080E0DF91CF910895FA
:101E100013821282898D9A8D0E94C30CE98DFA8DEE
:101E200022813381232B59F7F0CFCF93DF931F9279
:101E3000CDB7DEB76983DC01ED91FC910280F381BF
:101E4000E02D41E050E0BE016F5F7F4F19950F908C
:101E5000DF91CF9108952F923F924F925F926F92B0
:101E60007F928F929F92AF92BF92CF92DF92EF922A
:101E7000FF920F931F93CF93DF9300D0CDB7DEB7C0
:101E8000FC018581811118C08FEF9FEF0F900F909B
:101E90000F90DF91CF911F910F91FF90EF90DF9006
:101EA000CF90BF90AF909F908F907F906F905F90FA
:101EB0004F903F902F900895848180FFE5CF438914
:101EC00054896589768982859385A485B585312C69
:101ED000212C481759076A077B0719F022242394FD
:101EE000312C6F012101CE0101963C01DF011696D4
:101EF000BB83AA834114510409F4C5C0F60142858D
:101F00005385648575854A01F1E09F22D6015B9671
:101F10008D919C915C978A019B01E9E0369527950C
:101F200017950795EA95D1F71596EC91E230E9F50A
:101F3000FC01628D738D848D958D600F711F821FE2
:101F4000931FA12C22E0B22EA818B9084A145B04F2
:101F500008F45201F601248126FD04C0A114F2E028
:101F6000BF0671F40091000210910102209102025B
:101F700030910302061717072807390709F05EC0DA
:101F800040E00E942907882309F47ECFC401855EC2
:101F9000954FD3019C012A0D3B1DFC012E173F07D5
:101FA00009F46CC041914D93F9CFDC011496BC90BB
:101FB000BA94B0228114910479F4B1100DC0452B6C
:101FC000462B472B69F5F6018789908DA18DB28D3F
:101FD00086839783A087B187D6015B96ED91FC91AC
:101FE0005C9716966D917D918D919C911997625099
:101FF000710981099109258504C0660F771F881F23
:10200000991F2A95D2F70685178520893189600F97
:10201000711F821F931F6B0D711D811D911D91CF2B
:10202000D60116964D915D916D917C9119972A81FB
:102030003B810E943E098111CFCF26CF73018501DC
:102040009401AB01BC0180911B0C90911C0C0E946F
:10205000CA05882309F418CF6A0C7B1CF601828517
:102060009385A485B5858A0D9B1DA11DB11D828711
:102070009387A487B5874A185B083CCF281B390B88
:10208000620E731EEBCF2A94232809F0FDCE8981BE
:1020900090E0FCCEFC01818D928D009711F00C94A4
:1020A0002B0F8FEF9FEF08950F931F93CF93DF9325
:1020B000EC01898D9A8D10E000E0009799F00E9464
:1020C0002B0F8C010F3F100769F0898D9A8DFC0151
:1020D00042855385648575854150510961097109AF
:1020E0000E947E0AC801DF91CF911F910F91089540
:1020F000089590E080E00895CF92DF92EF92FF92F2
:102100001F93CF93DF93EC0180E2689FF0011124CD
:10211000E55EF54F9385917161F0842F827449F0EB
:1021200080E0DF91CF911F91FF90EF90DF90CF90F3
:102130000895142F6A8B8091000290910102A09162
:102140000202B09103028E879F87A88BB98BC48847
:10215000D588F12CE12C7601DD24CC24CF8AD88ED1
:10216000E98EFA8E828D938DB0E0A0E0AC01BD01C6
:102170004C295D296E297F294F8B588F698F7A8F63
:1021800083858871B1F4848D958DA68DB78D8B8BE9
:102190009C8BAD8BBE8B81E08D831F701C831E8258
:1021A0001F82188619861A861B861C861D8681E06A
:1021B000B8CF803109F0B4CF9E012D5E3F4F8B8D9B
:1021C0009C8D0E94BF09882309F4AACF84E0E4CF44
:1021D000CF93DF93EC0160E08E810E94BD0161E04E
:1021E0008E810E94BD0160E08E810E94BD018BE85E
:1021F00091E00197F1F7DF91CF910895CF92DF92AF
:10220000EF92FF920F931F93CF93DF936C017C01AA
:1022100087E0E80EF11CD0E0C0E0062F10E0B80126
:102220000C2E02C0759567950A94E2F76170F7016C
:1022300081917F010E94BD012196C430D10579F7BB
:10224000C601DF91CF911F910F91FF90EF90DF902A
:10225000CF900C94E810CF92DF92EF92FF920F9301
:102260001F93CF93DF93EC01F62E642F8C810E9495
:10227000BD018D818F3F19F060E00E94BD010F2DDF
:1022800010E08F8584FF25C06E0187E0C80ED11C49
:10229000F12CE12CB8010E2C02C0759567950A94BB
:1022A000E2F76170F60181916F010E94BD01FFEFBD
:1022B000EF1AFF0A88E0E816F10461F7CE01DF911A
:1022C000CF911F910F91FF90EF90DF90CF900C94E2
:1022D000E810B80184E0759567958A95E1F7CE011D
:1022E0000E94FE106F2DCE01DF91CF911F910F91B3
:1022F000FF90EF90DF90CF900C94FE1040E0682F9D
:1023000084E29DE00C942B1181E00E947E118BE30E
:102310009FE10197F1F70895CF93DF93823029F47D
:102320009091330D98609093330D8093370D1092F8
:10233000380D80E48093390D80E180933A0D80E57B
:1023400080933B0D61E08091280D0E9449028091AD
:10235000290D8F3F19F061E00E94490261E08091F0
:102360002A0D0E944902C4E2DDE09E0124523D4054
:102370008091330D84FD0BC084E090E021962817F6
:10238000390744F461E08E810E944902EECF88E073
:1023900090E0F4CF8BE39DE00197F1F760E080914E
:1023A000280D0E94BD0160E080912A0D0E94BD01B0
:1023B0008091290D8F3F19F060E00E94BD0180914E
:1023C000330D84FD34C063E084E29DE00E94FE1082
:1023D000CBE4D6E4CE010197F1F763E084E29DE01F
:1023E0000E94FE102197F1F763E084E29DE00E94D5
:1023F000FE1083E592E00197F1F762E084E29DE050
:102400000E94FE108091330D80620E947E1184E054
:102410008093340D8CE00E947E110E94841182E032
:102420008093350D86E0DF91CF910C947E11806210
:102430000E947E118BE496E40197F1F78091330DB1
:1024400080620E947E1183E592E00197F1F780910E
:10245000330D80620E947E11D5CF9091370D891780
:1024600010F08FEF890FE82FF0E0EC5DF24F8489D8
:1024700080680C947E1141E00E942B1181E090E075
:102480000895FB0101900020E9F73197AF01461B49
:10249000570BDC01ED91FC910280F381E02D199442
:1024A0008F929F92AF92BF92EF92FF920F931F93E2
:1024B000CF93DF93CDB7DEB7A1970FB6F894DEBF09
:1024C0000FBECDBF7C01FA01CB0119A2223008F466
:1024D0002AE08E010F5D1F4F822E912CB12CA12C72
:1024E000BF01A50194010E948624F901CA016A3046
:1024F0000CF5605DD8016E938D01232B242B252BC9
:1025000079F790E080E0109721F0BD01C7010E94AB
:102510004112A1960FB6F894DEBF0FBECDBFDF917A
:10252000CF911F910F91FF90EF90BF90AF909F9030
:102530008F900895695CDECF2F923F924F925F9209
:102540006F927F928F929F92AF92BF92CF92DF92C3
:10255000EF92FF921F93CF93DF93EC016A017B010F
:10256000722EAB019601CB01B6010E94812467E671
:1025700072E0811126C046015701E894B7F82FEFA9
:102580003FEF4FE75FE7C501B4010E94812481114D
:102590000CC02FEF3FEF4FE75FE7C501B4010E948A
:1025A00030226BE672E0181664F02FEF3FEF4FE732
:1025B0005FE4C701B6010E947C241816B4F46FE6EC
:1025C00072E0CE01DF91CF911F91FF90EF90DF90ED
:1025D000CF90BF90AF909F908F907F906F905F90C3
:1025E0004F903F902F900C9441122FEF3FEF4FE709
:1025F0005FECC701B6010E94302287FDE0CF20E0EA
:1026000030E0A901C701B6010E943022312C212CF3
:1026100087FF0DC0E881F9810190F081E02D6DE226
:10262000CE0119951C01F7FAF094F7F8F09410E038
:1026300060E070E080E09FE3711641F020E030E060
:1026400040E251E40E94DB231F5FF6CFA701960111
:102650000E946F232B013C010E944D244B015C0121
:102660002AE0BC01A401CE010E9450127C01E20CC0
:10267000F31C1123E1F1C501B4010E9435229B0135
:10268000AC01C301B2010E946E234B015C01E881E1
:10269000F9810190F081E02D6EE2CE011995E80EEE
:1026A000F91E115020F120E030E040E251E4C50174
:1026B000B4010E9496222B013C010E944D244B0143
:1026C000B12CA12C2AE0B501A401CE010E94501228
:1026D000E80EF91EC501B4010E9435229B01AC0130
:1026E000C301B2010E946E234B015C01DACFC70126
:1026F000DF91CF911F91FF90EF90DF90CF90BF902F
:10270000AF909F908F907F906F905F904F903F9091
:102710002F90089522E00C949C120F931F93CF9357
:10272000DF93EC0122E00E949C128C0163E772E0CF
:10273000CE010E944112800F911FDF91CF911F9116
:102740000F9108950F931F93CF93DF93EC010E9495
:1027500041128C0163E772E0CE010E944112800FAA
:10276000911FDF91CF911F910F91089566E772E05D
:102770008DE19CE00E94A21360ED77E080E090E0A4
:102780000E9400036BE972E08DE19CE00C94A213BF
:102790000C9441124F925F926F927F928F929F9210
:1027A000AF92BF92CF92DF92EF92FF920F931F935F
:1027B0002B013C0149015A01670163E776E085E09E
:1027C0009DE00E94C813B301A20185E09DE00E9434
:1027D0008A1368EB72E085E09DE00E94C813B501A2
:1027E000A40185E09DE00E948A1366EC72E085E01A
:1027F0009DE00E94C813B801A60185E09DE00E94FB
:102800008A1362ED72E085E09DE00E94A21365EDFF
:1028100072E08DE19CE01F910F91FF90EF90DF90AF
:10282000CF90BF90AF909F908F907F906F905F9070
:102830004F900C94A2133F924F925F926F927F92AF
:102840008F929F92AF92BF92CF92DF92EF92FF92C0
:102850000F931F93CF93DF9300D000D000D01F922F
:102860001F92CDB7DEB77C01FE013196CE010C96EA
:102870006F0130E23193E817F907E1F7DA0130E050
:1028800087E09D91B92E992309F43CC09E32F1F462
:102890008A30C9F480E02B960FB6F894DEBF0FBEE5
:1028A000CDBFDF91CF911F910F91FF90EF90DF90FF
:1028B000CF90BF90AF909F908F907F906F905F90E0
:1028C0004F903F90089538E08AE0DBCFE0E9F1E0F7
:1028D0004491442321F031969413FACFDBCF831730
:1028E000C8F24FED490F4E35A8F64FE9490F4A316E
:1028F00018F440EEB42EB90EF601E30FF11DB082CC
:102900003F5FBFCF8981803229F2322E8B01DB01FC
:102910005B968D919C915C97F701948F838F1696AF
:102920001D921D921D921C921997FB01128613860F
:1029300014861586F80182859385A485B58543891B
:1029400054896589768984179507A607B70708F023
:102950004DC025E0B695A795979587952A95D1F70F
:10296000F82FFF70AF2ED80115968C91823008F4A5
:1029700091CFC8010E942B0F97FD8CCFF801828563
:102980009385A485B5854F96A11DB11D8287938738
:10299000A487B587F0E2AF9EB0011124655E754F44
:1029A0006115710509F476CFDB018C91882341F024
:1029B000853E09F062C0BB2029F0BB24B394BACF96
:1029C000B1100EC0F701A28A80910002909101021D
:1029D000A0910202B091030286879787A08BB18BEA
:1029E000DB018C918111E9CFBB24B394832D8271DB
:1029F000823109F04FCFBB2009F44DC0F701668545
:102A000077858089918941E00E942907882309F40C
:102A100041CFD70152968C91B0E28B9FC001112417
:102A2000855E954F009709F435CFFC013A9626E173
:102A3000DF011D922A95E9F72BE0F601DC010190F8
:102A40000D922A95E1F721E238E2FC01318B208BCF
:102A500040E058E057874687338B228B318F208F99
:102A6000578B468B81E00E94FE06882309F412CF23
:102A7000432DD70152966C910AC04BE050E0C6013D
:102A80000E94B626892B09F055CF432D6A2DC70128
:102A90000E947C1000CFF8018581823009F4FACEC3
:102AA000C8010E94120B882309F4F4CED8015B966A
:102AB000ED91FC915C9716968D909D90AD90BC9099
:102AC0001997B2E08B1A9108A108B108858504C056
:102AD000880C991CAA1CBB1C8A95D2F78685978501
:102AE000A089B189880E991EAA1EBB1E848124016B
:102AF0003501480E511C611C711C84149504A604F8
:102B0000B70409F1E1E04E1A51086108710881E04B
:102B10000E94FE06882309F4BDCEEBE1FAE0119293
:102B20008BE19CE08E179F07D1F7409200025092F4
:102B3000010260920202709203028091C4098160D6
:102B40008093C409DACFD8015B96ED91FC9125857D
:102B500080E092E0A0E0B0E004C0880F991FAA1FB7
:102B6000BB1F2A95D2F7F801438954896589768974
:102B7000840F951FA61FB71F838B948BA58BB68BD5
:102B8000D70152961C928BE19AE04FCFEF92FF92C1
:102B90000F931F93CF93DF93EC017B018A011B827C
:102BA0001A8288EE93E0A0E0B0E08C839D83AE8330
:102BB000BF838DE192E0998388838DE190E00E944C
:102BC000B0249A8F898F009779F02DE1F701DC010D
:102BD00001900D922A95E1F74CE050E0B801CE014A
:102BE0000C960E94DC26188EDF91CF911F910F91D9
:102BF000FF90EF900895EF92FF920F931F93CF9362
:102C0000DF93CDB7DEB7C755D1090FB6F894DEBF55
:102C10000FBECDBF8C011C821B8281E4E82E82E0B6
:102C2000F82EFA82E9821E82CE0101960E942A0ABB
:102C3000BE016F5F7F4FCE01CB960E946F0E19A22F
:102C400018A2FF8EEE8E1BA221968FAD21978111C7
:102C500021C0F8011382128288EE93E0A0E0B0E078
:102C600084839583A683B7838DE192E091838083EB
:102C7000128E118E1486C801C95ADF4F0FB6F89410
:102C8000DEBF0FBECDBFDF91CF911F910F91FF909F
:102C9000EF90089527E14FEA56E0BE01655C7F4F53
:102CA000CE014E960E941B14882399F2CE01CB963A
:102CB0000E94B60C49A95AA96BA97CA9CE014E96CF
:102CC0000E947E0ABE01625E7F4FCE0101960E9485
:102CD0006F0E4FEA56E0BE016F5F7F4FC8010E9442
:102CE000C615C9CF1F920F920FB60F9211242F93C2
:102CF0003F938F939F93AF93BF938091130A9091CB
:102D0000140AA091150AB091160A3091120A23E014
:102D1000230F2D3758F50196A11DB11D2093120ADE
:102D20008093130A9093140AA093150AB093160A7D
:102D30008091170A9091180AA091190AB0911A0A65
:102D40000196A11DB11D8093170A9093180AA093B4
:102D5000190AB0931A0ABF91AF919F918F913F9139
:102D60002F910F900FBE0F901F90189526E8230FFC
:102D70000296A11DB11DD2CF1F920F920FB60F92D6
:102D800011240BB60F922F933F934F935F936F9342
:102D90007F938F939F93AF93BF93EF93FF938DE1B7
:102DA0009CE00E94B203FF91EF91BF91AF919F9180
:102DB0008F917F916F915F914F913F912F910F90E4
:102DC0000BBE0F900FBE0F901F9018951F920F9281
:102DD0000FB60F9211240BB60F922F938F939F93E0
:102DE000EF93FF93E0912D0CF0912E0C8081E091F8
:102DF000330CF091340C82FD1DC090818091360C13
:102E00008F5F8F732091370C821741F0E091360C61
:102E1000F0E0E35EF34F958F8093360CFF91EF91D6
:102E20009F918F912F910F900BBE0F900FBE0F901F
:102E30001F9018958081F2CF1F920F920FB60F92BC
:102E400011240BB60F922F933F934F935F936F9381
:102E50007F938F939F93AF93BF93EF93FF93E091F3
:102E60000C0AF0910D0A309749F0A685B785858543
:102E7000968D91FF16C09C918923B1F4FF91EF913B
:102E8000BF91AF919F918F917F916F915F914F9182
:102E90003F912F910F900BBE0F900FBE0F901F9080
:102EA00018959C91892351F7A389B4899C918589B0
:102EB000809589238C93868997890197F1F7608D96
:102EC000718DA685B785558538E020E0CB01019747
:102ED000F1F7822F90E095958795282F4C91452307
:102EE00009F02068315091F7868D81FD2095809101
:102EF0000B0A90E001968F73992730910A0A3817D0
:102F000099F0A0910B0AB0E0A753B64F2C93809391
:102F10000B0A828D938D0197F1F7A389B4898C9167
:102F20009589892B8C93AACF868D8160868FF1CF6E
:102F3000CF92DF92EF92FF921092200C10921F0C12
:102F400098EEC92E93E0D92EE12CF12CC092210CE1
:102F5000D092220CE092230CF092240C8FE292E0AB
:102F600090931E0C80931D0C85EC90E090932A0C9E
:102F70008093290C84EC90E090932C0C80932B0C84
:102F800080EC90E090932E0C80932D0C81EC90E0DF
:102F90009093300C80932F0C82EC90E09093320C45
:102FA0008093310C86EC90E09093340C8093330C3A
:102FB0001092360C1092370C1092380C1092390C7B
:102FC00080E58093BA0C1092BB0C1092C10C109249
:102FD000C20C1092C50C1092C70C82E090E0A0E0E9
:102FE000B0E08093C80C9093C90CA093CA0CB09326
:102FF000CB0C1092DF0C1092E90C1092E80C81E4DB
:1030000092E09093E70C8093E60C1092EB0C1092F8
:10301000270D1092260D8FE592E09093250D809359
:10302000240D8CE08093280D8FEF8093290D8BE089
:1030300080932A0D85E080932B0D84E080932C0DE6
:1030400083E080932D0D82E080932E0D10922F0D42
:103050001092300D1092310D1092320D1092330DEE
:1030600081E00E948C111092080D1092070DC09201
:10307000090DD0920A0DE0920B0DF0920C0D8DE42B
:1030800092E09093060D8093050D10921C0D109206
:103090001B0D10921E0D10921D0D1092200D1092FE
:1030A0001F0D1092220D1092210D6091230D6E7F45
:1030B0006D7F6093230D6695617081E068278BE0DA
:1030C0000E94BD0161E08BE00E944902E5E8F2E068
:1030D000E491E093150DEFE3F2E0E491F0E0EE0F00
:1030E000FF1FE65EFD4F859194919093170D80939D
:1030F000160D60E08AE00E9449028091230D81FD57
:1031000004C061E08AE00E94BD018AE08093110D55
:10311000E4E8F2E0E491E093120DEEE3F2E0E491F2
:10312000F0E0EE0FFF1FE050FE4F859194919093D9
:10313000140D8093130DFF90EF90DF90CF900895C2
:10314000CF93DF93CDB7DEB7A3970FB6F894DEBF6A
:103150000FBECDBF789484B5826084BD84B5816094
:1031600084BD85B5826085BD85B5816085BD809152
:103170006E00816080936E001092810080918100CA
:1031800082608093810080918100816080938100C2
:10319000809180008160809380008091B100846084
:1031A0008093B1008091B00081608093B0008091E5
:1031B0009100826080939100809191008160809362
:1031C0009100809190008160809390008091A10097
:1031D00082608093A1008091A10081608093A10012
:1031E0008091A00081608093A00080912101826085
:1031F0008093210180912101816080932101809140
:10320000200181608093200180917A008460809306
:103210007A0080917A00826080937A0080917A00AF
:10322000816080937A0080917A00806880937A0030
:103230001092C1000E94950182E00E948C1169EFFA
:1032400072E084E29DE00E94C81360ED77E080E0C8
:1032500090E00E9400030E9484110E94950182E088
:103260000E948C1169EF72E084E29DE00E94C81315
:1032700060ED77E080E090E00E9400030E948411FE
:103280008091EB0C882321F086EE9CE00E94B60C26
:103290001092C70C1092C50C1092C20C1092C10C67
:1032A00084E08093C00C0E9432037B0161E0809136
:1032B000C00C0E94490261E08091C00C0E94BD01D7
:1032C000DFB6F8948091090A811127C0E9E6F2E09F
:1032D0008491EFEAF2E09491E82FF0E0EE0FFF1F07
:1032E000E056FE4FA591B491EC91E92321F461E001
:1032F00085E30E94BD0161E085E30E9449028CB52F
:1033000080618CBD8CB580648CBD61E084E30E94DB
:10331000490261E083E30E9449028091090A8F5FBC
:103320008093090ADFBE82E58093BA0C1092BB0C31
:103330008091BA0C9091BB0C0E9454051AE08FEF5B
:103340000E942F051150D9F78CEB9CE00E94570585
:1033500020E030E0A90160E08CEB9CE00E946D056C
:10336000182F8093C60C8130D9F00E9432036E1959
:103370007F09613D774060F381E08093C10C8CEB65
:103380009CE00E9424056AE273E08DE19CE00E94CB
:10339000A21369E473E084E29DE00E94C8138CC02C
:1033A0002AEA31E040E050E068E08CEB9CE00E94CB
:1033B0006D0582FF2AC01093C70C8091C70C812C29
:1033C000912C5401823029F4812C912CA12C80E481
:1033D000B82E20E030E0A90167E38CEB9CE00E946E
:1033E0006D05A501940169E28CEB9CE00E946D05DE
:1033F0008093C60C8823C1F00E9432036E197F09A6
:10340000613D774030F388E0B8CF14E00E94360584
:103410008093C60C1150D1F78A3A11F082E0ADCFFB
:1034200082E08093C70CC9CF8091C70C8230D1F461
:1034300020E030E0A9016AE38CEB9CE00E946D057E
:10344000882311F086E099CF0E943605807C803C6D
:1034500019F483E08093C70C0E9436050E9436055C
:103460000E9436058CEB9CE00E94240580E5809349
:10347000BA0C1092BB0C81E00E947307882309F4F8
:1034800040C686EE9CE00E942A0A882309F47BCF7E
:1034900065E073E08DE19CE00E94A2136AE173E0B5
:1034A00084E29DE00E94C81360ED77E080E090E048
:1034B0000E9400030E9484111092200D10921F0D93
:1034C00010921E0D10921D0D10921C0D10921B0DCE
:1034D0008DE991E09093220D8093210D8091110D43
:1034E00096EF980F943048F02EEC280F243028F0F7
:1034F00022EC280F283008F061C02DEB30E030932B
:103500001C0D20931B0D2BE931E030931E0D2093F1
:103510001D0D2CE231E03093200D20931F0D9430CF
:1035200050F02EEC280F243030F022EC280FF0E081
:10353000E0E0283010F4E8E6F0E02081943028F054
:1035400032EC380F383008F4E3C531E0232B9430E7
:1035500048F09EEC980F943028F08E53F0E0E0E0B5
:10356000883010F4E8E6F0E020832091110D36EF6A
:10357000320F343008F4CEC58EEC820F843008F45C
:10358000C9C582EC820F883008F0C7C58DE690E08F
:103590009093190D8093180D343008F0C1C5265052
:1035A000330B81E001C0880F2A95EAF780931A0D4A
:1035B0008091210D9091220D0197F1F780911F0DBF
:1035C0009091200D892B49F1E0910C0AF0910D0AA0
:1035D0004DE0E530F40709F1309739F0A389B4895B
:1035E0009C918589809589238C938091230D8E7F72
:1035F0008093230D10920B0A10920A0A85E09DE039
:1036000090930D0A80930C0AE091180DF091190D1A
:10361000808190911A0D892B808368E573E08DE19C
:103620009CE00E94A21361E08DE00E94490260E0EC
:103630008DE00E94BD016FE673E08DE19CE00E9489
:10364000A2136AE873E08DE19CE00E94A2130E943D
:10365000841180E00E942D1261EC73E084E29DE011
:103660000E94C81381E00E942D1263ED73E084E292
:103670009DE00E94C81368EB7BE080E090E00E9430
:10368000000320E030E040E251E4609104027091D8
:10369000050280910602909107020E946F236093B9
:1036A00004027093050280930602909307020E9421
:1036B00084116EED73E084E29DE00E94C813409196
:1036C000040250910502609106027091070284E2A3
:1036D0009DE00E948A1360ED77E080E090E00E9418
:1036E00000036AEE73E08DE19CE00E94A21369E1A1
:1036F00074E08DE19CE00E94A2136CE474E08DE123
:103700009CE00E94A2130E94841180E00E942D126E
:103710006DE774E084E29DE00E94C81381E00E949E
:103720002D126DE874E084E29DE00E94C81368EBFE
:103730007BE080E090E00E94000320E030E040EA7F
:1037400050E460910F0270911002809111029091EB
:1037500012020E946F2360930F02709310028093F5
:103760001102909312020E9484116EED73E084E2C4
:103770009DE00E94C81340910F0250911002609189
:1037800011027091120284E29DE00E948A1360EDA2
:1037900077E080E090E00E9400036EE974E08DE144
:1037A0009CE00E94A2136DEC74E08DE19CE00E940D
:1037B000A21369E075E08DE19CE00E94A2136DE325
:1037C00075E08DE19CE00E94A2130E94B6136DE6A5
:1037D00075E08DE19CE00E94A21367EA75E08DE13F
:1037E0009CE00E94A21369EE75E08DE19CE00E94CE
:1037F000A21361E276E08DE19CE00E94A2133324E3
:1038000033940E9497024B015C010E94C5026B0138
:103810007C01AC019B01C501B4010E9496222B01E1
:103820003C010E94320368A379A38AA39BA38091E1
:103830000E0A90910F0AA091100AB091110A28A1C6
:1038400039A14AA15BA1281B390B4A0B5B0B203D18
:1038500037404105510580F128A139A14AA15BA15A
:1038600020930E0A30930F0A4093100A5093110AC6
:103870000E94841180910802882309F466C480E0C4
:103880000E942D1260E576E084E29DE00E94C8135C
:1038900081E00E942D12B301A20184E29DE00E940A
:1038A0008A1362ED72E084E29DE00E94C813809169
:1038B00008028325809308026CEB72E08DE19CE0A6
:1038C0000E94C813B501A4018DE19CE00E948A13F7
:1038D0006FE676E08DE19CE00E94C813B701A60177
:1038E0008DE19CE00E948A136DE776E08DE19CE01B
:1038F0000E94C813B301A2018DE19CE00E948A13CB
:1039000062ED72E08DE19CE00E94A2130E9497029A
:103910004B015C010E94C5026B017C01AC019B0163
:10392000C501B4010E9496222B013C01CE010196F3
:103930000E94FB15EA8DFB8D309709F42DC485811B
:10394000882309F429C463E776E0CE0101960E943A
:10395000C813B701A601CE0101960E948A1368EB35
:1039600072E0CE0101960E94C813B501A401CE01F8
:1039700001960E948A1366EC72E0CE0101960E94C5
:10398000C813B301A201CE0101960E948A1362ED11
:1039900072E0CE0101960E94A2138A8D9B8D009742
:1039A00041F00E94B60C8A8D9B8D0E944C251B8E87
:1039B0001A8E69E876E08DE19CE00E94A2130E94D5
:1039C000320368A379A38AA39BA380910E0A9091E6
:1039D0000F0AA091100AB091110A28A139A14AA199
:1039E0005BA1281B390B4A0B5B0B203D374041057F
:1039F000510580F128A139A14AA15BA120930E0AAB
:103A000030930F0A4093100A5093110A0E948411B8
:103A100080910802882309F4C2C380E00E942D121D
:103A200060E576E084E29DE00E94C81381E00E9498
:103A30002D12B301A20184E29DE00E948A1362ED7F
:103A400072E084E29DE00E94C81380910802832501
:103A5000809308026CEB72E08DE19CE00E94C81339
:103A6000B501A4018DE19CE00E948A136FE676E027
:103A70008DE19CE00E94C813B701A6018DE19CE096
:103A80000E948A136DE776E08DE19CE00E94C813E6
:103A9000B301A2018DE19CE00E948A1362ED72E005
:103AA0008DE19CE00E94A2130E9497022B013C0131
:103AB0000E94C5024B015C01AC019B01C301B20134
:103AC0000E9496227B018C01A3019201C501B401E1
:103AD0000E94CA130E9497022B013C010E94C5025A
:103AE0004B015C01AC019B01C301B2010E94962213
:103AF0006B017C016AEC72E08DE19CE00E94C813CE
:103B0000B701A6018DE19CE00E948D13870176012B
:103B1000A3019201C501B4010E94CA130E94970239
:103B200020E030E040EF51E40E9496222B013C015E
:103B30000E94C5022FE832E44AE653E40E9496222E
:103B40004B015C01AC019B01C301B2010E949622B2
:103B50006B017C016AEC72E08DE19CE00E94C8136D
:103B6000B701A6018DE19CE00E948D1387017601CB
:103B7000A3019201C501B4010E94CA130E949702D9
:103B80006B017C010E94C5029B01AC01C701B6011B
:103B90000E94962220E030E048EC52E40E947C240F
:103BA00018160CF023C361E08DE00E94BD016BEBA1
:103BB00076E08DE19CE00E94A21366EE76E08DE156
:103BC0009CE00E94A2130E9497024B015C010E949C
:103BD000C5022B013C01AC019B01C501B4010E944F
:103BE00096226B017C010E9432036C8F7D8F8E8F39
:103BF0009F8F6FEF76E08DE19CE00E94C8132AE072
:103C00004C8D5D8D6E8D7F8D8DE19CE00E945012FC
:103C100061E776E08DE19CE00E94C813B301A20148
:103C20008DE19CE00E948A1368EB72E08DE19CE0DC
:103C30000E94C813B501A4018DE19CE00E948A1383
:103C400066EC72E08DE19CE00E94C813B701A6010A
:103C50008DE19CE00E948A1362ED72E08DE19CE0B0
:103C60000E94A213CE0101960E94FB15EA8DFB8DE6
:103C7000309709F4C0C28581882309F4BCC26FEF74
:103C800076E0CE0101960E94C8132AE04C8D5D8D2E
:103C90006E8D7F8DCE0101960E94501261E776E015
:103CA000CE0101960E94C813B301A201CE01019674
:103CB0000E948A1368EB72E0CE0101960E94C8133D
:103CC000B501A401CE0101960E948A1366EC72E050
:103CD000CE0101960E94C813B701A601CE0101963C
:103CE0000E948D138A8D9B8D009731F00E94B60C37
:103CF0008A8D9B8D0E944C2520E030E048EC52E4F8
:103D0000C701B6010E947C2418160CF07BC261E04A
:103D10008DE00E94BD016BEB76E08DE19CE00E949E
:103D2000A2136BE077E08DE19CE00E94A2130E9459
:103D300097026B017C010E94C5024B015C0164E2A9
:103D400077E08DE19CE00E94C813A5019401C701B2
:103D5000B6010E94962220E030E04AE754E40E9437
:103D6000DB232FE832EC45EF5DE30E949622AB01A6
:103D7000BC018DE19CE00E948D1366E377E08DE14C
:103D80009CE00E94A2132AE037ED43EA5CE36091D5
:103D9000090270910A0280910B0290910C020E941C
:103DA0006F236093090270930A0280930B02909331
:103DB0000C020E9484116FE477E084E29DE00E948F
:103DC000C8134091090250910A0260910B02709150
:103DD0000C0284E29DE00E948A1360ED77E080E0AF
:103DE00090E00E9400036BE577E08DE19CE00E948B
:103DF000A2130E9497026B017C010E94C5024B0135
:103E00005C01AC019B01C701B6010E9496222B0107
:103E10003C0165E777E08DE19CE00E94C813B501A5
:103E2000A4018DE19CE00E948A1368EB72E08DE1B1
:103E30009CE00E94C813B701A6018DE19CE00E949E
:103E40008A1366EC72E08DE19CE00E94C813B30116
:103E5000A2018DE19CE00E948D1363E977E08DE182
:103E60009CE00E94A2130E9497026B017C010E94B9
:103E7000C5024B015C01AC019B01C701B6010E9468
:103E800096222B013C016DEA77E08DE19CE00E94D7
:103E9000C813B501A4018DE19CE00E948A1368EB70
:103EA00072E08DE19CE00E94C813B701A6018DE18C
:103EB0009CE00E948A1366EC72E08DE19CE00E9417
:103EC000C813B301A2018DE19CE00E948D1365ED42
:103ED00077E08DE19CE00E94A21380910D02909109
:103EE0000E02019709F093C182E090E090930E02D8
:103EF00080930D020E9484116FEE77E084E29DE0D2
:103F00000E94C81380910D0290910E026FEE72E034
:103F1000019711F063EF72E084E29DE00E94C81304
:103F200060ED77E080E090E00E9400030E9497023D
:103F30006B017C010E94C5029B01AC01C701B60167
:103F40000E94962220910F0230911002409111029E
:103F5000509112020E947C2418160CF062C18091CC
:103F60000D0290910E02019709F054C161E08DE0BD
:103F70000E94BD0163E178E08DE19CE00E94A21304
:103F800065E478E08DE19CE00E94A2130E94970214
:103F90006B017C010E94C5024B015C01AC019B01DD
:103FA000C701B6010E9496222B013C0163E776E02F
:103FB0008DE19CE00E94C813B501A4018DE19CE055
:103FC0000E948A136AEB72E08DE19CE00E94C813A4
:103FD000B701A6018DE19CE00E948A1368EC72E0B3
:103FE0008DE19CE00E94C813B301A2018DE19CE029
:103FF0000E948D136FE578E08DE19CE00E94A21392
:1040000088E30E947A026C0189E30E947A027C01B3
:1040100069E778E08DE19CE00E94C813B601DD0CF1
:10402000880B990B0E9437222AE038E240EA5BE3D2
:104030000E94962220E030E048EC52E40E94962252
:10404000AB01BC018DE19CE00E948A1367E878E037
:104050008DE19CE00E94C813B701FF0C880B990BFF
:104060000E9437222AE038E240EA5BE30E9496226F
:1040700020E030E048EC52E40E949622AB01BC0103
:104080008DE19CE00E948D136EE070E090E080E096
:104090000E94D5256C01009709F4D6C0DC011C9262
:1040A00066E978E00E94D5266EE070E090E080E05E
:1040B0000E94D5257C01009709F4C8C0FC0110823C
:1040C000B6010E94D52666E978E0C7010E94CC2699
:1040D000892B09F0ABC020E030E040EF52E42093A0
:1040E0000F0230931002409311025093120264EABF
:1040F00078E08DE19CE00E94A213C7010E944C254C
:10410000AFC080E00E947307882309F43CC9B9C995
:1041100034E01CCA8BE690E03BCA90E080E038CAED
:1041200088E0223309F442CA84E0233309F43ECA0A
:1041300082E0243309F43ACA82EC820F883018F402
:104140002E53330B2ECA81E031CA80E00E942D121B
:1041500067E576E084E29DE00E94C813B701A601FE
:1041600084E29DE00E948A1360E676E084E29DE0AE
:104170000E94C81381E00E942D1263E676E084E27B
:104180009DE00E94C813B501A40184E29DE00E9455
:104190008A136CE676E087CB61EA76E00CCC80E0AF
:1041A0000E942D1267E576E084E29DE00E94C8132C
:1041B000B701A60184E29DE00E948A1360E676E0E2
:1041C00084E29DE00E94C81381E00E942D1263E604
:1041D00076E084E29DE00E94C813B501A40184E268
:1041E0009DE00E948A136CE676E02BCC60E08DE0C7
:1041F0000E94BD01E2CC61EA76E08DE19CE00E9484
:10420000A2137ACD60E08DE00E94BD018ACD81E0ED
:1042100090E06CCE6CEF77E08DE19CE00E94A21301
:10422000A9CE60E08DE00E94BD01AACE69EC78E0E5
:10423000C7010E94CC26892B49F461E08DE00E94E1
:10424000BD0168ED78E055CFF12CE12C61EF78E00D
:104250008DE19CE00E94A213E114F10409F04DCF1E
:10426000C114D10419F0C6010E944C250E943203EA
:10427000C0900E0AD0900F0AE090100AF090110A38
:104280009B01AC012C193D094E095F0969017A01B6
:1042900030EDC31637E0D306E104F10450F060932B
:1042A0000E0A70930F0A8093100A9093110A0E94CD
:1042B000B6130E9497026B017C010E94C5024B015C
:1042C0005C0163E179E08DE19CE00E94C813A501E7
:1042D0009401C701B6010E94962220E030E04AE72F
:1042E00054E40E94DB232DEC3CEC4CEC5DE30E949B
:1042F0009622AB01BC018DE19CE00E948D130E94CF
:1043000097026B017C010E94C5024B015C016AE3CC
:1043100079E08DE19CE00E94C813A5019401C701DA
:10432000B6010E94962220E030E04AE754E40E9461
:10433000DB232DEC3CEC4CEC5DE30E949622AB01C0
:10434000BC018DE19CE00E948D1361E479E08DE178
:104350009CE00E94A2130E9497026B017C010E94C4
:10436000C5024B015C01AC019B01C701B6010E9473
:1043700096222B013C016BE579E08DE19CE00E94E7
:10438000A2136FE779E08DE19CE00E94C81320E062
:1043900030E04AE754E4C301B2010E94DB232DEC74
:1043A0003CEC4CEC5DE30E949622AB01BC018DE13C
:1043B0009CE00E948D136AEC72E08DE19CE00E940B
:1043C000C813B301A2018DE19CE00E948D1363E745
:1043D00076E08DE19CE00E94C813B501A4018DE157
:1043E0009CE00E948D136CEB72E08DE19CE00E94DA
:1043F000C813B701A6018DE19CE00E948D1360ED0A
:1044000077E080E090E00E9400036DE879E08DE1C4
:104410009CE00E94A21367EA79E08DE19CE00E9493
:10442000A2130E944104EDC98DE492E09093060D21
:104430008093050D80910C0A90910D0A85509D4046
:1044400071F4E091180DF091190D908180911A0D81
:1044500080958923808310920D0A10920C0A08958A
:104460000E94722208F481E00895E89409C097FB45
:104470003EF490958095709561957F4F8F4F9F4F3B
:104480009923A9F0F92F96E9BB279395F69587957F
:1044900077956795B795F111F8CFFAF4BB0F11F442
:1044A00060FF1BC06F5F7F4F8F4F9F4F16C08823E9
:1044B00011F096E911C0772321F09EE8872F762F1F
:1044C00005C0662371F096E8862F70E060E02AF060
:1044D0009A95660F771F881FDAF7880F969587954C
:1044E00097F90895990F0008550FAA0BE0E8FEEF21
:1044F00016161706E807F907C0F012161306E407A8
:10450000F50798F0621B730B840B950B39F40A26A0
:1045100061F0232B242B252B21F408950A2609F47E
:10452000A140A6958FEF811D811D08950E94A922AB
:104530000C941A230E940C2338F00E94132320F0BD
:10454000952311F00C9403230C94092311240C944B
:104550004E230E942B2370F3959FC1F3950F50E0DB
:10456000551F629FF001729FBB27F00DB11D639F25
:10457000AA27F00DB11DAA1F649F6627B00DA11DCB
:10458000661F829F2227B00DA11D621F739FB00D71
:10459000A11D621F839FA00D611D221F749F3327E1
:1045A000A00D611D231F849F600D211D822F762F7A
:1045B0006A2F11249F5750409AF0F1F088234AF057
:1045C000EE0FFF1FBB1F661F771F881F91505040C3
:1045D000A9F79E3F510580F00C9403230C944E23C1
:1045E0005F3FE4F3983ED4F3869577956795B7954A
:1045F000F795E7959F5FC1F7FE2B880F911D969564
:10460000879597F9089597F99F6780E870E060E0D3
:1046100008959FEF80EC089500240A94161617065B
:1046200018060906089500240A94121613061406A3
:1046300005060895092E0394000C11F4882352F006
:10464000BB0F40F4BF2B11F460FF04C06F5F7F4FBE
:104650008F4F9F4F089557FD9058440F551F59F0A5
:104660005F3F71F04795880F97FB991F61F09F3F5F
:1046700079F087950895121613061406551FF2CF88
:104680004695F1DF08C0161617061806991FF1CFD8
:1046900086957105610508940895E894BB276627FF
:1046A0007727CB0197F908950E945F23A59F900D6E
:1046B000B49F900DA49F800D911D11240895A29F79
:1046C000B001B39FC001A39F700D811D1124911DE6
:1046D000B29F700D811D1124911D08955058BB2764
:1046E000AA270E9486230C941A230E940C2338F0D8
:1046F0000E94132320F039F49F3F19F426F40C9400
:1047000009230EF4E095E7FB0C940323E92F0E94A4
:104710002B2358F3BA17620773078407950720F015
:1047200079F4A6F50C944D230EF4E0950B2EBA2FD8
:10473000A02D0B01B90190010C01CA01A0011124A7
:10474000FF27591B99F0593F50F4503E68F11A1653
:10475000F040A22F232F342F4427585FF3CF4695E4
:1047600037952795A795F0405395C9F77EF41F1606
:10477000BA0B620B730B840BBAF09150A1F0FF0FD0
:10478000BB1F661F771F881FC2F70EC0BA0F621FBC
:10479000731F841F48F4879577956795B795F795AC
:1047A0009E3F08F0B0CF9395880F08F09927EE0F41
:1047B0009795879508950E94EF230C941A230E94E1
:1047C000132358F00E940C2340F029F45F3F29F096
:1047D0000C94032351110C944E230C9409230E9432
:1047E0002B2368F39923B1F3552391F3951B550BB4
:1047F000BB27AA2762177307840738F09F5F5F4FB4
:10480000220F331F441FAA1FA9F335D00E2E3AF0F2
:10481000E0E832D091505040E695001CCAF72BD00A
:10482000FE2F29D0660F771F881FBB1F261737075B
:104830004807AB07B0E809F0BB0B802DBF01FF278D
:1048400093585F4F3AF09E3F510578F00C94032344
:104850000C944E235F3FE4F3983ED4F3869577950E
:104860006795B795F7959F5FC9F7880F911D969546
:10487000879597F90895E1E0660F771F881FBB1FA2
:10488000621773078407BA0720F0621B730B840B4F
:10489000BA0BEE1F88F7E09508950E94332388F045
:1048A0009F5798F0B92F9927B751B0F0E1F0660FF4
:1048B000771F881F991F1AF0BA95C9F714C0B13035
:1048C00091F00E944D23B1E008950C944D23672F81
:1048D000782F8827B85F39F0B93FCCF38695779564
:1048E0006795B395D9F73EF490958095709561954D
:1048F0007F4F8F4F9F4F08950E94722208F48FEFD1
:1049000008950E947222880B990B0895A1E21A2E35
:10491000AA1BBB1BFD010DC0AA1FBB1FEE1FFF1F63
:10492000A217B307E407F50720F0A21BB30BE40BB3
:10493000F50B661F771F881F991F1A9469F76095FA
:104940007095809590959B01AC01BD01CF010895B4
:10495000EE0FFF1F881F8BBF0790F691E02D199473
:104960000F931F93CF93DF938230910510F482E071
:1049700090E0E0913E0DF0913F0D30E020E0B0E09E
:10498000A0E0309799F42115310509F44AC0281B9D
:10499000390B24303105D8F58A819B816115710569
:1049A00089F1FB0193838283FE0111C04081518113
:1049B0000281138148175907E0F04817590799F405
:1049C000109761F012960C93129713961C933296DF
:1049D000CF01DF91CF911F910F91089500933E0D6C
:1049E00010933F0DF4CF2115310551F042175307B5
:1049F00038F0A901DB019A01BD01DF01F801C1CF47
:104A0000EF01F9CF90933F0D80933E0DCDCFFE0186
:104A1000E20FF31F81939193225031093983288348
:104A2000D7CF20913C0D30913D0D232B41F42091A7
:104A300015023091160230933D0D20933C0D2091CC
:104A40001302309114022115310541F42DB73EB700
:104A50004091170250911802241B350BE0913C0D38
:104A6000F0913D0DE217F307A0F42E1B3F0B281722
:104A7000390778F0AC014E5F5F4F2417350748F0D7
:104A80004E0F5F1F50933D0D40933C0D81939193CA
:104A90009FCFF0E0E0E09CCFCF93DF930097E9F069
:104AA000FC01329713821282A0913E0DB0913F0D0E
:104AB000ED0130E020E01097A1F420813181820FD8
:104AC000931F20913C0D30913D0D2817390709F0B7
:104AD00061C0F0933D0DE0933C0DDF91CF910895BF
:104AE000EA01CE17DF07E8F54A815B819E01411597
:104AF0005105B1F7E901FB83EA8349915991C40F4C
:104B0000D51FEC17FD0761F4808191810296840F17
:104B1000951FE90199838883828193819B838A838E
:104B2000F0E0E0E012968D919C9113970097B9F513
:104B30002D913C911197CD010296820F931F2091E8
:104B40003C0D30913D0D2817390739F6309751F556
:104B500010923F0D10923E0DB0933D0DA0933C0D71
:104B6000BCCFD383C28340815181840F951FC81766
:104B7000D90761F44E5F5F4F88819981480F591FB3
:104B8000518340838A819B819383828321153105E0
:104B900009F0B0CFF0933F0DE0933E0D9ECFFD01A5
:104BA000DC01C0CF13821282D7CF4F925F926F92F7
:104BB0007F928F929F92AF92BF92CF92DF92EF92AD
:104BC000FF920F931F93CF93DF938C01009799F47B
:104BD000CB01DF91CF911F910F91FF90EF90DF906C
:104BE000CF90BF90AF909F908F907F906F905F908D
:104BF0004F900C94B024FC01E60FF71F9C0122504B
:104C00003109E217F30708F4AEC0D901CD91DC9168
:104C10001197C617D70720F1C530D10578F0CE011E
:104C200004978617970750F0C61BD70B2297C1939E
:104C3000D1936D937C93CF010E944C25C801DF91E5
:104C4000CF911F910F91FF90EF90DF90CF90BF9089
:104C5000AF909F908F907F906F905F904F9008954E
:104C60005B01AC1ABD0A4C018C0E9D1EA0913E0D3D
:104C7000B0913F0D512C412CF12CE12C109731F5C6
:104C800080913C0D90913D0D8815990509F05CC00F
:104C90004616570608F058C08091130290911402EE
:104CA000009741F48DB79EB74091170250911802BA
:104CB000841B950BE817F90708F055C0F0933D0DDC
:104CC000E0933C0DF90171836083B8CF8D919C9185
:104CD000119712966C90129713967C901397A815C3
:104CE000B90559F56C0142E0C40ED11CCA14DB04AD
:104CF00020F1AC014A195B09DA011296159780F090
:104D00006282738251834083D9016D937C93E11455
:104D1000F10471F0D7011396FC93EE9312978ECFA6
:104D200022968C0F9D1FF90191838083F301EFCFB1
:104D3000F0933F0DE0933E0D81CF4816590608F4DD
:104D40002C017D01D3019ACFCB010E94B0247C01BC
:104D5000009749F0AE01B8010E94C326C8010E9425
:104D60004C2587016BCF10E000E068CFFB01DC0130
:104D700004C08D910190801921F441505040C8F732
:104D8000881B990B0895FB01DC0102C001900D9274
:104D900041505040D8F70895FB01DC018D910190FE
:104DA00080190110D9F3990B0895FB01DC010190E2
:104DB0000D920020E1F70895FB01DC0141505040C5
:104DC00048F001900D920020C9F701C01D9241509A
:104DD0005040E0F7089511E0C1E6D1E000E006C0E0
:104DE000802FFE010E94A8242196011DC236D10702
:0A4DF00080E00807A9F7F894FFCF50
:104DFA00FFFFFFFF0000C842018FC2F53D0100001E
:104E0A0000C8420000400D800000000000150FF8A5
:104E1A000EE80EBF0EC80E4A10541000000000D44F
:104E2A00033E036B0321049C037A038E03000000F4
:104E3A00005E0E3E03580C7810000000008B043E02
:104E4A000379108A04E704FD047204000000003BA1
:104E5A00123E03791078106E616E00696E66006FFB
:104E6A007666000D0A00557064617465206176618A
:104E7A00696C61626C652E204170706C79696E672D
:104E8A00207570646174652E2E2E005570646174ED
:104E9A0065206170706C69656420737563636573FE
:104EAA007366756C6C79210020562C2043757272DA
:104EBA00656E743A200020412C20506F7765723A53
:104ECA002000205700446174612073656E74206F5E
:104EDA0076657220426C7565746F6F74682E004C2B
:104EEA00454400536F756E6400506F776572204DAC
:104EFA0065746572005344206361726420696E6947
:104F0A007469616C697A65642E00534420496E693C
:104F1A00742053756363657373005344206361722D
:104F2A006420696E697469616C697A6174696F6E0B
:104F3A00206661696C65642100534420496E697476
:104F4A00204661696C656400426C7565746F6F74A4
:104F5A006820696E697469616C697A65642E0056A5
:104F6A00657273696F6E20372E30205365747570C1
:104F7A0020436F6D706C6574650056657273696F56
:104F8A006E20392E3020536574757020436F6D7012
:104F9A006C657465207769746820456E65726779F7
:104FAA0020436F737420457374696D6174696F6E01
:104FBA0000312E506F776572205468726573686F7E
:104FCA006C6400322E436F73742F6B5768005468F9
:104FDA00726573686F6C643A200056657273696F04
:104FEA006E2031302E3020536574757020436F6DFA
:104FFA00706C657465207769746820536574746988
:10500A006E6773204D656E750056657273696F6EB3
:10501A002031312E3020536574757020436F6D70C6
:10502A006C657465207769746820436C6F756420B9
:10503A00496E746567726174696F6E005665727342
:10504A00696F6E2031322E3020536574757020439B
:10505A006F6D706C657465207769746820496F5448
:10506A0020496E746567726174696F6E00312E53E0
:10507A006574205468726573686F6C6400322E53CD
:10508A00657420416C657274204D6F6465005665C5
:10509A007273696F6E2031332E30205365747570C8
:1050AA0020436F6D706C657465207769746820435E
:1050BA007573746F6D20416C6572747300566572F6
:1050CA0073696F6E2031342E3020536574757020E9
:1050DA00436F6D706C657465207769746820456EDE
:1050EA0068616E636564204772617068696E6720E3
:1050FA0046656174757265730056657273696F6E81
:10510A002031352E3020536574757020436F6D70D1
:10511A006C65746520776974682041646469746990
:10512A006F6E616C2053656E736F72730056657291
:10513A0073696F6E2031362E302053657475702076
:10514A00436F6D706C657465207769746820526569
:10515A006D6F746520436F6E74726F6C0056657262
:10516A0073696F6E2031372E302053657475702045
:10517A00436F6D706C657465207769746820526539
:10518A00616C2D54696D652052656D6F746520558B
:10519A007064617465730056657273696F6E20314D
:1051AA00382E3020536574757020436F6D706C65AE
:1051BA0074652077697468204F7074696D697A65BF
:1051CA006420456E6572677920436F737420457356
:1051DA0074696D6174696F6E0056657273696F6E7A
:1051EA002031392E3020536574757020436F6D70ED
:1051FA006C657465207769746820436F7374204204
:10520A007265616B646F776E20446973706C617943
:10521A000056657273696F6E2032302E30205365E6
:10522A0074757020436F6D706C657465207769744E
:10523A006820496F54205265706F7274696E6700F6
:10524A00506F7765723A00566F6C746167653A0001
:10525A0020560043757272656E743A002041002030
:10526A00412C20566F6C746167653A200020562CD9
:10527A0020506F7765723A200044617461206C6F28
:10528A006767656420746F20534420636172642EDB
:10529A00004572726F72206F70656E696E67206466
:1052AA006174616C6F672E74787400506F776572E1
:1052BA00207468726573686F6C64206578636565CD
:1052CA006465642120416C65727420747269676731
:1052DA00657265642E0056657273696F6E20372E8B
:1052EA0030204C6F6F702052756E6E696E67005475
:1052FA00696D657374616D703A20005665727369E1
:10530A006F6E20382E30204C6F6F702052756E6E83
:10531A00696E6700457374696D6174656420436FD3
:10532A0073743A20240056657273696F6E20392EA1
:10533A0030204C6F6F702052756E6E696E67004335
:10534A006F73742F6B57683A20240056657273691D
:10535A006F6E2031302E30204C6F6F702052756E78
:10536A006E696E670055706C6F6164696E67207450
:10537A006F20636C6F75643A20566F6C7461676551
:10538A003A200056657273696F6E2031312E3020D3
:10539A004C6F6F702052756E6E696E670053656E42
:1053AA0064696E67206461746120746F20496F5468
:1053BA0020706C6174666F726D3A20566F6C7461FE
:1053CA0067653A200056657273696F6E2031322E16
:1053DA0030204C6F6F702052756E6E696E67004197
:1053EA006C657274204D6F64653A2000536F756E58
:1053FA006420616C6572742074726967676572658E
:10540A00642100437573746F6D20706F7765722025
:10541A007468726573686F6C642065786365656427
:10542A0065642120416C65727420747269676765CE
:10543A007265642E0056657273696F6E2031332E61
:10544A0030204C6F6F702052756E6E696E67005611
:10545A00657273696F6E2031342E30204C6F6F7015
:10546A002052756E6E696E670054656D7065726163
:10547A00747572653A200020432C2048756D696462
:10548A006974793A20005345545F54485245534849
:10549A004F4C440052656D6F74653A20506F7765C2
:1054AA0072207468726573686F6C64207365742007
:1054BA00746F20313230572E0041435449564154BB
:1054CA00455F414C4552540052656D6F74653A20F0
:1054DA00416C657274206163746976617465642EC7
:1054EA000052656D6F74653A20556E6B6E6F776EFC
:1054FA0020636F6D6D616E642072656365697665A0
:10550A00642E00457374696D6174656420436F731A
:10551A007420776974682044796E616D69632050DC
:10552A00726963696E673A202400436F73743A2084
:10553A000056657273696F6E2031392E30204C6FB8
:10554A006F702052756E6E696E670053656E64697E
:10555A006E672064657461696C6564207265706F3A
:10556A00727420746F20636C6F75642E2E2E005433
:10557A006F74616C20436F73743A20240052657013
:10558A006F72742073656E742073756363657373C9
:10559A0066756C6C792E0056657273696F6E20326F
:1055AA00302E30204C6F6F702052756E6E696E67A8
:0255BA000000EF
:00000001FF
