:100000000C9448010C9479010C9479010C947901B9
:100010000C9479010C9479010C9479010C94790178
:100020000C9479010C9479010C9479010C94790168
:100030000C9479010C9479010C9479010C94790158
:100040000C9479010C9479010C9479010C94790148
:100050000C9479010C9479010C9479010C944F144F
:100060000C9479010C94C3140C9499140C94790198
:100070000C9479010C9479010C9479010C94790118
:100080000C9479010C9479010C9479010C94790108
:100090000C9479010C9479010C9479010C947901F8
:1000A0000C9479010C9479010C9479010C947901E8
:1000B0000C9479010C9479010C9479010C947901D8
:1000C0000C9479010C9479010C9479010C947901C8
:1000D0000C9479010C9479010C9479010C947901B8
:1000E0000C9479010C94D2020C94FF020C943A0205
:1000F0000C94B00D0C943C0F0C9415020C94360229
:100100000C94A70D0C94F2010C9428020C94440258
:100110000C94F9140C941E020C94FD0D0C942C02FA
:100120000C9468030C94460D0C94600F0C943E02E2
:100130000C94B5030C9430020C9448020C942203E6
:100140000C94320F0C94400B0C9411020C940E037F
:100150000C9422020C94D00D0C941F110C943003BB
:100160000C940D020C94610F0C94F7010C9418027E
:100170000C94E00D0C9409027C3C3E5E2B3D3F2F1D
:100180005B5D3B2C2A225C0000000A0B02090C0D6F
:100190000E0807030401000000000000000000003A
:1001A000000000000000000000000000000000004F
:1001B000000000001211100000000000000000000C
:1001C000000000000000000000000000000000002F
:1001D0002200250028002B002E00310034000201EF
:1001E0000000050108010B01000021002400270088
:1001F0002A002D0030003300010100000401070136
:100200000A0105050505070508080808020202029B
:100210000A0A0808040404040101010101010101A2
:100220000303030303030303040707070C0C0C0C6D
:100230000C0C0C0C02020202060606060606060656
:100240000B0B0B0B0B0B0B0B0102102020080810E3
:100250002040102040800201020108040201010236
:10026000040810204080804020100804020180040F
:10027000020180402010080402010804020101026A
:100280000408102040800102040810204080F91466
:1002900011241FBECFEFD1E2DEBFCDBF00E00CBF07
:1002A00013E0A0E0B2E0E4EBFAE300E00BBF02C031
:1002B00007900D92AE33B107D9F726E0AEE3B3E075
:1002C00001C01D92A935B207E1F711E0C8E4D1E001
:1002D00000E006C021970109802FFE010E94F51B56
:1002E000C734D10780E00807A9F70E945E150C9477
:1002F000581D0C94000090E0FC01E85BFD4F249138
:100300008E5F9D4FFC018491882399F090E0880FC7
:10031000991FFC01E851FE4FA591B491FC01E253F5
:10032000FE4F859194918FB7F894EC91E22BEC936A
:100330008FBF0895E5E5F5E0A089B18982E08C934F
:10034000A485B5851C92A685B7858FEC8C93108EFD
:10035000A489B58986E08C93A289B3898C91806148
:100360008C93A289B3898C9188608C93A289B3897C
:100370008C9180688C930288F389E02D80818F7D39
:1003800080830895282F30E0F901E857FE4F9491BB
:10039000F901E85BFD4F44912E5F3D4FF901249137
:1003A000222309F435C0992311F191509231F8F4C8
:1003B000E92FF0E08827E052FE4F8F4F0C94F51B99
:1003C00011021502F20109020D02F70118021E02C4
:1003D000220228022C02300236023A02F7013E02C3
:1003E00044024802809180008F7780938000E22F42
:1003F000F0E0EE0FFF1FE253FE4FA591B4918FB7CF
:10040000F894EC91611148C040954E234C938FBFF6
:100410000895809180008F7DE8CF80918000877F54
:10042000E4CF84B58F7784BDE2CF84B58F7DFBCFD9
:100430008091B0008F778093B000D9CF8091B000C9
:100440008F7DF9CF809190008F7780939000CFCFF0
:10045000809190008F7DF9CF80919000877FF5CFBC
:100460008091A0008F778093A000C1CF8091A000E1
:100470008F7DF9CF8091A000877FF5CF80912001FB
:100480008F7780932001B3CF809120018F7DF9CFAA
:1004900080912001877FF5CF4E2BB8CF863308F0AF
:1004A000865320917B00982F9870277F922B9093F2
:1004B0007B008770806480937C0080917A008064E8
:1004C00080937A0080917A0086FDFCCF809178003D
:1004D0009091790008953FB7F89480914F039091DF
:1004E0005003A0915103B091520326B5A89B05C0BB
:1004F0002F3F19F00196A11DB11D3FBFBA2FA92FA3
:10050000982F8827BC01CD01620F711D811D911D9F
:1005100042E0660F771F881F991F4A95D1F708950B
:100520008F929F92AF92BF92CF92DF92EF92FF9203
:100530000E946B024B015C0180EDC82E87E0D82E33
:10054000E12CF12C0E946B02681979098A099B0938
:10055000683E734081059105A8F321E0C21AD108D5
:10056000E108F10888EE880E83E0981EA11CB11CFA
:10057000C114D104E104F10429F7FF90EF90DF905A
:10058000CF90BF90AF909F908F9008952FB7F89421
:1005900060914B0370914C0380914D0390914E03F9
:1005A0002FBF0895AF92BF92CF92DF92EF92FF924A
:1005B0000F931F93CF93DF936C017B018B01040F8B
:1005C000151FEB015E01AE18BF08C017D10759F027
:1005D0006991D601ED91FC910190F081E02DC60169
:1005E0001995892B79F7C501DF91CF911F910F9153
:1005F000FF90EF90DF90CF90BF90AF900895FC01F7
:10060000538D448D252F30E0842F90E0821B930B77
:10061000541710F0CF96089501970895FC01918D1D
:10062000828D981761F0A28DAE0FBF2FB11D5D9620
:100630008C91928D9F5F9F73928F90E008958FEFC2
:100640009FEF0895FC01918D828D981731F0828D76
:10065000E80FF11D858D90E008958FEF9FEF0895CD
:10066000FC01918D228D892F90E0805C9F4F821B31
:1006700091098F739927089585E595E00E943003CD
:1006800021E0892B09F420E0822F0895FC01A48D3C
:10069000A80FB92FB11DA35ABF4F2C91848D90E0A4
:1006A00001968F739927848FA689B7892C93A08987
:1006B000B1898C91837080648C93938D848D981311
:1006C00006C00288F389E02D80818F7D80830895A4
:1006D000EF92FF920F931F93CF93DF93EC0181E092
:1006E000888F9B8D8C8D98131AC0E889F989808139
:1006F00085FF15C09FB7F894EE89FF896083E8896C
:10070000F98980818370806480839FBF81E090E05D
:10071000DF91CF911F910F91FF90EF900895F62EEA
:100720000B8D10E00F5F1F4F0F731127E02E8C8D84
:100730008E110CC00FB607FCFACFE889F9898081C9
:1007400085FFF5CFCE010E944603F1CFEB8DEC0F74
:10075000FD2FF11DE35AFF4FF0829FB7F8940B8FE6
:10076000EA89FB8980818062CFCFCF93DF93EC0150
:10077000888D8823B9F0AA89BB89E889F9898C9189
:1007800085FD03C0808186FD0DC00FB607FCF7CF45
:100790008C9185FFF2CF808185FFEDCFCE010E9445
:1007A0004603E9CFDF91CF91089580E090E0892B57
:1007B00029F00E943C0381110E94000080E090E03B
:1007C000892B49F080E090E0892B29F00E940000FD
:1007D00081110E94000080E090E0892B49F080E0C8
:1007E00090E0892B29F00E94000081110E940000F6
:1007F00080E090E0892B49F080E090E0892B29F09F
:100800000E94000081110C94000008958FB7F894A5
:1008100080913F038FBF089561E0FC0184810E94B5
:10082000C20180913E03811110923E0308958EBD56
:1008300000000DB407FEFDCF8EB508958FEF0C9428
:1008400017040F931F93CF93DF93EC010E94C6020E
:100850008B010E941E048F3F69F00E94C602601B3C
:10086000710B6C177D07A8F380E0DF91CF911F918A
:100870000F91089581E0F9CF8CBD9DBD0895CF9370
:10088000DF93EC0180913E03811109C081E08093E8
:100890003E038091F2059091F3050E943C0460E0D4
:1008A0008C81DF91CF910C94C2018F929F92AF9275
:1008B000BF92FF920F931F93CF93DF93EC01F62E1D
:1008C00049015A018E81882389F08F8198859C0186
:1008D0002F5F3F4F38872F838230924018F40E9459
:1008E0001E04F3CFCE010E940C041E82CE010E9492
:1008F0003F048CE291E00E9421048F2D80640E94CD
:10090000170408E110E0D501C401002E04C0B6951B
:10091000A795979587950A94D2F70E9417040850D7
:100920001109083F8FEF180771F785E9FF2021F0C3
:1009300028E087E8F2128FEF0E94170410E00E946F
:100940001E048A8787FF04C01F3F11F01F5FF7CF87
:10095000DF91CF911F910F91FF90BF90AF909F902B
:100960008F900895AF92BF92CF92DF92EF92FF9255
:100970000F931F93CF93DF93EC016901C801820F9E
:10098000931F8130924050F58E81882379F08881C1
:100990009981AA81BB8184179507A607B70731F40F
:1009A0008F819885C816D90608F042C048835983BC
:1009B0006A837B838B85833039F089E0440F551F30
:1009C000661F771F8A95D1F79A01AB0161E1CE01CD
:1009D0000E945504882389F083E08D83CE010E9414
:1009E0000C0480E0DF91CF911F910F91FF90EF9069
:1009F000DF90CF90BF90AF9008950E94C6025B0138
:100A00000E941E048A878F3F69F40E94C6026A19F9
:100A10007B096D327140A0F38FE08D83CE010E947F
:100A20000C04DCCF8E3F89F418861F8281E08E8310
:100A30008F8198858C159D0550F40E941E048F812E
:100A40009885019698878F83F3CF8DE0E6CF670175
:100A5000E00EF11E0E941E04F60181936F01EE1557
:100A6000FF05C1F78F819885080F191F18870F831D
:100A70008985882319F001151240A0F08E81882302
:100A800089F08F8198859C012F5F3F4F38872F8396
:100A90008230924018F40E941E04F3CFCE010E94CF
:100AA0000C041E8281E09ECFCF92DF92EF92FF92E4
:100AB0000F93CF93DF93EC01690182E1411551055A
:100AC0006105710599F08B85833039F089E0440F19
:100AD000551F661F771F8A95D1F79A01AB0168E110
:100AE000CE010E945504882319F084E08D832DC027
:100AF0008EEF0E94170476018EEFD81AF7018191CC
:100B00007F010E941704EC14FD04C1F78FEF0E94CF
:100B100017048FEF0E9417040E941E048A878F71AA
:100B2000853071F4011116C0CE010E940C0481E0E1
:100B3000DF91CF910F91FF90EF90DF90CF900895CC
:100B400081E18D83CE010E940C04CE010E940C0431
:100B500080E0EECF88E592E00E942104811102C07E
:100B600085E1C4CF20E030E0A9016DE0CE010E9414
:100B70005504882311F084E1B9CF0E941E0481112D
:100B8000FACFD2CF0F93409141035091420360912D
:100B9000430370914403411551056105710599F0B6
:100BA000082F23E533E080915305909154050E946E
:100BB0005405882349F01092410310924203109289
:100BC00043031092440381E00F9108950F93CF9354
:100BD000C82F80914003811105C0C1E08C2FCF91B7
:100BE0000F9108954091000250910102609102021C
:100BF000709103020C2F23E533E08091530590910F
:100C000054050E945405811102C0C0E0E7CFCC23F7
:100C100021F381E00E94C2058823B9F310924003BA
:100C2000DDCF8F929F92AF92BF92EF92FF920F9380
:100C30001F93CF934B015C01C42F809100029091D0
:100C40000102A0910202B091030288159905AA053C
:100C5000BB0551F181E00E94E60581110BC080E0E7
:100C6000CF911F910F91FF90EF90BF90AF909F9009
:100C70008F90089583E5E82E83E0F82E00E012E0DF
:100C800030E020E0B501A401809153059091540516
:100C90000E94B204882319F380920002909201020C
:100CA000A0920202B0920302409140034C2B409369
:100CB000400381E0D5CF8F929F92AF92BF92CF92A7
:100CC000DF92EF92FF92CF9324EF35E030935405FB
:100CD00020935305882309F46DC040E060E070E084
:100CE000CB010E94110681110BC080E0CF91FF90D3
:100CF000EF90DF90CF90BF90AF909F908F9008952E
:100D0000809111058F7789F780911D0590911E05BF
:100D1000A0911F05B091200584369105A105B1056C
:100D200020F3C0901905D0901A05E0901B05F090B3
:100D30001C05C114D104E104F104B9F240E0C7017B
:100D4000B6010E941106882381F280915E03909182
:100D50005F038115924049F6A0916303AA2329F20B
:100D600060916103709162036115710509F4BDCF53
:100D700020916003222309F4B8CFA0931206209398
:100D8000040690E080E030E0E1E0F0E0C82FAF0141
:100D9000082E02C0440F551F0A94E2F724173507A6
:100DA00069F041E0480F01968930910579F7409349
:100DB0000D069BCFC12CD12C7601C0CF80930D06A0
:100DC0002091690330916A0350E040E0211531051C
:100DD00041F4209177033091780340917903509149
:100DE0007A03209305063093060640930706509336
:100DF000080646015701860E971EA11CB11C809261
:100E0000130690921406A0921506B0921606E09171
:100E10006403F0916503F0931906E0931806B0E0BF
:100E20000E94FD1BDC01CB01880D991DAA1DBB1D75
:100E300080931A0690931B06A0931C06B0931D0680
:100E400025E0EE0FFF1F2A95E1F7E150FE4FEF2F4F
:100E5000FF27E6958E0F9F1FA11DB11D80930E06E3
:100E600090930F06A0931006B0931106809066032E
:100E700090906703B12CA12C8114910441F48090CF
:100E8000730390907403A0907503B0907603C81A12
:100E9000D90AEA0AFB0AC80CD91CEA1CFB1C04C0CC
:100EA000F694E794D794C794CA95D2F7C0920906EE
:100EB000D0920A06E0920B06F0920C0685EFC81657
:100EC0008FE0D806E104F10428F48CE08093170643
:100ED00081E00CCF80E125EFC2162FEFD206E104AE
:100EE000F104A0F380917F0390918003A09181038E
:100EF000B091820380931A0690931B06A0931C0660
:100F0000B0931D0680E2E2CF4F925F926F927F9284
:100F10008F929F92AF92BF92CF92DF92EF92FF9209
:100F20000F931F93CF93DF93EC014230510561057E
:100F3000710590F480E0DF91CF911F910F91FF90A8
:100F4000EF90DF90CF90BF90AF909F908F907F9069
:100F50006F905F904F90089589859A85AB85BC8589
:100F60000196A11DB11D84179507A607B70710F3B9
:100F7000CB88DC88ED88FE888F89803109F042C0FB
:100F8000BB27A72F962F852F480159012A013B0126
:100F9000C80ED91EEA1EFB1E80910002909101022C
:100FA000A0910202B0910302C816D906EA06FB0618
:100FB00099F58F898031C1F5B301A20155276627C4
:100FC0007727440F551F4D5A5C4FFA01918280825A
:100FD000809140038160809340038A89823080F051
:100FE0008D819E81AF81B8858C0D9D1DAE1DBF1D6D
:100FF0008093410390934203A0934303B09344032F
:1010000081E099CFDB01CA01E7E0B695A7959795F6
:101010008795EA95D1F7B8CF40E0C701B6010E94A5
:1010200011068111C6CF86CFB301A2014F77552794
:1010300066277727440F551F440F551F4D5A5C4FA5
:10104000FA0180829182A282B382C2CF8F929F9254
:10105000AF92BF92CF92DF92EF92FF920F931F93C6
:10106000CF93DF93FC0181859285A385B48501969A
:10107000A11DB11D84179507A607B70770F480E07E
:10108000DF91CF911F910F91FF90EF90DF90CF9064
:10109000BF90AF909F908F90089583889488A58883
:1010A000B6888789803189F5BB27A72F962F852F92
:1010B000E9016A017B018F01BC01CD01680D791D39
:1010C0008A1D9B1D8090000290900102A090020258
:1010D000B090030286169706A806B90601F5F80136
:1010E0008789803111F5DD24EE24FF24F601EE0F0F
:1010F000FF1FED5AFC4F80819181B0E0A0E0888312
:101100009983AA83BB8381E0BBCFDB01CA01C7E01F
:10111000B695A79597958795CA95D1F7C9CF40E021
:101120000E9411068111DBCFAACFE894C7F8DD2415
:10113000EE24FF24F601EE0FFF1FEE0FFF1FED5A06
:10114000FC4F80819181A281B381BF70D8CF4F9233
:101150005F926F927F92AF92BF92CF92DF92EF92A7
:10116000FF920F931F93CF93DF9300D01F92CDB7C1
:10117000DEB78C0149835A836B837C835901C12C70
:10118000D12C7601412C82E0582E612C712C4981A2
:101190005A816B817C819E012F5F3F4FC8010E9465
:1011A0002608882339F1F8018585A301920104C03E
:1011B000220F331F441F551F8A95D2F7DA01C90148
:1011C000C80ED91EEA1EFB1E49815A816B817C81A3
:1011D0008789803111F188EF9FEFAFEFBFE04817AB
:1011E00059076A077B0798F2F501C082D182E28233
:1011F000F38281E00F900F900F900F90DF91CF91CD
:101200001F910F91FF90EF90DF90CF90BF90AF9024
:101210007F906F905F904F90089588EF9FEFA0E0D0
:10122000B0E0DDCFCF93DF93FC012581222321F0B5
:1012300080E0DF91CF910895EC0180911706803115
:1012400059F582E08583178A108E118E128E809157
:10125000180690911906B0E0A0E025E0880F991FCC
:10126000AA1FBB1F2A95D1F7838B948BA58BB68BB6
:1012700080E096E09C8F8B8F81E08C831E821F82A2
:10128000188619861A861B861C861D861E861F8652
:10129000188A198A1A8ACDCF803251F683E0858365
:1012A00040911A0650911B0660911C0670911D0614
:1012B000478B508F618F728F9F012D5E3F4F80E073
:1012C00096E00E94A7088111D3CFB2CF8F929F9250
:1012D000AF92BF92CF92DF92EF92FF920F931F9344
:1012E000CF93DF93EC018D8181110EC080E0DF91FF
:1012F000CF911F910F91FF90EF90DF90CF90BF9013
:10130000AF909F908F9008950B891C892D893E89FD
:10131000041715072607370748F34A015B01823097
:1013200031F48A869B86AC86BD8681E0E0CF81144D
:101330009104A104B10449F41E821F821886198603
:101340001A861B861C861D86F0CF0A851B852C8578
:101350003D85EB8DFC8D858590E00996B901A8014E
:101360004150510961097109082E04C076956795AD
:10137000579547950A94D2F775016401E1E0CE1ABA
:10138000D108E108F10804C0F694E794D794C79413
:101390008A95D2F7C416D506E606F70620F0012B8B
:1013A000022B032B11F58F89988DA98DBA8D8E8311
:1013B0009F83A887B9878E010A5F1F4FC114D1048C
:1013C000E104F10409F4ADCF4E815F816885798530
:1013D00098018B8D9C8D0E94260891E0C91AD10836
:1013E000E108F1088111EACF81CFC41AD50AE60AD3
:1013F000F70AE1CF3F924F925F926F927F928F9266
:101400009F92AF92BF92CF92DF92EF92FF920F9393
:101410001F93CF93DF93CDB7DEB72C970FB6F89419
:10142000DEBF0FBECDBF5C01DC015B968D909C9052
:101430005C9716964D905D906D907C901997411435
:1014400051046104710409F468C0BFEF4B1A5B0AD0
:101450006B0A7B0A312CF40181859285A385B485C2
:101460009C01AD012F5F3F4F4F4F5F4F29873A8758
:101470004B875C87730162011D821E821F82188662
:10148000F40181859285A385B4852D813E814F81AC
:101490005885281739074A075B0708F056C0898521
:1014A0009A85AB85BC858C159D05AE05BF0550F4AE
:1014B00082E0C82ED12CE12CF12C92E0492E512C47
:1014C000612C712C9E012F5F3F4FB701A601C40113
:1014D0000E9426088823C9F189819A81AB81BC8149
:1014E000892B8A2B8B2B09F1260137019FEF491A93
:1014F000590A690A790A2D813E814F8158852F5FEB
:101500003F4F4F4F5F4F2D833E834F8358873FEFB1
:10151000C31AD30AE30AF30AB3CFF401408051801F
:10152000628073803324339496CFC414D504E604C8
:10153000F70409F70FEF1FEF2FEF3FE0B701A60108
:10154000C4010E948407811119C080E02C960FB657
:10155000F894DEBF0FBECDBFDF91CF911F910F91E9
:10156000FF90EF90DF90CF90BF90AF909F908F90C3
:101570007F906F905F904F903F900895D5011696A1
:101580004D915D916D917C911997411551056105C2
:10159000710539F097018601C4010E9484078823F0
:1015A000A1F2D5011696CD92DD92ED92FC9219979B
:1015B000332051F0D701C6010196A11DB11DF401E0
:1015C00080839183A283B383F5018789908DA18D58
:1015D000B28D892B8A2B8B2B39F48481C78AD08ECC
:1015E000E18EF28E80688483F50184818062848339
:1015F00081E0ACCF1F93CF93DF93FC0125812223A1
:10160000D1F1162FEC01848187FF2AC0668577858A
:101610008089918941E00E941106882361F1EA895D
:1016200080E2E89FF0011124ED5AFC4F309719F148
:101630008D81823040F48B899C89AD89BE89848FED
:10164000958FA68FB78F8F89988D938F828F8F8973
:10165000988DA98DBA8DB58BA48B8C818F778C8357
:10166000111103C08C818F7E8C83812FDF91CF91EC
:101670001F910C94E60580E0DF91CF911F910895B2
:10168000FF920F931F93CF93DF93EC018D818130F5
:1016900041F090E080E0DF91CF911F910F91FF909A
:1016A00008958C8181FFF5CF82FD1BC00091530509
:1016B00010915405C8010E943F040E941E04F82E98
:1016C000C8010E940C048FEFF812E3CF8C8185FFD4
:1016D0001BC060E0CE010E94FA0A8C818F7D8C8352
:1016E000D8CF4B895C896D897E898A859B85AC853D
:1016F000BD8584179507A607B707C1F2CE010E94E2
:1017000066098111D3CFC5CF409141035091420367
:101710006091430370914403452B462B472B21F0E6
:1017200080E00E94C205B5CF80618C832A853B850D
:10173000317080E092E0821B930BADCFCF93DF93AB
:10174000EC0161E00E94FA0A882311F01D8281E019
:10175000DF91CF9108952F923F924F925F926F92B7
:101760007F928F929F92AF92BF92CF92DF92EF9231
:10177000FF920F931F93CF93DF9300D01F921F927E
:10178000CDB7DEB77C015B01342E5D83DC0115969D
:101790008C911597813009F0CEC014962C9021FEC3
:1017A000CAC022FCB4C0C32CDD8022947FE0272273
:1017B0002094B22DB1702B2ED7011A964D915D91C8
:1017C0006D917C911D97C114D10409F428C15B96D9
:1017D0008D919C915C97FC0174807A948A019B01A5
:1017E00069E036952795179507956A95D1F7702288
:1017F0008A011170711020C001151105E9F41696C7
:101800004D915D916D917C9119974115510561053F
:10181000710509F099C057968D919D910D90BC91DD
:10182000A02D0097A105B10509F0B0C0C7010E9425
:10183000FA09882309F47FC080E092E0801B910BB5
:1018400046018C159D0508F44C01D7015B964D911E
:101850005C915C9716968D919D910D90BC91A02DF9
:101860000297A109B109FA01258504C0880F991FC3
:10187000AA1FBB1F2A95D2F74685578560897189B3
:10188000840F951FA61FB71F9C01AD01270D311DA9
:10189000411D511D29013A01811432E0930609F0DE
:1018A0007BC08091000290910102A0910202B09150
:1018B000030284159505A605B70559F48FEF9FEF30
:1018C000DC018093000290930102A0930202B09386
:1018D0000302022D9501B301A2018091530590915D
:1018E00054050E945405882331F19EEFB91AC81897
:1018F000D908F70182859385A485B585880D991D42
:10190000A11DB11D82879387A487B58755CFF701A5
:10191000438954896589768982859385A485B585AF
:10192000481759076A077B0709F43DCFC7010E9492
:101930006609811138CF81E090E0D70113969C931E
:101940008E93129780E007C09E012F5F3F4F0E9449
:101950002608811102C090E079C089819A81AB810B
:10196000BC81F701238D348DF901278948EF5FEFA2
:1019700060E070E0203121F048EF5FEF6FEF7FE033
:1019800084179507A607B70708F050CFF70186839D
:101990009783A087B18750CF0115110599F5D7011D
:1019A0001A964D915D916D917C911D9753968D91F5
:1019B0009D910D90BC91A02D481759076A077B0790
:1019C00008F181E00E94E605882309F4B4CF409233
:1019D0000002509201026092020270920302809112
:1019E0004003816080934003C8018D5A9C4FD5010C
:1019F0009C01280D391DFC012E173F0759F04D9110
:101A00004193FACF41E0C301B2010E941106811156
:101A1000EBCF91CF281B390BA20EB31E68CFF70175
:101A200083899489A589B68984179507A607B7077E
:101A300038F48481438B548B658B768B80688483E8
:101A4000F701848183FD1AC0832D9D810F900F9033
:101A50000F900F900F90DF91CF911F910F91FF90FA
:101A6000EF90DF90CF90BF90AF909F908F907F903E
:101A70006F905F904F903F902F90089561E0C70165
:101A80000E94FA0A882309F456CFDECFCF93DF9362
:101A90001F92CDB7DEB7698341E050E0BE016F5FB2
:101AA0007F4F0E94AB0B0F90DF91CF910895FC0107
:101AB000DB0112968D919C9113979383828383E32C
:101AC00092E09183808314968C9114978483159669
:101AD0008C911597858316964D915D916D917C91B2
:101AE000199746835783608771871A964D915D9148
:101AF0006D917C911D9742875387648775871E96E9
:101B00004D915D916D917C91519746875787608B80
:101B1000718B52968C915297828B53964D915D9119
:101B20006D917C915697438B548B658B768B579632
:101B30004D915D916D917C915A97478B508F618F3C
:101B4000728F5B968D919C91948F838F0895FC0189
:101B5000818D928D009719F061E00C94FA0A089536
:101B6000DC015996ED91FC913097B9F08389948905
:101B7000A589B6894285538564857585841B950B37
:101B8000A60BB70B811520E89207A105B10538F027
:101B90008FEF9FE7A0E0B0E0089590E080E0089527
:101BA000DC0159968D919C91009739F0DC01ED9103
:101BB000FC910480F581E02D199490E080E0089577
:101BC000CF93DF93EC01E98DFA8D309749F481E0F2
:101BD00090E09B838A8390E080E0DF91CF9108952D
:101BE00013821282898D9A8D0E94AB0BE98DFA8D3A
:101BF00022813381232B59F7F0CFCF93DF931F92AC
:101C0000CDB7DEB76983DC01ED91FC910280F381F1
:101C1000E02D41E050E0BE016F5F7F4F19950F90BE
:101C2000DF91CF9108952F923F924F925F926F92E2
:101C30007F928F929F92AF92BF92CF92DF92EF925C
:101C4000FF920F931F93CF93DF9300D0CDB7DEB7F2
:101C5000FC018581811118C08FEF9FEF0F900F90CD
:101C60000F90DF91CF911F910F91FF90EF90DF9038
:101C7000CF90BF90AF909F908F907F906F905F902C
:101C80004F903F902F900895848180FFE5CF438946
:101C900054896589768982859385A485B585312C9B
:101CA000212C481759076A077B0719F0222423942F
:101CB000312C6F012101CE0101963C01DF01169606
:101CC000BB83AA834114510409F4C5C0F6014285BF
:101CD0005385648575854A01F1E09F22D6015B96A4
:101CE0008D919C915C978A019B01E9E0369527953F
:101CF00017950795EA95D1F71596EC91E230E9F53D
:101D0000FC01628D738D848D958D600F711F821F14
:101D1000931FA12C22E0B22EA818B9084A145B0424
:101D200008F45201F601248126FD04C0A114F2E05A
:101D3000BF0671F40091000210910102209102028D
:101D400030910302061717072807390709F05EC00C
:101D500040E00E941106882309F47ECFC4018D5A09
:101D60009C4FD3019C012A0D3B1DFC012E173F0700
:101D700009F46CC041914D93F9CFDC011496BC90ED
:101D8000BA94B0228114910479F4B1100DC0452B9E
:101D9000462B472B69F5F6018789908DA18DB28D71
:101DA00086839783A087B187D6015B96ED91FC91DE
:101DB0005C9716966D917D918D919C9119976250CB
:101DC000710981099109258504C0660F771F881F55
:101DD000991F2A95D2F70685178520893189600FCA
:101DE000711F821F931F6B0D711D811D911D91CF5E
:101DF000D60116964D915D916D917C9119972A812E
:101E00003B810E9426088111CFCF26CF7301850127
:101E10009401AB01BC0180915305909154050E943F
:101E2000B204882309F418CF6A0C7B1CF601828562
:101E30009385A485B5858A0D9B1DA11DB11D828743
:101E40009387A487B5874A185B083CCF281B390BBA
:101E5000620E731EEBCF2A94232809F0FDCE8981F0
:101E600090E0FCCEFC01818D928D009711F00C94D6
:101E7000130E8FEF9FEF08950F931F93CF93DF9370
:101E8000EC01898D9A8D10E000E0009799F00E9496
:101E9000130E8C010F3F100769F0898D9A8DFC019C
:101EA00042855385648575854150510961097109E1
:101EB0000E946609C801DF91CF911F910F9108958B
:101EC000089590E080E00895CF92DF92EF92FF9224
:101ED0001F93CF93DF93EC0180E2689FF001112400
:101EE000ED5AFC4F9385917161F0842F827449F013
:101EF00080E0DF91CF911F91FF90EF90DF90CF9026
:101F00000895142F6A8B8091000290910102A09194
:101F10000202B09103028E879F87A88BB98BC48879
:101F2000D588F12CE12C7601DD24CC24CF8AD88E03
:101F3000E98EFA8E828D938DB0E0A0E0AC01BD01F8
:101F40004C295D296E297F294F8B588F698F7A8F95
:101F500083858871B1F4848D958DA68DB78D8B8B1B
:101F60009C8BAD8BBE8B81E08D831F701C831E828A
:101F70001F82188619861A861B861C861D8681E09C
:101F8000B8CF803109F0B4CF9E012D5E3F4F8B8DCD
:101F90009C8D0E94A708882309F4AACF84E0E4CF8F
:101FA000CF93DF93EC0160E08E810E94C20161E07B
:101FB0008E810E94C20160E08E810E94C2018BE886
:101FC00091E00197F1F7DF91CF910895CF92DF92E1
:101FD000EF92FF920F931F93CF93DF936C017C01DD
:101FE00087E0E80EF11CD0E0C0E0062F10E0B80159
:101FF0000C2E02C0759567950A94E2F76170F7019F
:1020000081917F010E94C2012196C430D10579F7E8
:10201000C601DF91CF911F910F91FF90EF90DF905C
:10202000CF900C94D00FCF92DF92EF92FF920F934C
:102030001F93CF93DF93EC01F62E642F8C810E94C7
:10204000C2018D818F3F19F060E00E94C2010F2D07
:1020500010E08F8584FF25C06E0187E0C80ED11C7B
:10206000F12CE12CB8010E2C02C0759567950A94ED
:10207000E2F76170F60181916F010E94C201FFEFEA
:10208000EF1AFF0A88E0E816F10461F7CE01DF914C
:10209000CF911F910F91FF90EF90DF90CF900C9414
:1020A000D00FB80184E0759567958A95E1F7CE0168
:1020B0000E94E60F6F2DCE01DF91CF911F910F91FE
:1020C000FF90EF90DF90CF900C94E60F40E0682FE8
:1020D0008DE396E00C94131081E00E9466108BE370
:1020E0009FE10197F1F70895CF93DF93823029F4B0
:1020F00090914C06986090934C06809350061092F5
:10210000510680E48093520680E18093530680E577
:1021100080935406809141060E947B018091420683
:102120008F3F11F00E947B01809143060E947B014A
:10213000CDE3D6E09E012D53364080914C0684FDC0
:102140000AC084E090E02196281739073CF48E817C
:102150000E947B01EFCF88E090E0F5CF8BE39DE01C
:102160000197F1F760E0809141060E94C20160E0B2
:10217000809143060E94C201809142068F3F19F070
:1021800060E00E94C20180914C0684FD34C063E08F
:102190008DE396E00E94E60FCBE4D6E4CE010197F2
:1021A000F1F763E08DE396E00E94E60F2197F1F7E7
:1021B00063E08DE396E00E94E60F83E592E00197ED
:1021C000F1F762E08DE396E00E94E60F80914C0605
:1021D00080620E94661084E080934D068CE00E942D
:1021E00066100E946C1082E080934E0686E0DF91BC
:1021F000CF910C94661080620E9466108BE496E486
:102200000197F1F780914C0680620E94661083E589
:1022100092E00197F1F780914C0680620E9466106F
:10222000D5CF90915006891710F08FEF890FE82FC6
:10223000F0E0E35CF94F848980680C94661041E01B
:102240000E94131081E090E00895FB0101900020AE
:10225000E9F73197AF01461B570BDC01ED91FC917B
:102260000280F381E02D19948F929F92AF92BF92DA
:10227000EF92FF920F931F93CF93DF93CDB7DEB70B
:10228000A1970FB6F894DEBF0FBECDBF7C01FA0157
:10229000CB0119A2223008F42AE08E010F5D1F4FF6
:1022A000822E912CB12CA12CBF01A50194010E947A
:1022B000D31BF901CA016A300CF5605DD8016E9339
:1022C0008D01232B242B252B79F790E080E01097AC
:1022D00021F0BD01C7010E942511A1960FB6F89407
:1022E000DEBF0FBECDBFDF91CF911F910F91FF9049
:1022F000EF90BF90AF909F908F900895695CDECF74
:102300008F929F92AF92BF92CF92DF92EF92FF9205
:102310000F931F93CF93DF93EC016A017B01AB0115
:102320009601CB01B6010E94CE1B67E472E08111D9
:1023300026C046015701E894B7F82FEF3FEF4FE76B
:102340005FE7C501B4010E94CE1B81110CC02FEFC5
:102350003FEF4FE75FE7C501B4010E94041A6BE449
:1023600072E0181664F02FEF3FEF4FE75FE4C7010C
:10237000B6010E945C1B18168CF46FE472E0CE016B
:10238000DF91CF911F910F91FF90EF90DF90CF9051
:10239000BF90AF909F908F900C9425112FEF3FEF3F
:1023A0004FE75FECC701B6010E94041A87FDE5CF35
:1023B00020E030E0A901C701B6010E94041A10E034
:1023C00000E087FF0DC0E881F9810190F081E02DE8
:1023D0006DE2CE0119958C01F7FAF094F7F8F094BC
:1023E0002AE037ED43EA5BE3C701B6010E94981982
:1023F0004B015C010E947B1A6B017C010E94AA1AAE
:102400009B01AC01C501B4010E9497194B015C010D
:102410002AE0B701A601CE010E943411080F191F4E
:10242000E881F9810190F081E02D6EE2CE011995ED
:10243000080F191F20E030E040E251E4C501B4016B
:102440000E94611B4B015C010E947B1A6B01F12C05
:10245000E12C2AE0B701A601CE010E943411080F39
:10246000191FC701B6010E94AA1A9B01AC01C50140
:10247000B4010E94971920E030E040E251E40E944C
:10248000611B0E947B1AAB0170E060E02AE0CE0184
:102490000E943411800F911FDF91CF911F910F91F6
:1024A000FF90EF90DF90CF90BF90AF909F908F9074
:1024B00008950F931F93CF93DF93EC010E94251192
:1024C0008C0163E572E0CE010E942511800F911FFF
:1024D000DF91CF911F910F9108950C9425113F9298
:1024E0004F925F926F927F928F929F92AF92BF9224
:1024F000CF92DF92EF92FF920F931F93CF93DF93D0
:1025000000D000D000D01F921F92CDB7DEB77C0163
:10251000FE013196CE010C966F0130E23193E8173F
:10252000F907E1F7DA0130E087E09D91B92E9923B0
:1025300009F43CC09E32F1F48A30C9F480E02B9655
:102540000FB6F894DEBF0FBECDBFDF91CF911F91C4
:102550000F91FF90EF90DF90CF90BF90AF909F9042
:102560008F907F906F905F904F903F90089538E0EC
:102570008AE0DBCFE8E7F1E04491442321F0319693
:102580009413FACFDBCF8317C8F24FED490F4E35C6
:10259000A8F64FE9490F4A3118F440EEB42EB90EAF
:1025A000F601E30FF11DB0823F5FBFCF898180321A
:1025B00029F2322E8B01DB015B968D919C915C9709
:1025C000F701948F838F16961D921D921D921C9277
:1025D0001997FB011286138614861586F8018285E9
:1025E0009385A485B585438954896589768984173F
:1025F0009507A607B70708F04DC025E0B695A79543
:10260000979587952A95D1F7F82FFF70AF2ED801AF
:1026100015968C91823008F491CFC8010E94130E58
:1026200097FD8CCFF80182859385A485B5854F965B
:10263000A11DB11D82879387A487B587F0E2AF9E65
:10264000B00111246D5A7C4F6115710509F476CFE4
:10265000DB018C91882341F0853E09F062C0BB20EC
:1026600029F0BB24B394BACFB1100EC0F701A28AEF
:102670008091000290910102A0910202B0910302A8
:1026800086879787A08BB18BDB018C918111E9CF75
:10269000BB24B394832D8271823109F04FCFBB20CC
:1026A00009F44DC0F701668577858089918941E0FD
:1026B0000E941106882309F441CFD70152968C91CC
:1026C000B0E28B9FC00111248D5A9C4F009709F4F2
:1026D00035CFFC013A9626E1DF011D922A95E9F7F4
:1026E0002BE0F601DC0101900D922A95E1F721E241
:1026F00038E2FC01318B208B40E058E05787468759
:10270000338B228B318F208F578B468B81E00E9439
:10271000E605882309F412CF432DD70152966C9118
:102720000AC04BE050E0C6010E943C1D892B09F015
:1027300055CF432D6A2DC7010E94640F00CFF801C9
:102740008581823009F4FACEC8010E94FA098823F3
:1027500009F4F4CED8015B96ED91FC915C97169646
:102760008D909D90AD90BC901997B2E08B1A910816
:10277000A108B108858504C0880C991CAA1CBB1C43
:102780008A95D2F786859785A089B189880E991E8A
:10279000AA1EBB1E848124013501480E511C611CF8
:1027A000711C84149504A604B70409F1E1E04E1AE3
:1027B00051086108710881E00E94E605882309F448
:1027C000BDCEE3E5F3E0119283E595E08E179F0718
:1027D000D1F7409200025092010260920202709280
:1027E000030280914003816080934003DACFD801D7
:1027F0005B96ED91FC91258580E092E0A0E0B0E051
:1028000004C0880F991FAA1FBB1F2A95D2F7F80191
:102810004389548965897689840F951FA61FB71F40
:10282000838B948BA58BB68BD70152961C9283E534
:1028300093E04FCFEF92FF920F931F93CF93DF93CD
:10284000EC017B018A011B821A8288EE93E0A0E0F2
:10285000B0E08C839D83AE83BF838FE092E0998349
:1028600088838DE190E00E94171C9A8F898F0097D2
:1028700079F02DE1F701DC0101900D922A95E1F745
:102880004CE050E0B801CE010C960E94491D188E14
:10289000DF91CF911F910F91FF90EF9008951F92BC
:1028A0000F920FB60F9211242F933F938F939F9304
:1028B000AF93BF9380914B0390914C03A0914D0334
:1028C000B0914E0330914A0323E0230F2D3758F582
:1028D0000196A11DB11D20934A0380934B03909351
:1028E0004C03A0934D03B0934E0380914F039091FE
:1028F0005003A0915103B09152030196A11DB11D47
:1029000080934F0390935003A0935103B0935203CD
:10291000BF91AF919F918F913F912F910F900FBEDB
:102920000F901F90189526E8230F0296A11DB11D48
:10293000D2CF1F920F920FB60F9211240BB60F92A7
:102940002F933F934F935F936F937F938F939F93B7
:10295000AF93BF93EF93FF9385E595E00E94460305
:10296000FF91EF91BF91AF919F918F917F916F9167
:102970005F914F913F912F910F900BBE0F900FBE23
:102980000F901F9018951F920F920FB60F9211245F
:102990000BB60F922F938F939F93EF93FF93E0913A
:1029A0006505F09166058081E0916B05F0916C05FD
:1029B00082FD1DC0908180916E058F5F8F73209185
:1029C0006F05821741F0E0916E05F0E0EB5AFA4F87
:1029D000958F80936E05FF91EF919F918F912F912D
:1029E0000F900BBE0F900FBE0F901F901895808117
:1029F000F2CFE5E5F5E01382128288EE93E0A0E0E5
:102A0000B0E084839583A683B78381E292E09183CB
:102A1000808385EC90E09587848784EC90E09787AD
:102A2000868780EC90E0918B808B81EC90E0938B9B
:102A3000828B82EC90E0958B848B86EC90E0978B78
:102A4000868B118E128E138E148EE2EFF5E080E5E8
:102A500080831182E4EFF5E01582168211861386D9
:102A600082E090E0A0E0B0E084879587A687B787F2
:102A700013A215A614A683E392E093A782A717A634
:102A8000EDE3F6E0138212828FE392E0918380837C
:102A90008CE084838FEF85838BE0868385E087835A
:102AA00084E0808783E0818782E0828713861486B2
:102AB00015861686178681E00C947410CF93DF93E9
:102AC000CDB7DEB7CA57D1090FB6F894DEBF0FBE37
:102AD000CDBF789484B5826084BD84B5816084BDA7
:102AE00085B5826085BD85B5816085BD80916E00AC
:102AF000816080936E0010928100809181008260DD
:102B00008093810080918100816080938100809119
:102B100080008160809380008091B1008460809308
:102B2000B1008091B00081608093B00080919100ED
:102B300082608093910080919100816080939100E8
:102B4000809190008160809390008091A1008260CC
:102B50008093A1008091A10081608093A100809169
:102B6000A00081608093A000809121018260809309
:102B700021018091210181608093210180912001B8
:102B800081608093200180917A00846080937A0034
:102B900080917A00826080937A0080917A008160CF
:102BA00080937A0080917A00806880937A001092F6
:102BB000C1000E949A0182E00E94741066E572E0F2
:102BC0008DE396E00E946D120E9490020E946C10AC
:102BD0000E949A0182E00E94741066E572E08DE323
:102BE00096E00E946D120E9490020E946C108091EB
:102BF0002306882321F08EE196E00E949E0B10921E
:102C0000FF051092FD051092FA051092F90584E077
:102C10008093F8050E94C6028B018091F8050E94FE
:102C20007B0161E08091F8050E94C201FFB6F89433
:102C300080914503811124C0E7E3F2E08491EDE740
:102C4000F2E09491E82FF0E0EE0FFF1FE851FE4F05
:102C5000A591B491EC91E92321F461E085E30E9410
:102C6000C20185E30E947B018CB580618CBD8CB56F
:102C700080648CBD84E30E947B0183E30E947B011E
:102C8000809145038F5F80934503FFBE82E580936B
:102C9000F2051092F3058091F2059091F3050E94E0
:102CA0003C043AE0F32E8FEF0E941704FA94F110DF
:102CB000FACF84EF95E00E943F0420E030E0A901C4
:102CC00060E084EF95E00E945504F82E8093FE05A5
:102CD00021E08217D9F00E94C602601B710B613D92
:102CE000774058F381E08093F90584EF95E00E94E6
:102CF0000C0467E872E085E595E00E94591266EAE7
:102D000072E08DE396E00E946D128AC02AEA31E0FB
:102D100040E050E068E084EF95E00E94550482FFB7
:102D20002AC0F092FF058091FF05C12CD12C7601BD
:102D3000823029F4C12CD12CE12C90E4F92E20E032
:102D400030E0A90167E384EF95E00E945504A701F4
:102D5000960169E284EF95E00E9455048093FE0598
:102D60008823D1F00E94C602601B710B613D774041
:102D700030F388E0B8CF24E0F22E0E941E04809346
:102D8000FE05FA94F110F9CF8A3A11F082E0ABCF48
:102D900082E08093FF05C7CF8091FF058230D1F498
:102DA00020E030E0A9016AE384EF95E00E94550439
:102DB000882311F086E097CF0E941E04807C803C1F
:102DC00019F483E08093FF050E941E040E941E04F4
:102DD0000E941E0484EF95E00E940C0480E580931D
:102DE000F2051092F30581E00E945B06882309F446
:102DF0001BC28EE196E00E941209882309F479CF64
:102E000062E672E085E595E00E94591267E772E09C
:102E10008DE396E00E946D120E9490020E946C1059
:102E200003E312E08FE0282E82E0382E86E30E9432
:102E30004E029250BC01990F880B990B0E94AC1A5C
:102E400020E030E040EA5BE30E94611B20E030E0DC
:102E500040EF51E40E94091A6B017C0120E030E050
:102E6000A9010E945C1B181624F0F7FAF094F7F8F9
:102E7000F09487E30E944E02BC01990F880B990BD6
:102E80000E94AC1A20E030E040EA5BE30E94611B44
:102E90002FE832E44AE653E40E94611B4B015C01D7
:102EA000A70196010E94611B2B013C010E94C602F2
:102EB000EB966CAF7DAF8EAF9FAFEB9780914603E3
:102EC00090914703A0914803B0914903EB962CAD34
:102ED0003DAD4EAD5FADEB97281B390B4A0B5B0B3D
:102EE000203D37404105510598F1EB962CAD3DADA5
:102EF0004EAD5FADEB97209346033093470340936D
:102F00004803509349030E946C1080910402882367
:102F100009F491C180E00E94111165EB72E08DE32C
:102F200096E00E946D1281E00E941111B301A2018E
:102F30008DE396E00E9480116CEB72E08DE396E0E9
:102F40000E946D128091040231E083278093040275
:102F500065EF72E085E595E00E946D12B701A6016C
:102F600085E595E00E94801167ED72E085E595E0CA
:102F70000E946D12B501A40185E595E00E948011C3
:102F800065EE72E085E595E00E946D12B301A20145
:102F900085E595E00E9480116CEB72E085E595E097
:102FA0000E94591286E30E944E029250BC01990F72
:102FB000880B990B0E94AC1A20E030E040EA5BE3FA
:102FC0000E94611B20E030E040EF51E40E94091AAA
:102FD0006B017C0120E030E0A9010E945C1B181607
:102FE00024F0F7FAF094F7F8F09487E30E944E0289
:102FF000BC01990F880B990B0E94AC1A20E030E0BD
:1030000040EA5BE30E94611B2FE832E44AE653E4A6
:103010000E94611B4B015C01A70196010E94611B8C
:103020002B013C011C821B821A8309831E82CE0164
:1030300001960E941209BE016F5F7F4FCE01CB96B1
:103040000E94570D19A218A21F8F0E8F1BA2219646
:103050008FAD2197811116C16C961FAE1EAE6C9775
:1030600088EE93E0A0E0B0E0A0968CAF9DAFAEAF4D
:10307000BFAFA0976A963FAE2EAE6A97E3961FAE9B
:103080001EAEE397A5961FAEA597E396EEADFFADF6
:10309000E397309709F421C18581882309F41DC184
:1030A0006BED72E0CE01885A9F4F0E946D12B50100
:1030B000A401CE01885A9F4F0E94801161EF72E0F7
:1030C000CE01885A9F4F0E946D12B701A601CE0112
:1030D000885A9F4F0E9480116FEF72E0CE01885A8C
:1030E0009F4F0E946D12B301A201CE01885A9F4FDB
:1030F0000E9480116CEB72E0CE01885A9F4F0E94B3
:103100005912E3968EAD9FADE397009761F00E9450
:103110009E0BE3968EAD9FADE3970E94B31CE396A2
:103120001FAE1EAEE3976BE073E085E595E00E946D
:1031300059120E94C602EB966CAF7DAF8EAF9FAF67
:10314000EB972091460330914703409148035091FB
:103150004903DC01CB01821B930BA40BB50B803D13
:103160009740A105B10598F1EB968CAD9DADAEAD44
:10317000BFADEB978093460390934703A09348031A
:10318000B09349030E946C1080910402882309F4D3
:10319000A7C080E00E94111165EB72E08DE396E01C
:1031A0000E946D1281E00E941111B301A2018DE312
:1031B00096E00E9480116CEB72E08DE396E00E9435
:1031C0006D128091040291E089278093040265EFDB
:1031D00072E085E595E00E946D12B701A60185E5D4
:1031E00095E00E94801167ED72E085E595E00E9410
:1031F0006D12B501A40185E595E00E94801165EE90
:1032000072E085E595E00E946D12B301A20185E5AB
:1032100095E00E9480116CEB72E085E595E00E94DC
:1032200059120E94D50302CE80E00E945B068823DB
:1032300009F45FCDDECD80E00E9411116FEB72E0EA
:103240008DE396E00E946D12B501A4018DE396E036
:103250000E94801168EC72E08DE396E00E946D128E
:1032600081E00E9411116BEC72E08DE396E00E9408
:103270006D12B701A6018DE396E00E94801164ED06
:1032800072E05CCE27E141E353E0BE01655C7F4F15
:10329000CE014E960E946F12882309F4DDCECE0136
:1032A000CB960E949E0B49A95AA96BA97CA9CE0175
:1032B0004E960E946609BE01625E7F4FCE01019666
:1032C0000E94570D41E353E0BE016F5F7F4FCE0177
:1032D000885A9F4F0E941A14D8CE63E273E025CF1C
:1032E00080E00E9411116FEB72E08DE396E00E9486
:1032F0006D12B501A4018DE396E00E94801168EC87
:1033000072E08DE396E00E946D1281E00E9411113F
:103310006BEC72E08DE396E00E946D12B701A6019E
:103320008DE396E00E94801164ED72E046CF505824
:10333000BB27AA270E94AF190C94221B0E94141BC2
:1033400038F00E941B1B20F039F49F3F19F426F43B
:103350000C94111B0EF4E095E7FB0C940B1BE92F6A
:103360000E94331B58F3BA17620773078407950747
:1033700020F079F4A6F50C94551B0EF4E0950B2E75
:10338000BA2FA02D0B01B90190010C01CA01A001B7
:103390001124FF27591B99F0593F50F4503E68F112
:1033A0001A16F040A22F232F342F4427585FF3CF53
:1033B000469537952795A795F0405395C9F77EF424
:1033C0001F16BA0B620B730B840BBAF09150A1F06D
:1033D000FF0FBB1F661F771F881FC2F70EC0BA0FF3
:1033E000621F731F841F48F4879577956795B7957B
:1033F000F7959E3F08F0B0CF9395880F08F0992776
:10340000EE0F9795879508950E94E71A08F481E0DA
:1034100008950E941D1A0C94221B0E941B1B58F039
:103420000E94141B40F029F45F3F29F00C940B1B01
:1034300051110C94561B0C94111B0E94331B68F302
:103440009923B1F3552391F3951B550BBB27AA275D
:1034500062177307840738F09F5F5F4F220F331F97
:10346000441FAA1FA9F335D00E2E3AF0E0E832D05F
:1034700091505040E695001CCAF72BD0FE2F29D062
:10348000660F771F881FBB1F261737074807AB0734
:10349000B0E809F0BB0B802DBF01FF2793585F4FA9
:1034A0003AF09E3F510578F00C940B1B0C94561B80
:1034B0005F3FE4F3983ED4F3869577956795B7958B
:1034C000F7959F5FC9F7880F911D9695879597F996
:1034D0000895E1E0660F771F881FBB1F621773070F
:1034E0008407BA0720F0621B730B840BBA0BEE1F24
:1034F00088F7E09508950E943B1B88F09F5798F04D
:10350000B92F9927B751B0F0E1F0660F771F881FE8
:10351000991F1AF0BA95C9F714C0B13091F00E9402
:10352000551BB1E008950C94551B672F782F882701
:10353000B85F39F0B93FCCF3869577956795B39529
:10354000D9F73EF490958095709561957F4F8F4F98
:103550009F4F0895E89409C097FB3EF4909580959D
:10356000709561957F4F8F4F9F4F9923A9F0F92F49
:1035700096E9BB279395F695879577956795B795C7
:10358000F111F8CFFAF4BB0F11F460FF1BC06F5FAD
:103590007F4F8F4F9F4F16C0882311F096E911C0BF
:1035A000772321F09EE8872F762F05C0662371F0E0
:1035B00096E8862F70E060E02AF09A95660F771FF4
:1035C000881FDAF7880F9695879597F90895990FD0
:1035D0000008550FAA0BE0E8FEEF16161706E807DD
:1035E000F907C0F012161306E407F50798F0621BFE
:1035F000730B840B950B39F40A2661F0232B242BD3
:10360000252B21F408950A2609F4A140A6958FEFF1
:10361000811D811D089597F99F6780E870E060E043
:1036200008959FEF80EC089500240A94161617065B
:1036300018060906089500240A94121613061406A3
:1036400005060895092E0394000C11F4882352F006
:10365000BB0F40F4BF2B11F460FF04C06F5F7F4FBE
:103660008F4F9F4F089557FD9058440F551F59F0A5
:103670005F3F71F04795880F97FB991F61F09F3F5F
:1036800079F087950895121613061406551FF2CF88
:103690004695F1DF08C0161617061806991FF1CFD8
:1036A00086957105610508940895E894BB276627FF
:1036B0007727CB0197F908950E94E71A08F48FEF56
:1036C00008950E94741B0C94221B0E94141B38F056
:1036D0000E941B1B20F0952311F00C940B1B0C94E3
:1036E000111B11240C94561B0E94331B70F3959FE1
:1036F000C1F3950F50E0551F629FF001729FBB27E9
:10370000F00DB11D639FAA27F00DB11DAA1F649F84
:103710006627B00DA11D661F829F2227B00DA11D37
:10372000621F739FB00DA11D621F839FA00D611DBD
:10373000221F749F3327A00D611D231F849F600DDE
:10374000211D822F762F6A2F11249F5750409AF007
:10375000F1F088234AF0EE0FFF1FBB1F661F771F93
:10376000881F91505040A9F79E3F510580F00C945E
:103770000B1B0C94561B5F3FE4F3983ED4F38695E5
:1037800077956795B795F795E7959F5FC1F7FE2BFE
:10379000880F911D9695879597F908950E94E71ACD
:1037A000880B990B0895A1E21A2EAA1BBB1BFD01E1
:1037B0000DC0AA1FBB1FEE1FFF1FA217B307E40710
:1037C000F50720F0A21BB30BE40BF50B661F771F68
:1037D000881F991F1A9469F7609570958095909548
:1037E0009B01AC01BD01CF010895EE0FFF1F881FA3
:1037F0008BBF0790F691E02D19940E94081CA59F9D
:10380000900DB49F900DA49F800D911D11240895DB
:10381000A29FB001B39FC001A39F700D811D112411
:10382000911DB29F700D811D1124911D08950F935C
:103830001F93CF93DF938230910510F482E090E0E4
:10384000E0915706F091580630E020E0B0E0A0E0AB
:10385000309799F42115310509F44AC0281B390B1A
:1038600024303105D8F58A819B816115710589F174
:10387000FB0193838283FE0111C04081518102814B
:10388000138148175907E0F04817590799F4109722
:1038900061F012960C93129713961C933296CF01F7
:1038A000DF91CF911F910F910895009357061093C8
:1038B0005806F4CF2115310551F04217530738F05F
:1038C000A901DB019A01BD01DF01F801C1CFEF01C0
:1038D000F9CF9093580680935706CDCFFE01E20FA3
:1038E000F31F819391932250310939832883D7CFD5
:1038F0002091550630915606232B41F42091070262
:103900003091080230935606209355062091050207
:10391000309106022115310541F42DB73EB7409193
:10392000090250910A02241B350BE0915506F091D3
:103930005606E217F307A0F42E1B3F0B2817390792
:1039400078F0AC014E5F5F4F2417350748F04E0FFB
:103950005F1F5093560640935506819391939FCFD6
:10396000F0E0E0E09CCFCF93DF930097E9F0FC011B
:10397000329713821282A0915706B0915806ED013A
:1039800030E020E01097A1F420813181820F931F55
:1039900020915506309156062817390709F061C065
:1039A000F0935606E0935506DF91CF910895EA0112
:1039B000CE17DF07E8F54A815B819E01411551056D
:1039C000B1F7E901FB83EA8349915991C40FD51FEF
:1039D000EC17FD0761F4808191810296840F951F99
:1039E000E90199838883828193819B838A83F0E0B4
:1039F000E0E012968D919C9113970097B9F52D9167
:103A00003C911197CD010296820F931F209155068C
:103A1000309156062817390739F6309751F510922C
:103A2000580610925706B0935606A0935506BCCF81
:103A3000D383C28340815181840F951FC817D90752
:103A400061F44E5F5F4F88819981480F591F518300
:103A500040838A819B81938382832115310509F0FC
:103A6000B0CFF0935806E09357069ECFFD01DC01DE
:103A7000C0CF13821282D7CFFB01DC0104C08D912D
:103A80000190801921F441505040C8F7881B990BD0
:103A90000895FB01DC014150504048F001900D9227
:103AA0000020C9F701C01D9241505040E0F7089531
:043AB000F894FFCFB8
:103AB400FFFFFFFF0100005906800000000000FD29
:103AC4000DE00DD00DA70DB00D320F3C0F0000001E
:103AD400006803D202FF02B50330030E0322030081
:103AE400000000460DD202400B600F000000001FD2
:103AF40011D202610F600F6E616E00696E66006F15
:103B04007666000D0A00506F776572204D65746506
:103B140072005344206361726420696E6974696140
:103B24006C697A65642E00534420496E697420538D
:103B34007563636573730053442063617264206921
:103B44006E697469616C697A6174696F6E2066610B
:103B5400696C65642100534420496E697420466190
:103B6400696C656400506F7765723A00205700569F
:103B74006F6C746167653A00205600437572726514
:103B84006E743A0020410020412C20566F6C746101
:103B940067653A200020562C20506F7765723A20D2
:103BA4000020562C2043757272656E743A200020F2
:103BB400412C20506F7765723A2000446174612073
:103BC4006C6F6767656420746F205344206361726F
:103BD400642E004572726F72206F70656E696E6735
:0E3BE40020646174616C6F672E747874000049
:00000001FF
