:100000000C9462010C9493010C9493010C94930151
:100010000C9493010C9493010C9493010C94930110
:100020000C9493010C946C160C946C160C946C1636
:100030000C9493010C9493010C9493010C949301F0
:100040000C9493010C9493010C9493010C949301E0
:100050000C9493010C9493010C9493010C94C2158D
:100060000C9493010C9436160C940C160C9493017A
:100070000C9493010C9493010C9493010C949301B0
:100080000C9493010C9493010C9493010C949301A0
:100090000C9493010C9493010C9493010C94930190
:1000A0000C9493010C9493010C9493010C94930180
:1000B0000C9493010C9493010C9493010C94930170
:1000C0000C9493010C9493010C9493010C94930160
:1000D0000C9493010C9493010C9493010C94930150
:1000E0000C9493010C942C030C94AD0E0C94E60E1E
:1000F0000C9442100C9467100C9413020C94291D5C
:100100000C9431020C9479040C947C030C94F2014D
:100110000C94030F0C9460040C9459030C94661017
:100120000C941D020C9404020C9408020C944C0EC6
:100130000C940C020C9478040C94D60E0C94EB04E2
:100140000C9438100C94ED010C9439020C94350287
:100150000C9419020C940F040C9427020C9468035D
:100160000C94460C0C9423020C948A030C941002F9
:100170000C94D5040C942B020C94B60E0C943F02F4
:100180000C94E8160C9429120C9443020C94C203AC
:100190007C3C3E5E2B3D3F2F5B5D3B2C2A225C006E
:1001A00000002100240027002A002D003000330029
:1001B00001010000040107010A0100000A0B020905
:1001C0000C0D0E08070304010000000000000000F1
:1001D000000000000000000000000000000000001F
:1001E00000000000000012111000000000000000DC
:1001F00000000000000000000000000000000000FF
:10020000000020002300260029002C002F003200CF
:100210000001000003010601090100002200250081
:1002200028002B002E0031003400020100000501DF
:1002300008010B0105050505070508080808020265
:1002400002020A0A08080404040401010101010170
:1002500001010303030303030303040707070C0C53
:100260000C0C0C0C0C0C020202020606060606061A
:1002700006060B0B0B0B0B0B0B0B010210202008BF
:1002800008102040102040800201020108040201F1
:100290000102040810204080804020100804020160
:1002A00080040201804020100804020108040201B9
:1002B0000102040810204080010204081020408040
:1002C000E816291D11241FBECFEFD1E2DEBFCDBF3E
:1002D00000E00CBF13E0A0E0B2E0E0E3F2E400E0F5
:1002E0000BBF02C007900D92A038B107D9F726E0E6
:1002F000A0E8B3E001C01D92AE3FB207E1F711E004
:10030000C1E6D1E000E006C021970109802FFE017F
:100310000E94A31FC036D10780E00807A9F70E94FA
:10032000F0170C9406210C940000EBEDF5E0A08989
:10033000B18982E08C93A485B5851C92A685B7858A
:100340008FEC8C93108EA489B58986E08C93A2895A
:10035000B3898C9180618C93A289B3898C918860D8
:100360008C93A289B3898C9180688C930288F389DD
:10037000E02D80818F7D80830895282F30E0F90162
:10038000E654FE4F9491F901E658FD4F44912C5CE0
:100390003D4FF9012491222309F435C0992311F12D
:1003A00091509231F8F4E92FF0E08827E552FE4FA2
:1003B0008F4F0C94A31F0C021002ED0104020802DF
:1003C000F201130219021D02230227022B0231023D
:1003D0003502F20139023F024302809180008F779B
:1003E00080938000E22FF0E0EE0FFF1FE65EFD4FEE
:1003F000A591B4918FB7F894EC91611148C04095E4
:100400004E234C938FBF0895809180008F7DE8CF5D
:1004100080918000877FE4CF84B58F7784BDE2CF61
:1004200084B58F7DFBCF8091B0008F778093B00033
:10043000D9CF8091B0008F7DF9CF809190008F77D8
:1004400080939000CFCF809190008F7DF9CF8091E5
:100450009000877FF5CF8091A0008F778093A000D8
:10046000C1CF8091A0008F7DF9CF8091A000877FC0
:10047000F5CF809120018F7780932001B3CF8091B9
:1004800020018F7DF9CF80912001877FF5CF4E2B02
:10049000B8CFCF93DF9390E0FC01E658FD4F249155
:1004A0008C5C9D4FFC0184918823D1F090E0880FF3
:1004B000991FFC01E056FE4FA591B491FC01E65E48
:1004C000FD4FC591D49161110EC09FB7F8948C91E6
:1004D000E22FE0958E238C932881E223E8839FBF4F
:1004E000DF91CF9108958FB7F894EC91E22BEC93C4
:1004F0008FBFF6CF863308F0865320917B00982F6C
:100500009870277F922B90937B00877080648093F4
:100510007C0080917A00806480937A0080917A00D8
:1005200086FDFCCF80917800909179000895CF925C
:10053000DF92EF92FF9286E30E947A029250BC0112
:10054000990F880B990B0E945A1E20E030E040EA78
:100550005BE30E940F1F20E030E040EF51E40E9477
:10056000B71D6B017C0120E030E0A9010E940A1F49
:10057000181624F0F7FAF094F7F8F094C701B601D2
:10058000FF90EF90DF90CF9008953FB7F89480915F
:10059000D5039091D603A091D703B091D80326B587
:1005A000A89B05C02F3F19F00196A11DB11D3FBFAB
:1005B000BA2FA92F982F8827BC01CD01620F711D7A
:1005C000811D911D42E0660F771F881F991F4A9574
:1005D000D1F708958F929F92AF92BF92CF92DF9200
:1005E000EF92FF920E94C5024B015C0180EDC82E84
:1005F00087E0D82EE12CF12C0E94C50268197909F8
:100600008A099B09683E734081059105A8F321E0A2
:10061000C21AD108E108F10888EE880E83E0981E1E
:10062000A11CB11CC114D104E104F10429F7FF900D
:10063000EF90DF90CF90BF90AF909F908F900895F4
:100640002FB7F8946091D1037091D2038091D303B6
:100650009091D4032FBF0895AF92BF92CF92DF92B3
:10066000EF92FF920F931F93CF93DF936C017B0167
:100670008B01040F151FEB015E01AE18BF08C017F8
:10068000D10759F06991D601ED91FC910190F0816B
:10069000E02DC6011995892B79F7C501DF91CF911E
:1006A0001F910F91FF90EF90DF90CF90BF90AF9090
:1006B0000895FC01538D448D252F30E0842F90E068
:1006C000821B930B541710F0CF960895019708954D
:1006D000FC01918D828D981761F0A28DAE0FBF2F16
:1006E000B11D5D968C91928D9F5F9F73928F90E06C
:1006F00008958FEF9FEF0895FC01918D828D9817DB
:1007000031F0828DE80FF11D858D90E008958FEF17
:100710009FEF0895FC01918D228D892F90E0805CE0
:100720009F4F821B91098F73992708958BED95E058
:100730000E948A0321E0892B09F420E0822F08958A
:10074000FC01A48DA80FB92FB11DA35ABF4F2C9146
:10075000848D90E001968F739927848FA689B7893D
:100760002C93A089B1898C91837080648C93938D34
:10077000848D981306C00288F389E02D80818F7DD7
:1007800080830895EF92FF920F931F93CF93DF938F
:10079000EC0181E0888F9B8D8C8D98131AC0E889BD
:1007A000F989808185FF15C09FB7F894EE89FF898C
:1007B0006083E889F98980818370806480839FBF2A
:1007C00081E090E0DF91CF911F910F91FF90EF902A
:1007D0000895F62E0B8D10E00F5F1F4F0F7311273A
:1007E000E02E8C8D8E110CC00FB607FCFACFE88975
:1007F000F989808185FFF5CFCE010E94A003F1CF5A
:10080000EB8DEC0FFD2FF11DE35AFF4FF0829FB7E8
:10081000F8940B8FEA89FB8980818062CFCFCF93D8
:10082000DF93EC01888D8823B9F0AA89BB89E88918
:10083000F9898C9185FD03C0808186FD0DC00FB6BE
:1008400007FCF7CF8C9185FFF2CF808185FFEDCF3C
:10085000CE010E94A003E9CFDF91CF91089580E0FF
:1008600090E0892B29F00E94960381110E940000DC
:1008700080E090E0892B49F080E090E0892B29F01E
:100880000E94000081110E94000080E090E0892B0E
:1008900049F080E090E0892B29F00E94000081114E
:1008A0000E94000080E090E0892B49F080E090E019
:1008B000892B29F00E94000081110C9400000895FA
:1008C0002091CA033091CB032817390771F4909116
:1008D000C8038091C903981741F0E091C803F0E084
:1008E000E957FC4F808190E008958FEF9FEF0895C6
:1008F0000895EF92FF920F931F93CF93DF93DC0144
:100900005C96ED90FC905D97E114F10479F481E040
:1009100090E013969C938E93129790E080E0DF9185
:10092000CF911F910F91FF90EF9008955196ED9107
:10093000FC91529750968C915097982F90950FB7A5
:100940005E962C915E97122F127021FD6095F8949F
:100950002081112319F1282B2083E7012197F1F73A
:1009600028E0462F50E0308160FF1AC0382B3083DA
:10097000E7012197F1F7BA0175956795215089F73D
:10098000112381F08081892380830FBF5C968D9134
:100990009C910197F1F781E090E0C1CF2923DCCF52
:1009A0003923E5CF9081892BEFCF2091CA03309175
:1009B000CB032817390761F48091C9032091C8033C
:1009C00090E0805C9F4F821B91098F739927089557
:1009D00090E080E008952091CA033091CB0328175E
:1009E0003907B9F49091C8038091C903981789F029
:1009F000E091C803F0E0E957FC4F80812091C803E3
:100A000030E02F5F3F4F2F7333272093C80390E0D0
:100A100008958FEF9FEF08958FB7F8948091810329
:100A20008FBF089561E0FC0184810E94BD01809127
:100A3000800381111092800308958EBD00000DB4D3
:100A400007FEFDCF8EB508958FEF0C941D050F9313
:100A50001F93CF93DF93EC010E9420038B010E9430
:100A600024058F3F69F00E942003601B710B6C17F7
:100A70007D07A8F380E0DF91CF911F910F9108953A
:100A800081E0F9CF8CBD9DBD0895CF93DF93EC013C
:100A900080918003811109C081E08093800380915F
:100AA0007806909179060E94420560E08C81DF9182
:100AB000CF910C94BD018F929F92AF92BF92FF9203
:100AC0000F931F93CF93DF93EC01F62E49015A0148
:100AD0008E81882389F08F8198859C012F5F3F4FFD
:100AE00038872F838230924018F40E942405F3CF78
:100AF000CE010E9412051E82CE010E9445058CE2A5
:100B000091E00E9427058F2D80640E941D0508E159
:100B100010E0D501C401002E04C0B695A7959795A5
:100B200087950A94D2F70E941D0508501109083FC5
:100B30008FEF180771F785E9FF2021F028E087E89B
:100B4000F2128FEF0E941D0510E00E9424058A8793
:100B500087FF04C01F3F11F01F5FF7CFDF91CF91D8
:100B60001F910F91FF90BF90AF909F908F9008952D
:100B7000AF92BF92CF92DF92EF92FF920F931F93AB
:100B8000CF93DF93EC016901C801820F931F81307D
:100B9000924050F58E81882379F088819981AA81CD
:100BA000BB8184179507A607B70731F48F81988515
:100BB000C816D90608F042C0488359836A837B83EC
:100BC0008B85833039F089E0440F551F661F771FEE
:100BD0008A95D1F79A01AB0161E1CE010E945B05D4
:100BE000882389F083E08D83CE010E94120580E086
:100BF000DF91CF911F910F91FF90EF90DF90CF90F9
:100C0000BF90AF9008950E9420035B010E942405CD
:100C10008A878F3F69F40E9420036A197B096D322D
:100C20007140A0F38FE08D83CE010E941205DCCFCE
:100C30008E3F89F418861F8281E08E838F8198858C
:100C40008C159D0550F40E9424058F81988501968E
:100C500098878F83F3CF8DE0E6CF6701E00EF11E1A
:100C60000E942405F60181936F01EE15FF05C1F77F
:100C70008F819885080F191F18870F83898588230E
:100C800019F001151240A0F08E81882389F08F8120
:100C900098859C012F5F3F4F38872F838230924089
:100CA00018F40E942405F3CFCE010E9412051E8283
:100CB00081E09ECFCF92DF92EF92FF920F93CF937E
:100CC000DF93EC01690182E1411551056105710570
:100CD00099F08B85833039F089E0440F551F661FEA
:100CE000771F8A95D1F79A01AB0168E1CE010E9486
:100CF0005B05882319F084E08D832DC08EEF0E9460
:100D00001D0576018EEFD81AF70181917F010E94AF
:100D10001D05EC14FD04C1F78FEF0E941D058FEF38
:100D20000E941D050E9424058A878F71853071F409
:100D3000011116C0CE010E94120581E0DF91CF9112
:100D40000F91FF90EF90DF90CF90089581E18D8318
:100D5000CE010E941205CE010E94120580E0EECF66
:100D600088E592E00E942705811102C085E1C4CF89
:100D700020E030E0A9016DE0CE010E945B058823F0
:100D800011F084E1B9CF0E9424058111FACFD2CFAE
:100D90000F93409183035091840360918503709178
:100DA0008603411551056105710599F0082F29ED5C
:100DB00033E08091D9059091DA050E945A06882384
:100DC00049F01092830310928403109285031092CD
:100DD000860381E00F9108950F93CF93C82F8091E0
:100DE0008203811105C0C1E08C2FCF910F9108952E
:100DF0004091000250910102609102027091030241
:100E00000C2F29ED33E08091D9059091DA050E94ED
:100E10005A06811102C0C0E0E7CFCC2321F381E064
:100E20000E94C8068823B9F310928203DDCF8F9207
:100E30009F92AF92BF92EF92FF920F931F93CF9327
:100E40004B015C01C42F8091000290910102A0919E
:100E50000202B091030288159905AA05BB0551F15C
:100E600081E00E94EC0681110BC080E0CF911F91C0
:100E70000F91FF90EF90BF90AF909F908F9008954B
:100E800089EDE82E83E0F82E00E012E030E020E06B
:100E9000B501A4018091D9059091DA050E94B805A9
:100EA000882319F38092000290920102A09202021C
:100EB000B0920302409182034C2B4093820381E065
:100EC000D5CF8F929F92AF92BF92CF92DF92EF9247
:100ED000FF92CF932AE736E03093DA052093D905C5
:100EE000882309F46DC040E060E070E0CB010E940F
:100EF000170781110BC080E0CF91FF90EF90DF903A
:100F0000CF90BF90AF909F908F900895809197055C
:100F10008F7789F78091A3059091A405A091A505ED
:100F2000B091A60584369105A105B10520F3C090C6
:100F30009F05D090A005E090A105F090A205C114F6
:100F4000D104E104F104B9F240E0C701B6010E9406
:100F50001707882381F28091E4039091E5038115BE
:100F6000924049F6A091E903AA2329F26091E70390
:100F70007091E8036115710509F4BDCF2091E60376
:100F8000222309F4B8CFA093980620938A0690E014
:100F900080E030E0E1E0F0E0C82FAF01082E02C0B1
:100FA000440F551F0A94E2F72417350769F041E012
:100FB000480F01968930910579F7409393069BCFAE
:100FC000C12CD12C7601C0CF809393062091EF03E2
:100FD0003091F00350E040E02115310541F42091BB
:100FE000FD033091FE034091FF03509100042093D4
:100FF0008B0630938C0640938D0650938E064601E7
:101000005701860E971EA11CB11C809299069092E2
:101010009A06A0929B06B0929C06E091EA03F0919A
:10102000EB03F0939F06E0939E06B0E00E94AB1F97
:10103000DC01CB01880D991DAA1DBB1D8093A00664
:101040009093A106A093A206B093A30625E0EE0F0D
:10105000FF1F2A95E1F7E150FE4FEF2FFF27E6959E
:101060008E0F9F1FA11DB11D80939406909395062E
:10107000A0939606B09397068090EC039090ED03B2
:10108000B12CA12C8114910441F48090F90390902B
:10109000FA03A090FB03B090FC03C81AD90AEA0A2D
:1010A000FB0AC80CD91CEA1CFB1C04C0F694E7948C
:1010B000D794C794CA95D2F7C0928F06D092900663
:1010C000E0929106F092920685EFC8168FE0D8065E
:1010D000E104F10428F48CE080939D0681E00CCFBC
:1010E00080E125EFC2162FEFD206E104F104A0F350
:1010F0008091050490910604A0910704B091080422
:101100008093A0069093A106A093A206B093A30695
:1011100080E2E2CF4F925F926F927F928F929F9286
:10112000AF92BF92CF92DF92EF92FF920F931F93F5
:10113000CF93DF93EC01423051056105710590F4C6
:1011400080E0DF91CF911F910F91FF90EF90DF90A2
:10115000CF90BF90AF909F908F907F906F905F9057
:101160004F90089589859A85AB85BC850196A11D10
:10117000B11D84179507A607B70710F3CB88DC8845
:10118000ED88FE888F89803109F042C0BB27A72FE8
:10119000962F852F480159012A013B01C80ED91EFF
:1011A000EA1EFB1E8091000290910102A0910202B2
:1011B000B0910302C816D906EA06FB0699F58F8995
:1011C0008031C1F5B301A201552766277727440F67
:1011D000551F47525C4FFA019182808280918203B1
:1011E0008160809382038A89823080F08D819E8124
:1011F000AF81B8858C0D9D1DAE1DBF1D80938303EF
:1012000090938403A0938503B093860381E099CFE4
:10121000DB01CA01E7E0B695A79597958795EA9512
:10122000D1F7B8CF40E0C701B6010E94170781117E
:10123000C6CF86CFB301A2014F7755276627772700
:10124000440F551F440F551F47525C4FFA018082CF
:101250009182A282B382C2CF8F929F92AF92BF92AD
:10126000CF92DF92EF92FF920F931F93CF93DF9372
:10127000FC0181859285A385B4850196A11DB11DD0
:1012800084179507A607B70770F480E0DF91CF9128
:101290001F910F91FF90EF90DF90CF90BF90AF9094
:1012A0009F908F90089583889488A588B6888789B1
:1012B000803189F5BB27A72F962F852FE9016A0179
:1012C0007B018F01BC01CD01680D791D8A1D9B1D1D
:1012D0008090000290900102A0900202B090030260
:1012E00086169706A806B90601F5F80187898031A8
:1012F00011F5DD24EE24FF24F601EE0FFF1FE75267
:10130000FC4F80819181B0E0A0E088839983AA831B
:10131000BB8381E0BBCFDB01CA01C7E0B695A795CF
:1013200097958795CA95D1F7C9CF40E00E941707D6
:101330008111DBCFAACFE894C7F8DD24EE24FF2487
:10134000F601EE0FFF1FEE0FFF1FE752FC4F8081EB
:101350009181A281B381BF70D8CF4F925F926F927B
:101360007F92AF92BF92CF92DF92EF92FF920F9354
:101370001F93CF93DF9300D01F92CDB7DEB78C01C0
:1013800049835A836B837C835901C12CD12C76010C
:10139000412C82E0582E612C712C49815A816B813D
:1013A0007C819E012F5F3F4FC8010E942C0988233A
:1013B00039F1F8018585A301920104C0220F331F82
:1013C000441F551F8A95D2F7DA01C901C80ED91EEC
:1013D000EA1EFB1E49815A816B817C81878980319D
:1013E00011F188EF9FEFAFEFBFE0481759076A0789
:1013F0007B0798F2F501C082D182E282F38281E01C
:101400000F900F900F900F90DF91CF911F910F9140
:10141000FF90EF90DF90CF90BF90AF907F906F9054
:101420005F904F90089588EF9FEFA0E0B0E0DDCF90
:10143000CF93DF93FC012581222321F080E0DF910F
:10144000CF910895EC0180919D06803159F582E09D
:101450008583178A108E118E128E80919E06909130
:101460009F06B0E0A0E025E0880F991FAA1FBB1FD0
:101470002A95D1F7838B948BA58BB68B86E896E063
:101480009C8F8B8F81E08C831E821F821886198629
:101490001A861B861C861D861E861F86188A198A38
:1014A0001A8ACDCF803251F683E085834091A00621
:1014B0005091A1066091A2067091A306478B508FB0
:1014C000618F728F9F012D5E3F4F86E896E00E94EC
:1014D000AD098111D3CFB2CF8F929F92AF92BF92BD
:1014E000CF92DF92EF92FF920F931F93CF93DF93F0
:1014F000EC018D8181110EC080E0DF91CF911F91B1
:101500000F91FF90EF90DF90CF90BF90AF909F90A2
:101510008F9008950B891C892D893E890417150722
:101520002607370748F34A015B01823031F48A8687
:101530009B86AC86BD8681E0E0CF81149104A10436
:10154000B10449F41E821F82188619861A861B86EA
:101550001C861D86F0CF0A851B852C853D85EB8D6D
:10156000FC8D858590E00996B901A801415051098B
:1015700061097109082E04C07695679557954795BE
:101580000A94D2F775016401E1E0CE1AD108E108AE
:10159000F10804C0F694E794D794C7948A95D2F7DB
:1015A000C416D506E606F70620F0012B022B032B06
:1015B00011F58F89988DA98DBA8D8E839F83A88709
:1015C000B9878E010A5F1F4FC114D104E104F104F1
:1015D00009F4ADCF4E815F816885798598018B8D47
:1015E0009C8D0E942C0991E0C91AD108E108F108EC
:1015F0008111EACF81CFC41AD50AE60AF70AE1CFF2
:101600003F924F925F926F927F928F929F92AF9292
:10161000BF92CF92DF92EF92FF920F931F93CF93DF
:10162000DF93CDB7DEB72C970FB6F894DEBF0FBEB1
:10163000CDBF5C01DC015B968D909C905C9716960B
:101640004D905D906D907C90199741145104610408
:10165000710409F468C0BFEF4B1A5B0A6B0A7B0A7E
:10166000312CF40181859285A385B4859C01AD015F
:101670002F5F3F4F4F4F5F4F29873A874B875C87DC
:10168000730162011D821E821F821886F40181850A
:101690009285A385B4852D813E814F815885281779
:1016A00039074A075B0708F056C089859A85AB85DC
:1016B000BC858C159D05AE05BF0550F482E0C82E93
:1016C000D12CE12CF12C92E0492E512C612C712C63
:1016D0009E012F5F3F4FB701A601C4010E942C0954
:1016E0008823C9F189819A81AB81BC81892B8A2B9E
:1016F0008B2B09F1260137019FEF491A590A690A14
:10170000790A2D813E814F8158852F5F3F4F4F4F82
:101710005F4F2D833E834F8358873FEFC31AD30A11
:10172000E30AF30AB3CFF4014080518062807380F2
:101730003324339496CFC414D504E604F70409F790
:101740000FEF1FEF2FEF3FE0B701A601C4010E948A
:101750008A08811119C080E02C960FB6F894DEBF7C
:101760000FBECDBFDF91CF911F910F91FF90EF90F2
:10177000DF90CF90BF90AF909F908F907F906F90B1
:101780005F904F903F900895D50116964D915D91D1
:101790006D917C911997411551056105710539F0DD
:1017A00097018601C4010E948A088823A1F2D5010D
:1017B0001696CD92DD92ED92FC921997332051F05E
:1017C000D701C6010196A11DB11DF401808391834B
:1017D000A283B383F5018789908DA18DB28D892B6A
:1017E0008A2B8B2B39F48481C78AD08EE18EF28EBE
:1017F00080688483F50184818062848381E0ACCF3A
:101800001F93CF93DF93FC0125812223D1F1162F63
:10181000EC01848187FF2AC066857785808991895C
:1018200041E00E941707882361F1EA8980E2E89F7E
:10183000F0011124E752FC4F309719F18D8182306D
:1018400040F48B899C89AD89BE89848F958FA68F42
:10185000B78F8F89988D938F828F8F89988DA98D5F
:10186000BA8DB58BA48B8C818F778C83111103C0BB
:101870008C818F7E8C83812FDF91CF911F910C946F
:10188000EC0680E0DF91CF911F910895FF920F93B6
:101890001F93CF93DF93EC018D81813041F090E075
:1018A00080E0DF91CF911F910F91FF9008958C817F
:1018B00081FFF5CF82FD1BC00091D9051091DA059B
:1018C000C8010E9445050E942405F82EC8010E9407
:1018D00012058FEFF812E3CF8C8185FF1BC060E00B
:1018E000CE010E94000C8C818F7D8C83D8CF4B89D8
:1018F0005C896D897E898A859B85AC85BD858417C9
:101900009507A607B707C1F2CE010E946C0A8111A4
:10191000D3CFC5CF40918303509184036091850359
:1019200070918603452B462B472B21F080E00E94C7
:10193000C806B5CF80618C832A853B85317080E0F5
:1019400092E0821B930BADCFCF93DF93EC0161E06C
:101950000E94000C882311F01D8281E0DF91CF915D
:1019600008952F923F924F925F926F927F928F9243
:101970009F92AF92BF92CF92DF92EF92FF920F931E
:101980001F93CF93DF9300D01F921F92CDB7DEB786
:101990007C015B01342E5D83DC0115968C911597DB
:1019A000813009F0CEC014962C9021FECAC022FCD2
:1019B000B4C0C32CDD8022947FE027222094B22D76
:1019C000B1702B2ED7011A964D915D916D917C913E
:1019D0001D97C114D10409F428C15B968D919C9187
:1019E0005C97FC0174807A948A019B0169E03695CA
:1019F0002795179507956A95D1F770228A0111707E
:101A0000711020C001151105E9F416964D915D91F4
:101A10006D917C911997411551056105710509F08A
:101A200099C057968D919D910D90BC91A02D0097D6
:101A3000A105B10509F0B0C0C7010E94000B8823C1
:101A400009F47FC080E092E0801B910B46018C1569
:101A50009D0508F44C01D7015B964D915C915C9714
:101A600016968D919D910D90BC91A02D0297A10984
:101A7000B109FA01258504C0880F991FAA1FBB1F51
:101A80002A95D2F74685578560897189840F951FFD
:101A9000A61FB71F9C01AD01270D311D411D511D12
:101AA00029013A01811432E0930609F07BC080914C
:101AB000000290910102A0910202B09103028415EC
:101AC0009505A605B70559F48FEF9FEFDC018093CC
:101AD000000290930102A0930202B0930302022D30
:101AE0009501B301A2018091D9059091DA050E9478
:101AF0005A06882331F19EEFB91AC818D908F701A0
:101B000082859385A485B585880D991DA11DB11D7C
:101B100082879387A487B58755CFF7014389548976
:101B20006589768982859385A485B5854817590787
:101B30006A077B0709F43DCFC7010E946C0A811137
:101B400038CF81E090E0D70113969C938E93129743
:101B500080E007C09E012F5F3F4F0E942C0981113A
:101B600002C090E079C089819A81AB81BC81F70184
:101B7000238D348DF901278948EF5FEF60E070E035
:101B8000203121F048EF5FEF6FEF7FE0841795077A
:101B9000A607B70708F050CFF70186839783A08781
:101BA000B18750CF0115110599F5D7011A964D91BE
:101BB0005D916D917C911D9753968D919D910D90A6
:101BC000BC91A02D481759076A077B0708F181E0EF
:101BD0000E94EC06882309F4B4CF40920002509290
:101BE000010260920202709203028091820381607E
:101BF00080938203C80187529C4FD5019C01280D18
:101C0000391DFC012E173F0759F04D914193FACF32
:101C100041E0C301B2010E9417078111EBCF91CFC0
:101C2000281B390BA20EB31E68CFF7018389948954
:101C3000A589B68984179507A607B70738F4848164
:101C4000438B548B658B768B80688483F70184810A
:101C500083FD1AC0832D9D810F900F900F900F90E0
:101C60000F90DF91CF911F910F91FF90EF90DF9038
:101C7000CF90BF90AF909F908F907F906F905F902C
:101C80004F903F902F90089561E0C7010E94000C93
:101C9000882309F456CFDECFCF93DF931F92CDB7C1
:101CA000DEB7698341E050E0BE016F5F7F4F0E9465
:101CB000B10C0F90DF91CF910895FC01DB011296DA
:101CC0008D919C9113979383828383E392E0918318
:101CD000808314968C911497848315968C91159714
:101CE000858316964D915D916D917C9119974683F0
:101CF0005783608771871A964D915D916D917C91A4
:101D00001D9742875387648775871E964D915D9115
:101D10006D917C91519746875787608B718B529656
:101D20008C915297828B53964D915D916D917C91E0
:101D30005697438B548B658B768B57964D915D915F
:101D40006D917C915A97478B508F618F728F5B9604
:101D50008D919C91948F838F0895FC01818D928D3C
:101D6000009719F061E00C94000C0895DC0159967D
:101D7000ED91FC913097B9F083899489A589B68952
:101D80004285538564857585841B950BA60BB70B1F
:101D9000811520E89207A105B10538F08FEF9FE784
:101DA000A0E0B0E0089590E080E00895DC0159964D
:101DB0008D919C91009739F0DC01ED91FC910480AC
:101DC000F581E02D199490E080E00895CF93DF93A2
:101DD000EC01E98DFA8D309749F481E090E09B8326
:101DE0008A8390E080E0DF91CF9108951382128280
:101DF000898D9A8D0E94B10CE98DFA8D22813381F3
:101E0000232B59F7F0CFCF93DF931F92CDB7DEB7D7
:101E10006983DC01ED91FC910280F381E02D41E0CA
:101E200050E0BE016F5F7F4F19950F90DF91CF910A
:101E300008952F923F924F925F926F927F928F926E
:101E40009F92AF92BF92CF92DF92EF92FF920F9349
:101E50001F93CF93DF9300D0CDB7DEB7FC01858110
:101E6000811118C08FEF9FEF0F900F900F90DF91AF
:101E7000CF911F910F91FF90EF90DF90CF90BF9087
:101E8000AF909F908F907F906F905F904F903F901A
:101E90002F900895848180FFE5CF43895489658917
:101EA000768982859385A485B585312C212C4817A8
:101EB00059076A077B0719F022242394312C6F01FC
:101EC0002101CE0101963C01DF011696BB83AA8356
:101ED0004114510409F4C5C0F60142855385648557
:101EE00075854A01F1E09F22D6015B968D919C9108
:101EF0005C978A019B01E9E0369527951795079530
:101F0000EA95D1F71596EC91E230E9F5FC01628D86
:101F1000738D848D958D600F711F821F931FA12C6F
:101F200022E0B22EA818B9084A145B0408F4520142
:101F3000F601248126FD04C0A114F2E0BF0671F46D
:101F400000910002109101022091020230910302DF
:101F5000061717072807390709F05EC040E00E94FE
:101F60001707882309F47ECFC40187529C4FD30101
:101F70009C012A0D3B1DFC012E173F0709F46CC084
:101F800041914D93F9CFDC011496BC90BA94B022E4
:101F90008114910479F4B1100DC0452B462B472BC9
:101FA00069F5F6018789908DA18DB28D868397831F
:101FB000A087B187D6015B96ED91FC915C97169650
:101FC0006D917D918D919C91199762507109810954
:101FD0009109258504C0660F771F881F991F2A95D0
:101FE000D2F70685178520893189600F711F821FFE
:101FF000931F6B0D711D811D911D91CFD6011696FA
:102000004D915D916D917C9119972A813B810E9440
:102010002C098111CFCF26CF730185019401AB012B
:10202000BC018091D9059091DA050E94B8058823FA
:1020300009F418CF6A0C7B1CF60182859385A48570
:10204000B5858A0D9B1DA11DB11D82879387A4872D
:10205000B5874A185B083CCF281B390B620E731EEC
:10206000EBCF2A94232809F0FDCE898190E0FCCEA5
:10207000FC01818D928D009711F00C94190F8FEF58
:102080009FEF08950F931F93CF93DF93EC01898DFA
:102090009A8D10E000E0009799F00E94190F8C01D2
:1020A0000F3F100769F0898D9A8DFC014285538599
:1020B0006485758541505109610971090E946C0A56
:1020C000C801DF91CF911F910F910895089590E07D
:1020D00080E00895CF92DF92EF92FF921F93CF930B
:1020E000DF93EC0180E2689FF0011124E752FC4F7E
:1020F0009385917161F0842F827449F080E0DF91C3
:10210000CF911F91FF90EF90DF90CF900895142F03
:102110006A8B8091000290910102A0910202B0911D
:1021200003028E879F87A88BB98BC488D588F12C32
:10213000E12C7601DD24CC24CF8AD88EE98EFA8E6C
:10214000828D938DB0E0A0E0AC01BD014C295D29EA
:102150006E297F294F8B588F698F7A8F838588717D
:10216000B1F4848D958DA68DB78D8B8B9C8BAD8BAB
:10217000BE8B81E08D831F701C831E821F82188698
:1021800019861A861B861C861D8681E0B8CF803191
:1021900009F0B4CF9E012D5E3F4F8B8D9C8D0E9428
:1021A000AD09882309F4AACF84E0E4CFCF93DF936D
:1021B000EC0160E08E810E94BD0161E08E810E9491
:1021C000BD0160E08E810E94BD018BE891E0019726
:1021D000F1F7DF91CF910895CF92DF92EF92FF92C6
:1021E0000F931F93CF93DF936C017C0187E0E80E80
:1021F000F11CD0E0C0E0062F10E0B8010C2E02C0A8
:10220000759567950A94E2F76170F70181917F01F6
:102210000E94BD012196C430D10579F7C601DF9136
:10222000CF911F910F91FF90EF90DF90CF900C9482
:10223000D610CF92DF92EF92FF920F931F93CF931E
:10224000DF93EC01F62E642F8C810E94BD018D81FD
:102250008F3F19F060E00E94BD010F2D10E08F85C7
:1022600084FF25C06E0187E0C80ED11CF12CE12C43
:10227000B8010E2C02C0759567950A94E2F761705B
:10228000F60181916F010E94BD01FFEFEF1AFF0A75
:1022900088E0E816F10461F7CE01DF91CF911F913C
:1022A0000F91FF90EF90DF90CF900C94D610B80173
:1022B00084E0759567958A95E1F7CE010E94EC1050
:1022C0006F2DCE01DF91CF911F910F91FF90EF9075
:1022D000DF90CF900C94EC1040E0682F82EE96E0F7
:1022E0000C94191181E00E946C118BE39FE101971E
:1022F000F1F70895CF93DF93823029F49091F1069E
:1023000098609093F1068093F5061092F60680E4AB
:102310008093F70680E18093F80680E58093F906C4
:1023200061E08091E6060E9449028091E7068F3FB6
:1023300019F061E00E94490261E08091E8060E9484
:102340004902C2EED6E09E01225E36408091F1063F
:1023500084FD0BC084E090E021962817390744F4EF
:1023600061E08E810E944902EECF88E090E0F4CFD8
:102370008BE39DE00197F1F760E08091E6060E9413
:10238000BD0160E08091E8060E94BD018091E706F2
:102390008F3F19F060E00E94BD018091F10684FD3D
:1023A00034C063E082EE96E00E94EC10CBE4D6E409
:1023B000CE010197F1F763E082EE96E00E94EC1007
:1023C0002197F1F763E082EE96E00E94EC1083E53E
:1023D00092E00197F1F762E082EE96E00E94EC1045
:1023E0008091F10680620E946C1184E08093F20675
:1023F0008CE00E946C110E94721182E08093F306BF
:1024000086E0DF91CF910C946C1180620E946C1178
:102410008BE496E40197F1F78091F10680620E94C7
:102420006C1183E592E00197F1F78091F1068062EB
:102430000E946C11D5CF9091F506891710F08FEF9F
:10244000890FE82FF0E0EE51F94F848980680C94F1
:102450006C1141E00E94191181E090E00895FB01A8
:1024600001900020E9F73197AF01461B570BDC01C3
:10247000ED91FC910280F381E02D19948F929F924F
:10248000AF92BF92EF92FF920F931F93CF93DF9380
:10249000CDB7DEB7A1970FB6F894DEBF0FBECDBFA4
:1024A0007C01FA01CB0119A2223008F42AE08E0146
:1024B0000F5D1F4F822E912CB12CA12CBF01A501C5
:1024C00094010E94811FF901CA016A300CF5605D18
:1024D000D8016E938D01232B242B252B79F790E0C7
:1024E00080E0109721F0BD01C7010E942F12A19634
:1024F0000FB6F894DEBF0FBECDBFDF91CF911F9115
:102500000F91FF90EF90BF90AF909F908F900895A4
:10251000695CDECF2F923F924F925F926F927F92D3
:102520008F929F92AF92BF92CF92DF92EF92FF92E3
:102530001F93CF93DF93EC016A017B01722EAB01F5
:102540009601CB01B6010E947C1F69E572E0811102
:1025500026C046015701E894B7F82FEF3FEF4FE749
:102560005FE7C501B4010E947C1F81110CC02FEFF1
:102570003FEF4FE75FE7C501B4010E94B21D6DE573
:1025800072E0181664F02FEF3FEF4FE75FE4C701EA
:10259000B6010E940A1F1816B4F461E672E0CE017B
:1025A000DF91CF911F91FF90EF90DF90CF90BF9080
:1025B000AF909F908F907F906F905F904F903F90E3
:1025C0002F900C942F122FEF3FEF4FE75FECC701D6
:1025D000B6010E94B21D87FDE0CF20E030E0A901E6
:1025E000C701B6010E94B21D312C212C87FF0DC0FE
:1025F000E881F9810190F081E02D6DE2CE0119951D
:102600001C01F7FAF094F7F8F09410E060E070E045
:1026100080E09FE3711641F020E030E040E251E4B9
:102620000E94B71D1F5FF6CFA70196010E94461DAD
:102630002B013C010E94291E4B015C012AE0BC01D8
:10264000A401CE010E943E127C01E20CF31C112376
:10265000E1F1C501B4010E94581E9B01AC01C30108
:10266000B2010E94451D4B015C01E881F981019096
:10267000F081E02D6EE2CE011995E80EF91E1150A1
:1026800020F120E030E040E251E4C501B4010E94B5
:102690000F1F2B013C010E94291E4B01B12CA12CC4
:1026A0002AE0B501A401CE010E943E12E80EF91EF7
:1026B000C501B4010E94581E9B01AC01C301B201C7
:1026C0000E94451D4B015C01DACFC701DF91CF911C
:1026D0001F91FF90EF90DF90CF90BF90AF909F90B1
:1026E0008F907F906F905F904F903F902F900895C4
:1026F00022E00C948A120F931F93CF93DF93EC0187
:102700000E942F128C0165E672E0CE010E942F120A
:10271000800F911FDF91CF911F910F9108950C941D
:102720002F124F925F926F927F928F929F92AF92F1
:10273000BF92CF92DF92EF92FF920F931F932B01E4
:102740003C0149015A01670168E373E083EC96E0BC
:102750000E948F13B301A20183EC96E00E947813CC
:1027600068E672E083EC96E00E948F13B501A40145
:1027700083EC96E00E94781366E772E083EC96E0C3
:102780000E948F13B801A60183EC96E00E94781393
:1027900062E872E083EC96E00E947B1365E872E0E9
:1027A0008BED95E01F910F91FF90EF90DF90CF9010
:1027B000BF90AF909F908F907F906F905F904F9061
:1027C0000C947B133F924F925F926F927F928F9205
:1027D0009F92AF92BF92CF92DF92EF92FF920F93B0
:1027E0001F93CF93DF9300D000D000D01F921F9291
:1027F000CDB7DEB77C01FE013196CE010C966F019C
:1028000030E23193E817F907E1F7DA0130E087E0C9
:102810009D91B92E992309F43CC09E32F1F48A307F
:10282000C9F480E02B960FB6F894DEBF0FBECDBF83
:10283000DF91CF911F910F91FF90EF90DF90CF909C
:10284000BF90AF909F908F907F906F905F904F90D0
:102850003F90089538E08AE0DBCFE0E9F1E0449171
:10286000442321F031969413FACFDBCF8317C8F2BB
:102870004FED490F4E35A8F64FE9490F4A3118F48C
:1028800040EEB42EB90EF601E30FF11DB0823F5FAA
:10289000BFCF8981803229F2322E8B01DB015B961A
:1028A0008D919C915C97F701948F838F16961D9262
:1028B0001D921D921C921997FB0112861386148695
:1028C0001586F80182859385A485B5854389548949
:1028D0006589768984179507A607B70708F04DC064
:1028E00025E0B695A795979587952A95D1F7F82F66
:1028F000FF70AF2ED80115968C91823008F491CFDD
:10290000C8010E94190F97FD8CCFF801828593852D
:10291000A485B5854F96A11DB11D82879387A48795
:10292000B587F0E2AF9EB001112467527C4F61156C
:10293000710509F476CFDB018C91882341F0853E47
:1029400009F062C0BB2029F0BB24B394BACFB11008
:102950000EC0F701A28A8091000290910102A0911D
:102960000202B091030286879787A08BB18BDB01AF
:102970008C918111E9CFBB24B394832D8271823174
:1029800009F04FCFBB2009F44DC0F701668577856C
:102990008089918941E00E941707882309F441CF7B
:1029A000D70152968C91B0E28B9FC00111248752BF
:1029B0009C4F009709F435CFFC013A9626E1DF01E0
:1029C0001D922A95E9F72BE0F601DC0101900D92AA
:1029D0002A95E1F721E238E2FC01318B208B40E0BF
:1029E00058E057874687338B228B318F208F578B48
:1029F000468B81E00E94EC06882309F412CF432D18
:102A0000D70152966C910AC04BE050E0C6010E947B
:102A1000EA20892B09F055CF432D6A2DC7010E946A
:102A20006A1000CFF8018581823009F4FACEC8011E
:102A30000E94000B882309F4F4CED8015B96ED9137
:102A4000FC915C9716968D909D90AD90BC901997D7
:102A5000B2E08B1A9108A108B108858504C0880CE2
:102A6000991CAA1CBB1C8A95D2F786859785A089DC
:102A7000B189880E991EAA1EBB1E848124013501CE
:102A8000480E511C611C711C84149504A604B704E3
:102A900009F1E1E04E1A51086108710881E00E94D5
:102AA000EC06882309F4BDCEE9EDF3E0119289ED3F
:102AB00095E08E179F07D1F74092000250920102D5
:102AC000609202027092030280918203816080937F
:102AD0008203DACFD8015B96ED91FC91258580E0E9
:102AE00092E0A0E0B0E004C0880F991FAA1FBB1FAE
:102AF0002A95D2F7F8014389548965897689840F2C
:102B0000951FA61FB71F838B948BA58BB68BD70100
:102B100052961C9289ED93E04FCFEF92FF920F9364
:102B20001F93CF93DF93EC017B018A011B821A82F2
:102B300088EE93E0A0E0B0E08C839D83AE83BF83FA
:102B40008FE092E0998388838DE190E00E94C51F19
:102B50009A8F898F009779F02DE1F701DC010190C0
:102B60000D922A95E1F74CE050E0B801CE010C96A9
:102B70000E94F720188EDF91CF911F910F91FF9047
:102B8000EF9008951F920F920FB60F9211242F937A
:102B90003F938F939F93AF93BF938091D103909175
:102BA000D203A091D303B091D4033091D00323E09A
:102BB000230F2D3758F50196A11DB11D2093D00389
:102BC0008093D1039093D203A093D303B093D40303
:102BD0008091D5039091D603A091D703B091D803EB
:102BE0000196A11DB11D8093D5039093D603A093A8
:102BF000D703B093D803BF91AF919F918F913F912D
:102C00002F910F900FBE0F901F90189526E8230F5D
:102C10000296A11DB11DD2CF1F920F920FB60F9237
:102C200011240BB60F922F933F934F935F936F93A3
:102C30007F938F939F93AF93BF93EF93FF938BED0E
:102C400095E00E94A003FF91EF91BF91AF919F91FA
:102C50008F917F916F915F914F913F912F910F9045
:102C60000BBE0F900FBE0F901F9018951F920F92E2
:102C70000FB60F9211240BB60F922F938F939F9341
:102C8000EF93FF93E091EB05F091EC058081E091EB
:102C9000F105F091F20582FD1DC090818091F4054F
:102CA0008F5F8F732091F505821741F0E091F40555
:102CB000F0E0E552FA4F958F8093F405FF91EF9184
:102CC0009F918F912F910F900BBE0F900FBE0F9081
:102CD0001F9018958081F2CF1F920F920FB60F921E
:102CE00011240BB60F922F933F934F935F936F93E3
:102CF0007F938F939F93AF93BF93EF93FF93E09155
:102D0000CA03F091CB03309749F0A685B785858536
:102D1000968D91FF16C09C918923B1F4FF91EF919C
:102D2000BF91AF919F918F917F916F915F914F91E3
:102D30003F912F910F900BBE0F900FBE0F901F90E1
:102D400018959C91892351F7A389B4899C91858911
:102D5000809589238C93868997890197F1F7608DF7
:102D6000718DA685B785558538E020E0CB010197A8
:102D7000F1F7822F90E095958795282F4C91452368
:102D800009F02068315091F7868D81FD2095809162
:102D9000C90390E001968F7399273091C8033817C3
:102DA00099F0A091C903B0E0A957BC4F2C93809330
:102DB000C903828D938D0197F1F7A389B4898C9112
:102DC0009589892B8C93AACF868D8160868FF1CFD0
:102DD000CF92DF92EF92FF921092DE051092DD0506
:102DE00098EEC92E93E0D92EE12CF12CC092DF058C
:102DF000D092E005E092E105F092E20581E292E0F6
:102E00009093DC058093DB0585EC90E09093E805DA
:102E10008093E70584EC90E09093EA058093E905C0
:102E200080EC90E09093EC058093EB0581EC90E0D2
:102E30009093EE058093ED0582EC90E09093F00581
:102E40008093EF0586EC90E09093F2058093F10576
:102E50001092F4051092F5051092F6051092F70500
:102E600080E5809378061092790610927F06109282
:102E70008006109283061092850682E090E0A0E022
:102E8000B0E08093860690938706A0938806B0935F
:102E9000890610929D061092A7061092A60683E35B
:102EA00092E09093A5068093A4061092A906109232
:102EB000E5061092E40681E592E09093E3068093A4
:102EC000E2068CE08093E6068FEF8093E7068BE0C6
:102ED0008093E80685E08093E90684E08093EA0623
:102EE00083E08093EB0682E08093EC061092ED067F
:102EF0001092EE061092EF061092F0061092F10674
:102F000081E00E947A111092C6061092C506C09206
:102F1000C706D092C806E092C906F092CA068FE3AF
:102F200092E09093C4068093C3061092DA06109242
:102F3000D9061092DC061092DB061092DE06109283
:102F4000DD061092E0061092DF066091E1066E7FCA
:102F50006D7F6093E1066695617081E068278BE084
:102F60000E94BD0161E08BE00E944902E5E8F2E0C9
:102F7000E491E093D306EFE3F2E0E491F0E0EE0FAA
:102F8000FF1FE65EFD4F859194919093D506809347
:102F9000D40660E08AE00E9449028091E10681FD4A
:102FA00004C061E08AE00E94BD018AE08093CF0600
:102FB000E4E8F2E0E491E093D006EEE3F2E0E4919D
:102FC000F0E0EE0FFF1FE050FE4F8591949190933B
:102FD000D2068093D106FF90EF90DF90CF900895B6
:102FE000CF93DF93CDB7DEB7CA57D1090FB6F894A8
:102FF000DEBF0FBECDBF789484B5826084BD84B53A
:10300000816084BD85B5826085BD85B5816085BDE3
:1030100080916E00816080936E001092810080919B
:103020008100826080938100809181008160809323
:103030008100809180008160809380008091B10048
:1030400084608093B1008091B00081608093B00073
:1030500080919100826080939100809191008160C5
:103060008093910080919000816080939000809186
:10307000A10082608093A1008091A1008160809373
:10308000A1008091A00081608093A0008091210127
:1030900082608093210180912101816080932101D0
:1030A0008091200181608093200180917A0084606A
:1030B00080937A0080917A00826080937A00809178
:1030C0007A00816080937A0080917A008068809392
:1030D0007A001092C1000E94950182E00E947A114C
:1030E0006FE972E082EE96E00E948F130E94EA027E
:1030F0000E9472110E94950182E00E947A116FE98C
:1031000072E082EE96E00E948F130E94EA020E9413
:1031100072118091A906882321F084EA96E00E942A
:10312000A40C1092850610928306109280061092CD
:103130007F0684E080937E060E9420037B0161E08D
:1031400080917E060E94490261E080917E060E9485
:10315000BD01DFB6F8948091C703811127C0E9E66D
:10316000F2E08491EFEAF2E09491E82FF0E0EE0FC4
:10317000FF1FE056FE4FA591B491EC91E92321F495
:1031800061E085E30E94BD0161E085E30E944902A0
:103190008CB580618CBD8CB580648CBD61E084E3AE
:1031A0000E94490261E083E30E9449028091C703C3
:1031B0008F5F8093C703DFBE82E58093780610920D
:1031C000790680917806909179060E9442051AE06E
:1031D0008FEF0E941D051150D9F78AE796E00E94F3
:1031E000450520E030E0A90160E08AE796E00E9412
:1031F0005B05182F809384068130D9F00E9420034C
:103200006E197F09613D774060F381E080937F060E
:103210008AE796E00E94120560ED72E08BED95E082
:103220000E947B136FEE72E082EE96E00E948F1395
:1032300088C02AEA31E040E050E068E08AE796E0A2
:103240000E945B0582FF2AC0109385068091850647
:10325000812C912C5401823029F4812C912CA12CA9
:1032600090E4B92E20E030E0A90167E38AE796E018
:103270000E945B05A501940169E28AE796E00E943D
:103280005B05809384068823C1F00E9420036E1999
:103290007F09613D774030F388E0B8CF14E00E94A9
:1032A0002405809384061150D1F78A3A11F082E008
:1032B000ADCF82E080938506C9CF809185068230AC
:1032C000D1F420E030E0A9016AE38AE796E00E94A9
:1032D0005B05882311F086E099CF0E942405807C4D
:1032E000803C19F483E0809385060E9424050E94A7
:1032F00024050E9424058AE796E00E94120580E5D5
:10330000809378061092790681E00E9461078823F5
:1033100009F4FFC284EA96E00E94180A882309F49F
:103320007BCF6BEA72E08BED95E00E947B1360EC43
:1033300072E082EE96E00E948F130E94EA020E94E1
:1033400072111092DE061092DD061092DC061092C9
:10335000DB061092DA061092D9068DE991E090937F
:10336000E0068093DF068091CF0696EF980F9430A9
:1033700048F02EEC280F243028F022EC280F2830BB
:1033800008F061C02DEB30E03093DA062093D906C7
:103390002BE931E03093DC062093DB062CE231E0B0
:1033A0003093DE062093DD06943050F02EEC280F8B
:1033B000243030F022EC280FF0E0E0E0283010F468
:1033C000E8E6F0E02081943028F032EC380F383015
:1033D00008F4A6C231E0232B943048F09EEC980FFD
:1033E000943028F08E53F0E0E0E0883010F4E8E606
:1033F000F0E020832091CF0636EF320F343008F40E
:1034000091C28EEC820F843008F48CC282EC820F61
:10341000883008F48AC290E080E09093D7068093C9
:10342000D606343008F084C22650330B81E001C048
:10343000880F2A95EAF78093D8068091DF0690914D
:10344000E0060197F1F78091DD069091DE06892B69
:1034500049F1E091CA03F091CB0346E0E33CF40765
:1034600009F1309739F0A389B4899C9185898095B9
:1034700089238C938091E1068E7F8093E1061092E0
:10348000C9031092C80383EC96E09093CB0380931A
:10349000CA03E091D606F091D70680819091D806B4
:1034A000892B80836EEF72E08BED95E00E947B1399
:1034B00083E3282E82E0382E0E9497024B015C01A4
:1034C00087E30E947A02BC01990F880B990B0E9436
:1034D0005A1E20E030E040EA5BE30E940F1F2FE815
:1034E00032E44AE653E40E940F1F6B017C01AC01F9
:1034F0009B01C501B4010E940F1F2B013C010E94DA
:103500002003EB966CAF7DAF8EAF9FAFEB978091B2
:10351000CC039091CD03A091CE03B091CF03EB9655
:103520002CAD3DAD4EAD5FADEB97281B390B4A0B73
:103530005B0B203D37404105510598F1EB962CADD2
:103540003DAD4EAD5FADEB972093CC033093CD03F3
:103550004093CE035093CF030E94721180910402D6
:10356000882309F4FAC180E00E941B1265E173E030
:1035700082EE96E00E948F1381E00E941B12B3013D
:10358000A20182EE96E00E94781362E872E082EE79
:1035900096E00E948F138091040231E0832780938C
:1035A00004026CE672E08BED95E00E948F13B5018A
:1035B000A4018BED95E00E94781364E373E08BED3A
:1035C00095E00E948F13B701A6018BED95E00E9454
:1035D000781362E473E08BED95E00E948F13B301E2
:1035E000A2018BED95E00E94781362E872E08BED0A
:1035F00095E00E947B130E9497024B015C0187E3D8
:103600000E947A02BC01990F880B990B0E945A1EE6
:1036100020E030E040EA5BE30E940F1F2FE832E435
:103620004AE653E40E940F1F6B017C01AC019B0131
:10363000C501B4010E940F1F2B013C011C821B829B
:103640003A8229821E82CE0101960E94180ABE018A
:103650006F5F7F4FCE01CB960E945D0E19A218A21C
:103660003F8E2E8E1BA221968FAD219781119CC17A
:103670006C961FAE1EAE6C9788EE93E0A0E0B0E0B3
:10368000A0968CAF9DAFAEAFBFAFA097AFE0B2E05A
:103690006A96BFAFAEAF6A97E3961FAE1EAEE397D2
:1036A000A5961FAEA597E396EEADFFADE3973097D5
:1036B00009F4A5C18581882309F4A1C168E373E0F9
:1036C000CE01885A9F4F0E948F13B701A601CE01E9
:1036D000885A9F4F0E94781368E672E0CE01885A9C
:1036E0009F4F0E948F13B501A401CE01885A9F4FAE
:1036F0000E94781366E772E0CE01885A9F4F0E94BD
:103700008F13B301A201CE01885A9F4F0E947813F4
:1037100062E872E0CE01885A9F4F0E947B13E396C5
:103720008EAD9FADE397009761F00E94A40CE396E5
:103730008EAD9FADE3970E946120E3961FAE1EAE53
:10374000E3976EE473E08BED95E00E947B130E949B
:103750002003EB966CAF7DAF8EAF9FAFEB972091C0
:10376000CC033091CD034091CE035091CF03DC01C7
:10377000CB01821B930BA40BB50B803D9740A10599
:10378000B10598F1EB968CAD9DADAEADBFADEB97AD
:103790008093CC039093CD03A093CE03B093CF033B
:1037A0000E94721180910402882309F42BC180E0E9
:1037B0000E941B1265E173E082EE96E00E948F1377
:1037C00081E00E941B12B301A20182EE96E00E94EA
:1037D000781362E872E082EE96E00E948F13809187
:1037E000040291E08927809304026CE672E08BED7D
:1037F00095E00E948F13B501A4018BED95E00E9426
:10380000781364E373E08BED95E00E948F13B701AA
:10381000A6018BED95E00E94781362E473E08BEDD6
:1038200095E00E948F13B301A2018BED95E00E94F9
:10383000781362E872E08BED95E00E947B130E94A2
:1038400097022B013C0187E30E947A02BC01990F89
:10385000880B990B0E945A1E20E030E040EA5BE39F
:103860000E940F1F2FE832E44AE653E40E940F1F24
:103870004B015C01AC019B01C301B2010E940F1F0F
:103880007B018C01A3019201C501B4010E94911337
:103890000E9497022B013C0187E30E947A02BC013F
:1038A000990F880B990B0E945A1E20E030E040EAE5
:1038B0005BE30E940F1F2FE832E44AE653E40E94C4
:1038C0000F1F4B015C01AC019B01C301B2010E94BF
:1038D0000F1F6B017C016AE772E08BED95E00E949F
:1038E0008F1322E0B701A6018BED95E00E948A12AA
:1038F00065E672E08BED95E00E942F12870176015C
:10390000A3019201C501B4010E9491130E942F04EA
:10391000D3CD80E00E946107882309F47DCCFACCE6
:1039200034E059CD8BE690E078CD8DE690E075CD12
:1039300088E0223309F47FCD84E0233309F47BCD82
:1039400082E0243309F477CD82EC820F883018F4BA
:103950002E53330B6BCD81E06ECD80E00E941B12A5
:103960006CE173E082EE96E00E948F13B701A6012E
:1039700082EE96E00E94781365E273E082EE96E0B4
:103980000E948F1381E00E941B1268E273E082EEB6
:1039900096E00E948F13B501A40182EE96E00E948A
:1039A000781361E373E0F3CD27E144E753E0BE0110
:1039B000655C7F4FCE014E960E94E213882309F486
:1039C00057CECE01CB960E94A40C49A95AA96BA947
:1039D0007CA9CE014E960E946C0ABE01625E7F4FAA
:1039E000CE0101960E945D0E44E753E0BE016F5F79
:1039F0007F4FCE01885A9F4F0E948D1554CE66E6A8
:103A000073E0A1CE80E00E941B126CE173E082EEB5
:103A100096E00E948F13B701A60182EE96E00E9405
:103A2000781365E273E082EE96E00E948F1381E0E6
:103A30000E941B1268E273E082EE96E00E948F13F0
:103A4000B501A40182EE96E00E94781361E373E071
:103A5000C2CE8FE392E09093C4068093C306809118
:103A6000CA039091CB03835C964071F4E091D60633
:103A7000F091D70690818091D80680958923808324
:103A80001092CB031092CA0308955058BB27AA275F
:103A90000E945D1D0C94D01E0E94C21E38F00E9430
:103AA000C91E20F039F49F3F19F426F40C94BF1E70
:103AB0000EF4E095E7FB0C94B91EE92F0E94E11E7D
:103AC00058F3BA17620773078407950720F079F453
:103AD000A6F50C94031F0EF4E0950B2EBA2FA02D23
:103AE0000B01B90190010C01CA01A0011124FF27AB
:103AF000591B99F0593F50F4503E68F11A16F040A6
:103B0000A22F232F342F4427585FF3CF46953795A4
:103B10002795A795F0405395C9F77EF41F16BA0B69
:103B2000620B730B840BBAF09150A1F0FF0FBB1F17
:103B3000661F771F881FC2F70EC0BA0F621F731F60
:103B4000841F48F4879577956795B795F7959E3FBD
:103B500008F0B0CF9395880F08F09927EE0F97954E
:103B6000879508950E94951E08F481E008950E94AB
:103B7000CB1D0C94D01E0E94C91E58F00E94C21E7C
:103B800040F029F45F3F29F00C94B91E51110C94B8
:103B9000041F0C94BF1E0E94E11E68F39923B1F329
:103BA000552391F3951B550BBB27AA276217730763
:103BB000840738F09F5F5F4F220F331F441FAA1FF7
:103BC000A9F335D00E2E3AF0E0E832D091505040B3
:103BD000E695001CCAF72BD0FE2F29D0660F771F61
:103BE000881FBB1F261737074807AB07B0E809F047
:103BF000BB0B802DBF01FF2793585F4F3AF09E3FCC
:103C0000510578F00C94B91E0C94041F5F3FE4F347
:103C1000983ED4F3869577956795B795F7959F5F0E
:103C2000C9F7880F911D9695879597F90895E1E05A
:103C3000660F771F881FBB1F621773078407BA07B9
:103C400020F0621B730B840BBA0BEE1F88F7E09514
:103C500008950E94E91E88F09F5798F0B92F992780
:103C6000B751B0F0E1F0660F771F881F991F1AF067
:103C7000BA95C9F714C0B13091F00E94031FB1E0AA
:103C800008950C94031F672F782F8827B85F39F0A9
:103C9000B93FCCF3869577956795B395D9F73EF400
:103CA00090958095709561957F4F8F4F9F4F0895A8
:103CB000E89409C097FB3EF49095809570956195C6
:103CC0007F4F8F4F9F4F9923A9F0F92F96E9BB277C
:103CD0009395F695879577956795B795F111F8CFF8
:103CE000FAF4BB0F11F460FF1BC06F5F7F4F8F4F63
:103CF0009F4F16C0882311F096E911C0772321F059
:103D00009EE8872F762F05C0662371F096E8862FF0
:103D100070E060E02AF09A95660F771F881FDAF747
:103D2000880F9695879597F90895990F0008550F74
:103D3000AA0BE0E8FEEF16161706E807F907C0F031
:103D400012161306E407F50798F0621B730B840B39
:103D5000950B39F40A2661F0232B242B252B21F413
:103D600008950A2609F4A140A6958FEF811D811DB3
:103D7000089597F99F6780E870E060E008959FEFED
:103D800080EC089500240A941616170618060906F2
:103D9000089500240A9412161306140605060895C1
:103DA000092E0394000C11F4882352F0BB0F40F449
:103DB000BF2B11F460FF04C06F5F7F4F8F4F9F4F89
:103DC000089557FD9058440F551F59F05F3F71F00B
:103DD0004795880F97FB991F61F09F3F79F0879572
:103DE0000895121613061406551FF2CF4695F1DFFB
:103DF00008C0161617061806991FF1CF869571058B
:103E0000610508940895E894BB2766277727CB01BE
:103E100097F908950E94951E08F48FEF08950E9467
:103E2000221F0C94D01E0E94C21E38F00E94C91E90
:103E300020F0952311F00C94B91E0C94BF1E112490
:103E40000C94041F0E94E11E70F3959FC1F3950F1F
:103E500050E0551F629FF001729FBB27F00DB11D0E
:103E6000639FAA27F00DB11DAA1F649F6627B00D9E
:103E7000A11D661F829F2227B00DA11D621F739F87
:103E8000B00DA11D621F839FA00D611D221F749F95
:103E90003327A00D611D231F849F600D211D822FDC
:103EA000762F6A2F11249F5750409AF0F1F0882303
:103EB0004AF0EE0FFF1FBB1F661F771F881F915030
:103EC0005040A9F79E3F510580F00C94B91E0C9408
:103ED000041F5F3FE4F3983ED4F38695779567958A
:103EE000B795F795E7959F5FC1F7FE2B880F911D5A
:103EF0009695879597F908950E94951E880B990BC2
:103F00000895A1E21A2EAA1BBB1BFD010DC0AA1F1A
:103F1000BB1FEE1FFF1FA217B307E407F50720F032
:103F2000A21BB30BE40BF50B661F771F881F991FAD
:103F30001A9469F760957095809590959B01AC01F6
:103F4000BD01CF010895EE0FFF1F881F8BBF0790A3
:103F5000F691E02D19940E94B61FA59F900DB49F75
:103F6000900DA49F800D911D11240895A29FB00172
:103F7000B39FC001A39F700D811D1124911DB29F9D
:103F8000700D811D1124911D08950F931F93CF93E0
:103F9000DF938230910510F482E090E0E091FC061E
:103FA000F091FD0630E020E0B0E0A0E0309799F419
:103FB0002115310509F44AC0281B390B243031057D
:103FC000D8F58A819B816115710589F1FB01938385
:103FD0008283FE0111C04081518102811381481703
:103FE0005907E0F04817590799F4109761F01296B5
:103FF0000C93129713961C933296CF01DF91CF91B9
:104000001F910F9108950093FC061093FD06F4CFC5
:104010002115310551F04217530738F0A901DB0192
:104020009A01BD01DF01F801C1CFEF01F9CF9093F3
:10403000FD068093FC06CDCFFE01E20FF31F8193B6
:1040400091932250310939832883D7CF2091FA06E2
:104050003091FB06232B41F4209107023091080296
:104060003093FB062093FA06209105023091060258
:104070002115310541F42DB73EB740910902509109
:104080000A02241B350BE091FA06F091FB06E217B9
:10409000F307A0F42E1B3F0B2817390778F0AC016B
:1040A0004E5F5F4F2417350748F04E0F5F1F509348
:1040B000FB064093FA06819391939FCFF0E0E0E0F6
:1040C0009CCFCF93DF930097E9F0FC0132971382E6
:1040D0001282A091FC06B091FD06ED0130E020E0D7
:1040E0001097A1F420813181820F931F2091FA064D
:1040F0003091FB062817390709F061C0F093FB06E1
:10410000E093FA06DF91CF910895EA01CE17DF0719
:10411000E8F54A815B819E0141155105B1F7E9013E
:10412000FB83EA8349915991C40FD51FEC17FD0712
:1041300061F4808191810296840F951FE901998332
:104140008883828193819B838A83F0E0E0E01296EA
:104150008D919C9113970097B9F52D913C911197F2
:10416000CD010296820F931F2091FA063091FB0633
:104170002817390739F6309751F51092FD0610923D
:10418000FC06B093FB06A093FA06BCCFD383C28390
:1041900040815181840F951FC817D90761F44E5F84
:1041A0005F4F88819981480F591F518340838A81CD
:1041B0009B81938382832115310509F0B0CFF09361
:1041C000FD06E093FC069ECFFD01DC01C0CF13820B
:1041D0001282D7CFFB01DC0104C08D9101908019C0
:1041E00021F441505040C8F7881B990B0895FB01FA
:1041F000DC014150504048F001900D920020C9F779
:1042000001C01D9241505040E0F7089511E0C1E611
:10421000D1E000E006C0802FFE010E94A31F21967E
:10422000011DC236D10780E00807A9F7F894FFCF37
:10423000FFFFFFFF010000FE0680000000000003FA
:104240000FE60ED60EAD0EB60E381042100000006E
:1042500000C2032C0359030F048A0368037C030084
:104260000000004C0E2C03460C6610000000007984
:10427000042C0367107804D504EB046004000000EC
:104280000029122C03671066106E616E00696E665D
:10429000006F7666000D0A0020562C20437572725E
:1042A000656E743A200020412C20506F7765723A79
:1042B0002000205700446174612073656E74206F84
:1042C00076657220426C7565746F6F74682E00504D
:1042D0006F776572204D6574657200534420636189
:1042E000726420696E697469616C697A65642E0014
:1042F000534420496E69742053756363657373007A
:104300005344206361726420696E697469616C69E9
:104310007A6174696F6E206661696C65642100530F
:104320004420496E6974204661696C656400426C82
:104330007565746F6F746820696E697469616C6902
:104340007A65642E00506F7765723A00566F6C7410
:104350006167653A0020560043757272656E743A63
:104360000020410020412C20566F6C746167653A33
:10437000200020562C20506F7765723A200044614F
:104380007461206C6F6767656420746F20534420EC
:10439000636172642E004572726F72206F70656E79
:1043A000696E6720646174616C6F672E7478740045
:00000001FF
