:100000000C9462010C9493010C9493010C94930151
:100010000C9493010C9493010C9493010C94930110
:100020000C9493010C940A170C940A170C940A1759
:100030000C9493010C9493010C9493010C949301F0
:100040000C9493010C9493010C9493010C949301E0
:100050000C9493010C9493010C9493010C946016EE
:100060000C9493010C94D4160C94AA160C9493013E
:100070000C9493010C9493010C9493010C949301B0
:100080000C9493010C9493010C9493010C949301A0
:100090000C9493010C9493010C9493010C94930190
:1000A0000C9493010C9493010C9493010C94930180
:1000B0000C9493010C9493010C9493010C94930170
:1000C0000C9493010C9493010C9493010C94930160
:1000D0000C9493010C9493010C9493010C94930150
:1000E0000C9493010C94FD040C9419020C949C0341
:1000F0000C94E80E0C94F2010C9486170C94781072
:100100000C9472040C9413020C943B120C948B0408
:100110000C9435020C9423020C94C80E0C948A049F
:100120000C9439020C9410020C9454100C94210479
:100130000C94F80E0C9408020C9404020C943102F6
:100140000C943F020C9443020C943E030C940C025A
:100150000C942B020C945E0E0C9479100C944A10A3
:100160000C947A030C94ED010C94150F0C948E03EF
:100170000C94D4030C94681F0C9427020C941D0259
:100180000C946B030C94580C0C94BF0E0C94E70465
:100190007C3C3E5E2B3D3F2F5B5D3B2C2A225C006E
:1001A00000002100240027002A002D003000330029
:1001B00001010000040107010A0100000A0B020905
:1001C0000C0D0E08070304010000000000000000F1
:1001D000000000000000000000000000000000001F
:1001E00000000000000012111000000000000000DC
:1001F00000000000000000000000000000000000FF
:10020000000020002300260029002C002F003200CF
:100210000001000003010601090100002200250081
:1002200028002B002E0031003400020100000501DF
:1002300008010B0105050505070508080808020265
:1002400002020A0A08080404040401010101010170
:1002500001010303030303030303040707070C0C53
:100260000C0C0C0C0C0C020202020606060606061A
:1002700006060B0B0B0B0B0B0B0B010210202008BF
:1002800008102040102040800201020108040201F1
:100290000102040810204080804020100804020160
:1002A00080040201804020100804020108040201B9
:1002B0000102040810204080010204081020408040
:1002C0008617681F11241FBECFEFD1E2DEBFCDBF5E
:1002D00000E00CBF15E0A0E0B2E0EEEAF6E400E0DA
:1002E0000BBF02C007900D92AA3CB107D9F729E0D5
:1002F000AAECB5E001C01D92A834B207E1F711E005
:10030000C1E6D1E000E006C021970109802FFE017F
:100310000E94E221C036D10780E00807A9F70E94B9
:100320008E180C9445230C940000E5E2F8E0A089B7
:10033000B18982E08C93A485B5851C92A685B7858A
:100340008FEC8C93108EA489B58986E08C93A2895A
:10035000B3898C9180618C93A289B3898C918860D8
:100360008C93A289B3898C9180688C930288F389DD
:10037000E02D80818F7D80830895282F30E0F90162
:10038000E654FE4F9491F901E658FD4F44912C5CE0
:100390003D4FF9012491222309F435C0992311F12D
:1003A00091509231F8F4E92FF0E08827E552FE4FA2
:1003B0008F4F0C94E2210C021002ED01040208029E
:1003C000F201130219021D02230227022B0231023D
:1003D0003502F20139023F024302809180008F779B
:1003E00080938000E22FF0E0EE0FFF1FE65EFD4FEE
:1003F000A591B4918FB7F894EC91611148C04095E4
:100400004E234C938FBF0895809180008F7DE8CF5D
:1004100080918000877FE4CF84B58F7784BDE2CF61
:1004200084B58F7DFBCF8091B0008F778093B00033
:10043000D9CF8091B0008F7DF9CF809190008F77D8
:1004400080939000CFCF809190008F7DF9CF8091E5
:100450009000877FF5CF8091A0008F778093A000D8
:10046000C1CF8091A0008F7DF9CF8091A000877FC0
:10047000F5CF809120018F7780932001B3CF8091B9
:1004800020018F7DF9CF80912001877FF5CF4E2B02
:10049000B8CFCF93DF9390E0FC01E658FD4F249155
:1004A0008C5C9D4FFC0184918823D1F090E0880FF3
:1004B000991FFC01E056FE4FA591B491FC01E65E48
:1004C000FD4FC591D49161110EC09FB7F8948C91E6
:1004D000E22FE0958E238C932881E223E8839FBF4F
:1004E000DF91CF9108958FB7F894EC91E22BEC93C4
:1004F0008FBFF6CF863308F0865320917B00982F6C
:100500009870277F922B90937B00877080648093F4
:100510007C0080917A00806480937A0080917A00D8
:1005200086FDFCCF80917800909179000895CF925C
:10053000DF92EF92FF9286E30E947A029250BC0112
:10054000990F880B990B0E94992020E030E040EA37
:100550005BE30E944E2120E030E040EF51E40E9436
:10056000F61F6B017C0120E030E0A9010E944921C7
:10057000181624F0F7FAF094F7F8F094C701B601D2
:10058000FF90EF90DF90CF90089587E30E947A026A
:10059000BC01990F880B990B0E94992020E030E054
:1005A00040EA5BE30E944E212FE832E44AE653E43E
:1005B0000E944E2108953FB7F89480911F069091B4
:1005C0002006A0912106B091220626B5A89B05C061
:1005D0002F3F19F00196A11DB11D3FBFBA2FA92FC2
:1005E000982F8827BC01CD01620F711D811D911DBF
:1005F00042E0660F771F881F991F4A95D1F708952B
:100600008F929F92AF92BF92CF92DF92EF92FF9222
:100610004B015C010E94DB026B017C010E94DB024A
:100620006C197D098E099F09683E7340810591050B
:10063000A8F321E0821A9108A108B10888EEC80E3B
:1006400083E0D81EE11CF11C81149104A104B104C3
:1006500029F7FF90EF90DF90CF90BF90AF909F90E1
:100660008F9008952FB7F89460911B0670911C0627
:1006700080911D0690911E062FBF0895AF92BF92E4
:10068000CF92DF92EF92FF920F931F93CF93DF935E
:100690006C017B018B01040F151FEB015E01AE188D
:1006A000BF08C017D10759F06991D601ED91FC91AF
:1006B0000190F081E02DC6011995892B79F7C501CC
:1006C000DF91CF911F910F91FF90EF90DF90CF902E
:1006D000BF90AF900895FC01538D448D252F30E0DD
:1006E000842F90E0821B930B541710F0CF9608953F
:1006F00001970895FC01918D828D981761F0A28D6C
:10070000AE0FBF2FB11D5D968C91928D9F5F9F7331
:10071000928F90E008958FEF9FEF0895FC01918DE7
:10072000828D981731F0828DE80FF11D858D90E054
:1007300008958FEF9FEF0895FC01918D228D892FF1
:1007400090E0805C9F4F821B91098F7399270895D9
:1007500085E298E00E949C0321E0892B09F420E0C7
:10076000822F0895FC01A48DA80FB92FB11DA35AA3
:10077000BF4F2C91848D90E001968F739927848FC1
:10078000A689B7892C93A089B1898C9183708064E4
:100790008C93938D848D981306C00288F389E02D85
:1007A00080818F7D80830895EF92FF920F931F9336
:1007B000CF93DF93EC0181E0888F9B8D8C8D981314
:1007C0001AC0E889F989808185FF15C09FB7F89420
:1007D000EE89FF896083E889F9898081837080646C
:1007E00080839FBF81E090E0DF91CF911F910F91B7
:1007F000FF90EF900895F62E0B8D10E00F5F1F4FC6
:100800000F731127E02E8C8D8E110CC00FB607FCD4
:10081000FACFE889F989808185FFF5CFCE010E9462
:10082000B203F1CFEB8DEC0FFD2FF11DE35AFF4F1B
:10083000F0829FB7F8940B8FEA89FB8980818062F0
:10084000CFCFCF93DF93EC01888D8823B9F0AA89AD
:10085000BB89E889F9898C9185FD03C0808186FD7B
:100860000DC00FB607FCF7CF8C9185FFF2CF8081CA
:1008700085FFEDCFCE010E94B203E9CFDF91CF918A
:10088000089580E090E0892B29F00E94A80381114F
:100890000E94000080E090E0892B49F080E090E029
:1008A000892B29F00E94000081110E94000080E045
:1008B00090E0892B49F080E090E0892B29F00E949C
:1008C000000081110E94000080E090E0892B49F037
:1008D00080E090E0892B29F00E94000081110C94A7
:1008E0000000089520911406309115062817390745
:1008F00071F49091120680911306981741F0E091DF
:100900001206F0E0EF52FA4F808190E008958FEFE9
:100910009FEF08950895EF92FF920F931F93CF9347
:10092000DF93DC015C96ED90FC905D97E114F1049F
:1009300079F481E090E013969C938E93129790E067
:1009400080E0DF91CF911F910F91FF90EF9008957C
:100950005196ED91FC91529750968C915097982F0B
:1009600090950FB75E962C915E97122F127021FD15
:100970006095F8942081112319F1282B2083E70139
:100980002197F1F728E0462F50E0308160FF1AC030
:10099000382B3083E7012197F1F7BA0175956795F8
:1009A000215089F7112381F08081892380830FBF33
:1009B0005C968D919C910197F1F781E090E0C1CF19
:1009C0002923DCCF3923E5CF9081892BEFCF2091EC
:1009D0001406309115062817390761F48091130623
:1009E0002091120690E0805C9F4F821B91098F73CB
:1009F0009927089590E080E00895209114063091A1
:100A0000150628173907B9F490911206809113063C
:100A1000981789F0E0911206F0E0EF52FA4F8081CA
:100A20002091120630E02F5F3F4F2F733327209322
:100A3000120690E008958FEF9FEF08958FB7F89416
:100A40008091CB058FBF089561E0FC0184810E94F5
:100A5000BD018091CA0581111092CA0508958EBD0D
:100A600000000DB407FEFDCF8EB508958FEF0C94F6
:100A70002F050F931F93CF93DF93EC010E94320356
:100A80008B010E9436058F3F69F00E943203601B84
:100A9000710B6C177D07A8F380E0DF91CF911F9158
:100AA0000F91089581E0F9CF8CBD9DBD0895CF933E
:100AB000DF93EC018091CA05811109C081E0809328
:100AC000CA058091C2089091C3080E94540560E055
:100AD0008C81DF91CF910C94BD018F929F92AF9248
:100AE000BF92FF920F931F93CF93DF93EC01F62EEB
:100AF00049015A018E81882389F08F8198859C0154
:100B00002F5F3F4F38872F838230924018F40E9426
:100B10003605F3CFCE010E9424051E82CE010E942D
:100B200057058CE291E00E9439058F2D80640E9468
:100B30002F0508E110E0D501C401002E04C0B695D0
:100B4000A795979587950A94D2F70E942F0508508C
:100B50001109083F8FEF180771F785E9FF2021F091
:100B600028E087E8F2128FEF0E942F0510E00E9424
:100B700036058A8787FF04C01F3F11F01F5FF7CF3C
:100B8000DF91CF911F910F91FF90BF90AF909F90F9
:100B90008F900895AF92BF92CF92DF92EF92FF9223
:100BA0000F931F93CF93DF93EC016901C801820F6C
:100BB000931F8130924050F58E81882379F088818F
:100BC0009981AA81BB8184179507A607B70731F4DD
:100BD0008F819885C816D90608F042C0488359838A
:100BE0006A837B838B85833039F089E0440F551FFE
:100BF000661F771F8A95D1F79A01AB0161E1CE019B
:100C00000E946D05882389F083E08D83CE010E94C8
:100C1000240580E0DF91CF911F910F91FF90EF901D
:100C2000DF90CF90BF90AF9008950E9432035B0198
:100C30000E9436058A878F3F69F40E9432036A1941
:100C40007B096D327140A0F38FE08D83CE010E944D
:100C50002405DCCF8E3F89F418861F8281E08E83C5
:100C60008F8198858C159D0550F40E9436058F81E3
:100C70009885019698878F83F3CF8DE0E6CF670143
:100C8000E00EF11E0E943605F60181936F01EE150C
:100C9000FF05C1F78F819885080F191F18870F83EB
:100CA0008985882319F001151240A0F08E818823D0
:100CB00089F08F8198859C012F5F3F4F38872F8364
:100CC0008230924018F40E943605F3CFCE010E9484
:100CD00024051E8281E09ECFCF92DF92EF92FF9299
:100CE0000F93CF93DF93EC01690182E14115510528
:100CF0006105710599F08B85833039F089E0440FE7
:100D0000551F661F771F8A95D1F79A01AB0168E1DD
:100D1000CE010E946D05882319F084E08D832DC0DB
:100D20008EEF0E942F0576018EEFD81AF701819180
:100D30007F010E942F05EC14FD04C1F78FEF0E9484
:100D40002F058FEF0E942F050E9436058A878F712D
:100D5000853071F4011116C0CE010E94240581E096
:100D6000DF91CF910F91FF90EF90DF90CF9008959A
:100D700081E18D83CE010E942405CE010E942405CD
:100D800080E0EECF88E592E00E943905811102C033
:100D900085E1C4CF20E030E0A9016DE0CE010E94E2
:100DA0006D05882311F084E1B9CF0E9436058111C9
:100DB000FACFD2CF0F934091CD055091CE056091DF
:100DC000CF057091D005411551056105710599F068
:100DD000082F23E236E080912308909124080E9496
:100DE0006C06882349F01092CD051092CE05109222
:100DF000CF051092D00581E00F9108950F93CF9306
:100E0000C82F8091CC05811105C0C1E08C2FCF91F6
:100E10000F910895409100025091010260910202E9
:100E2000709103020C2F23E236E080912308909109
:100E300024080E946C06811102C0C0E0E7CFCC23D9
:100E400021F381E00E94DA068823B9F31092CC05E1
:100E5000DDCF8F929F92AF92BF92EF92FF920F934E
:100E60001F93CF934B015C01C42F8091000290919E
:100E70000102A0910202B091030288159905AA050A
:100E8000BB0551F181E00E94FE0681110BC080E09C
:100E9000CF911F910F91FF90EF90BF90AF909F90D7
:100EA0008F90089583E2E82E86E0F82E00E012E0AD
:100EB00030E020E0B501A40180912308909124083E
:100EC0000E94CA05882319F38092000290920102C1
:100ED000A0920202B09203024091CC054C2B4093A9
:100EE000CC0581E0D5CF8F929F92AF92BF92CF92E7
:100EF000DF92EF92FF92CF9324EC38E030932408F6
:100F000020932308882309F46DC040E060E070E07E
:100F1000CB010E94290781110BC080E0CF91FF9087
:100F2000EF90DF90CF90BF90AF909F908F900895FB
:100F30008091E1078F7789F78091ED079091EE0717
:100F4000A091EF07B091F00784369105A105B10596
:100F500020F3C090E907D090EA07E090EB07F0900B
:100F6000EC07C114D104E104F104B9F240E0C70177
:100F7000B6010E942907882381F280912E06909164
:100F80002F068115924049F6A0913306AA2329F233
:100F900060913106709132066115710509F4BDCF7B
:100FA00020913006222309F4B8CFA093E2082093C1
:100FB000D40890E080E030E0E1E0F0E0C82FAF013D
:100FC000082E02C0440F551F0A94E2F72417350774
:100FD00069F041E0480F01968930910579F7409317
:100FE000DD089BCFC12CD12C7601C0CF8093DD08CA
:100FF0002091390630913A0650E040E02115310544
:1010000041F420914706309148064091490650919D
:101010004A062093D5083093D6084093D7085093BA
:10102000D80846015701860E971EA11CB11C80925C
:10103000E3089092E408A092E508B092E608E091F7
:101040003406F0913506F093E908E093E808B0E043
:101050000E94EA21DC01CB01880D991DAA1DBB1D50
:101060008093EA089093EB08A093EC08B093ED0806
:1010700025E0EE0FFF1F2A95E1F7E150FE4FEF2F1D
:10108000FF27E6958E0F9F1FA11DB11D8093DE08DF
:101090009093DF08A093E008B093E10880903606B3
:1010A00090903706B12CA12C8114910441F48090CA
:1010B000430690904406A0904506B0904606C81A94
:1010C000D90AEA0AFB0AC80CD91CEA1CFB1C04C09A
:1010D000F694E794D794C794CA95D2F7C092D908EA
:1010E000D092DA08E092DB08F092DC0885EFC816AF
:1010F0008FE0D806E104F10428F48CE08093E7083F
:1011000081E00CCF80E125EFC2162FEFD206E1047B
:10111000F104A0F380914F0690915006A0915106E2
:10112000B09152068093EA089093EB08A093EC08E4
:10113000B093ED0880E2E2CF4F925F926F927F9280
:101140008F929F92AF92BF92CF92DF92EF92FF92D7
:101150000F931F93CF93DF93EC014230510561054C
:10116000710590F480E0DF91CF911F910F91FF9076
:10117000EF90DF90CF90BF90AF909F908F907F9037
:101180006F905F904F90089589859A85AB85BC8557
:101190000196A11DB11D84179507A607B70710F387
:1011A000CB88DC88ED88FE888F89803109F042C0C9
:1011B000BB27A72F962F852F480159012A013B01F4
:1011C000C80ED91EEA1EFB1E8091000290910102FA
:1011D000A0910202B0910302C816D906EA06FB06E6
:1011E00099F58F898031C1F5B301A2015527662792
:1011F0007727440F551F4D5D594FFA019182808228
:101200008091CC0581608093CC058A89823080F002
:101210008D819E81AF81B8858C0D9D1DAE1DBF1D3A
:101220008093CD059093CE05A093CF05B093D005C4
:1012300081E099CFDB01CA01E7E0B695A7959795C4
:101240008795EA95D1F7B8CF40E0C701B6010E9473
:1012500029078111C6CF86CFB301A2014F77552749
:1012600066277727440F551F440F551F4D5D594F73
:10127000FA0180829182A282B382C2CF8F929F9222
:10128000AF92BF92CF92DF92EF92FF920F931F9394
:10129000CF93DF93FC0181859285A385B485019668
:1012A000A11DB11D84179507A607B70770F480E04C
:1012B000DF91CF911F910F91FF90EF90DF90CF9032
:1012C000BF90AF909F908F90089583889488A58851
:1012D000B6888789803189F5BB27A72F962F852F60
:1012E000E9016A017B018F01BC01CD01680D791D07
:1012F0008A1D9B1D8090000290900102A090020226
:10130000B090030286169706A806B90601F5F80103
:101310008789803111F5DD24EE24FF24F601EE0FDC
:10132000FF1FED5DF94F80819181B0E0A0E08883DF
:101330009983AA83BB8381E0BBCFDB01CA01C7E0ED
:10134000B695A79597958795CA95D1F7C9CF40E0EF
:101350000E9429078111DBCFAACFE894C7F8DD24CA
:10136000EE24FF24F601EE0FFF1FEE0FFF1FED5DD1
:10137000F94F80819181A281B381BF70D8CF4F9204
:101380005F926F927F92AF92BF92CF92DF92EF9275
:10139000FF920F931F93CF93DF9300D01F92CDB78F
:1013A000DEB78C0149835A836B837C835901C12C3E
:1013B000D12C7601412C82E0582E612C712C498170
:1013C0005A816B817C819E012F5F3F4FC8010E9433
:1013D0003E09882339F1F8018585A301920104C0F3
:1013E000220F331F441F551F8A95D2F7DA01C90116
:1013F000C80ED91EEA1EFB1E49815A816B817C8171
:101400008789803111F188EF9FEFAFEFBFE0481778
:1014100059076A077B0798F2F501C082D182E28200
:10142000F38281E00F900F900F900F90DF91CF919A
:101430001F910F91FF90EF90DF90CF90BF90AF90F2
:101440007F906F905F904F90089588EF9FEFA0E09E
:10145000B0E0DDCFCF93DF93FC012581222321F083
:1014600080E0DF91CF910895EC018091E708803111
:1014700059F582E08583178A108E118E128E809125
:10148000E8089091E908B0E0A0E025E0880F991FF6
:10149000AA1FBB1F2A95D1F7838B948BA58BB68B84
:1014A00080ED98E09C8F8B8F81E08C831E821F8261
:1014B000188619861A861B861C861D861E861F8620
:1014C000188A198A1A8ACDCF803251F683E0858333
:1014D0004091EA085091EB086091EC087091ED089A
:1014E000478B508F618F728F9F012D5E3F4F80ED34
:1014F00098E00E94BF098111D3CFB2CF8F929F9203
:10150000AF92BF92CF92DF92EF92FF920F931F9311
:10151000CF93DF93EC018D8181110EC080E0DF91CC
:10152000CF911F910F91FF90EF90DF90CF90BF90E0
:10153000AF909F908F9008950B891C892D893E89CB
:10154000041715072607370748F34A015B01823065
:1015500031F48A869B86AC86BD8681E0E0CF81141B
:101560009104A104B10449F41E821F8218861986D1
:101570001A861B861C861D86F0CF0A851B852C8546
:101580003D85EB8DFC8D858590E00996B901A8011C
:101590004150510961097109082E04C0769567957B
:1015A000579547950A94D2F775016401E1E0CE1A88
:1015B000D108E108F10804C0F694E794D794C794E1
:1015C0008A95D2F7C416D506E606F70620F0012B59
:1015D000022B032B11F58F89988DA98DBA8D8E83DF
:1015E0009F83A887B9878E010A5F1F4FC114D1045A
:1015F000E104F10409F4ADCF4E815F8168857985FE
:1016000098018B8D9C8D0E943E0991E0C91AD108EA
:10161000E108F1088111EACF81CFC41AD50AE60AA0
:10162000F70AE1CF3F924F925F926F927F928F9233
:101630009F92AF92BF92CF92DF92EF92FF920F9361
:101640001F93CF93DF93CDB7DEB72C970FB6F894E7
:10165000DEBF0FBECDBF5C01DC015B968D909C9020
:101660005C9716964D905D906D907C901997411403
:1016700051046104710409F468C0BFEF4B1A5B0A9E
:101680006B0A7B0A312CF40181859285A385B48590
:101690009C01AD012F5F3F4F4F4F5F4F29873A8726
:1016A0004B875C87730162011D821E821F82188630
:1016B000F40181859285A385B4852D813E814F817A
:1016C0005885281739074A075B0708F056C08985EF
:1016D0009A85AB85BC858C159D05AE05BF0550F47C
:1016E00082E0C82ED12CE12CF12C92E0492E512C15
:1016F000612C712C9E012F5F3F4FB701A601C401E1
:101700000E943E098823C9F189819A81AB81BC81FD
:10171000892B8A2B8B2B09F1260137019FEF491A60
:10172000590A690A790A2D813E814F8158852F5FB8
:101730003F4F4F4F5F4F2D833E834F8358873FEF7F
:10174000C31AD30AE30AF30AB3CFF40140805180ED
:10175000628073803324339496CFC414D504E60496
:10176000F70409F70FEF1FEF2FEF3FE0B701A601D6
:10177000C4010E949C08811119C080E02C960FB60C
:10178000F894DEBF0FBECDBFDF91CF911F910F91B7
:10179000FF90EF90DF90CF90BF90AF909F908F9091
:1017A0007F906F905F904F903F900895D50116966F
:1017B0004D915D916D917C91199741155105610590
:1017C000710539F097018601C4010E949C088823A5
:1017D000A1F2D5011696CD92DD92ED92FC92199769
:1017E000332051F0D701C6010196A11DB11DF401AE
:1017F00080839183A283B383F5018789908DA18D26
:10180000B28D892B8A2B8B2B39F48481C78AD08E99
:10181000E18EF28E80688483F50184818062848306
:1018200081E0ACCF1F93CF93DF93FC01258122236E
:10183000D1F1162FEC01848187FF2AC06685778558
:101840008089918941E00E942907882361F1EA8912
:1018500080E2E89FF0011124ED5DF94F309719F116
:101860008D81823040F48B899C89AD89BE89848FBB
:10187000958FA68FB78F8F89988D938F828F8F8941
:10188000988DA98DBA8DB58BA48B8C818F778C8325
:10189000111103C08C818F7E8C83812FDF91CF91BA
:1018A0001F910C94FE0680E0DF91CF911F91089567
:1018B000FF920F931F93CF93DF93EC018D818130C3
:1018C00041F090E080E0DF91CF911F910F91FF9068
:1018D00008958C8181FFF5CF82FD1BC00091230804
:1018E00010912408C8010E9457050E943605F82E61
:1018F000C8010E9424058FEFF812E3CF8C8185FF89
:101900001BC060E0CE010E94120C8C818F7D8C8305
:10191000D8CF4B895C896D897E898A859B85AC850A
:10192000BD8584179507A607B707C1F2CE010E94AF
:101930007E0A8111D3CFC5CF4091CD055091CE0500
:101940006091CF057091D005452B462B472B21F098
:1019500080E00E94DA06B5CF80618C832A853B85C2
:10196000317080E092E0821B930BADCFCF93DF9379
:10197000EC0161E00E94120C882311F01D8281E0CD
:10198000DF91CF9108952F923F924F925F926F9285
:101990007F928F929F92AF92BF92CF92DF92EF92FF
:1019A000FF920F931F93CF93DF9300D01F921F924C
:1019B000CDB7DEB77C015B01342E5D83DC0115966B
:1019C0008C911597813009F0CEC014962C9021FE91
:1019D000CAC022FCB4C0C32CDD8022947FE0272241
:1019E0002094B22DB1702B2ED7011A964D915D9196
:1019F0006D917C911D97C114D10409F428C15B96A7
:101A00008D919C915C97FC0174807A948A019B0172
:101A100069E036952795179507956A95D1F7702255
:101A20008A011170711020C001151105E9F4169694
:101A30004D915D916D917C9119974115510561050D
:101A4000710509F099C057968D919D910D90BC91AB
:101A5000A02D0097A105B10509F0B0C0C7010E94F3
:101A6000120B882309F47FC080E092E0801B910B69
:101A700046018C159D0508F44C01D7015B964D91EC
:101A80005C915C9716968D919D910D90BC91A02DC7
:101A90000297A109B109FA01258504C0880F991F91
:101AA000AA1FBB1F2A95D2F7468557856089718981
:101AB000840F951FA61FB71F9C01AD01270D311D77
:101AC000411D511D29013A01811432E0930609F0AC
:101AD0007BC08091000290910102A0910202B0911E
:101AE000030284159505A605B70559F48FEF9FEFFE
:101AF000DC018093000290930102A0930202B09354
:101B00000302022D9501B301A20180912308909157
:101B100024080E946C06882331F19EEFB91AC81878
:101B2000D908F70182859385A485B585880D991D0F
:101B3000A11DB11D82879387A487B58755CFF70173
:101B4000438954896589768982859385A485B5857D
:101B5000481759076A077B0709F43DCFC7010E9460
:101B60007E0A811138CF81E090E0D70113969C93D3
:101B70008E93129780E007C09E012F5F3F4F0E9417
:101B80003E09811102C090E079C089819A81AB81C0
:101B9000BC81F701238D348DF901278948EF5FEF70
:101BA00060E070E0203121F048EF5FEF6FEF7FE001
:101BB00084179507A607B70708F050CFF70186836B
:101BC0009783A087B18750CF0115110599F5D701EB
:101BD0001A964D915D916D917C911D9753968D91C3
:101BE0009D910D90BC91A02D481759076A077B075E
:101BF00008F181E00E94FE06882309F4B4CF4092E8
:101C000000025092010260920202709203028091DF
:101C1000CC0581608093CC05C8018D5D994FD501BD
:101C20009C01280D391DFC012E173F0759F04D91DD
:101C30004193FACF41E0C301B2010E94290781110B
:101C4000EBCF91CF281B390BA20EB31E68CFF70143
:101C500083899489A589B68984179507A607B7074C
:101C600038F48481438B548B658B768B80688483B6
:101C7000F701848183FD1AC0832D9D810F900F9001
:101C80000F900F900F90DF91CF911F910F91FF90C8
:101C9000EF90DF90CF90BF90AF909F908F907F900C
:101CA0006F905F904F903F902F90089561E0C70133
:101CB0000E94120C882309F456CFDECFCF93DF9316
:101CC0001F92CDB7DEB7698341E050E0BE016F5F80
:101CD0007F4F0E94C30C0F90DF91CF910895FC01BC
:101CE000DB0112968D919C911397938382838BE3F2
:101CF00092E09183808314968C9114978483159637
:101D00008C911597858316964D915D916D917C917F
:101D1000199746835783608771871A964D915D9115
:101D20006D917C911D9742875387648775871E96B6
:101D30004D915D916D917C91519746875787608B4E
:101D4000718B52968C915297828B53964D915D91E7
:101D50006D917C915697438B548B658B768B579600
:101D60004D915D916D917C915A97478B508F618F0A
:101D7000728F5B968D919C91948F838F0895FC0157
:101D8000818D928D009719F061E00C94120C0895EA
:101D9000DC015996ED91FC913097B9F083899489D3
:101DA000A589B6894285538564857585841B950B05
:101DB000A60BB70B811520E89207A105B10538F0F5
:101DC0008FEF9FE7A0E0B0E0089590E080E00895F5
:101DD000DC0159968D919C91009739F0DC01ED91D1
:101DE000FC910480F581E02D199490E080E0089545
:101DF000CF93DF93EC01E98DFA8D309749F481E0C0
:101E000090E09B838A8390E080E0DF91CF910895FA
:101E100013821282898D9A8D0E94C30CE98DFA8DEE
:101E200022813381232B59F7F0CFCF93DF931F9279
:101E3000CDB7DEB76983DC01ED91FC910280F381BF
:101E4000E02D41E050E0BE016F5F7F4F19950F908C
:101E5000DF91CF9108952F923F924F925F926F92B0
:101E60007F928F929F92AF92BF92CF92DF92EF922A
:101E7000FF920F931F93CF93DF9300D0CDB7DEB7C0
:101E8000FC018581811118C08FEF9FEF0F900F909B
:101E90000F90DF91CF911F910F91FF90EF90DF9006
:101EA000CF90BF90AF909F908F907F906F905F90FA
:101EB0004F903F902F900895848180FFE5CF438914
:101EC00054896589768982859385A485B585312C69
:101ED000212C481759076A077B0719F022242394FD
:101EE000312C6F012101CE0101963C01DF011696D4
:101EF000BB83AA834114510409F4C5C0F60142858D
:101F00005385648575854A01F1E09F22D6015B9671
:101F10008D919C915C978A019B01E9E0369527950C
:101F200017950795EA95D1F71596EC91E230E9F50A
:101F3000FC01628D738D848D958D600F711F821FE2
:101F4000931FA12C22E0B22EA818B9084A145B04F2
:101F500008F45201F601248126FD04C0A114F2E028
:101F6000BF0671F40091000210910102209102025B
:101F700030910302061717072807390709F05EC0DA
:101F800040E00E942907882309F47ECFC4018D5DBB
:101F9000994FD3019C012A0D3B1DFC012E173F07D1
:101FA00009F46CC041914D93F9CFDC011496BC90BB
:101FB000BA94B0228114910479F4B1100DC0452B6C
:101FC000462B472B69F5F6018789908DA18DB28D3F
:101FD00086839783A087B187D6015B96ED91FC91AC
:101FE0005C9716966D917D918D919C911997625099
:101FF000710981099109258504C0660F771F881F23
:10200000991F2A95D2F70685178520893189600F97
:10201000711F821F931F6B0D711D811D911D91CF2B
:10202000D60116964D915D916D917C9119972A81FB
:102030003B810E943E098111CFCF26CF73018501DC
:102040009401AB01BC0180912308909124080E9467
:10205000CA05882309F418CF6A0C7B1CF601828517
:102060009385A485B5858A0D9B1DA11DB11D828711
:102070009387A487B5874A185B083CCF281B390B88
:10208000620E731EEBCF2A94232809F0FDCE8981BE
:1020900090E0FCCEFC01818D928D009711F00C94A4
:1020A0002B0F8FEF9FEF08950F931F93CF93DF9325
:1020B000EC01898D9A8D10E000E0009799F00E9464
:1020C0002B0F8C010F3F100769F0898D9A8DFC0151
:1020D00042855385648575854150510961097109AF
:1020E0000E947E0AC801DF91CF911F910F91089540
:1020F000089590E080E00895CF92DF92EF92FF92F2
:102100001F93CF93DF93EC0180E2689FF0011124CD
:10211000ED5DF94F9385917161F0842F827449F0E0
:1021200080E0DF91CF911F91FF90EF90DF90CF90F3
:102130000895142F6A8B8091000290910102A09162
:102140000202B09103028E879F87A88BB98BC48847
:10215000D588F12CE12C7601DD24CC24CF8AD88ED1
:10216000E98EFA8E828D938DB0E0A0E0AC01BD01C6
:102170004C295D296E297F294F8B588F698F7A8F63
:1021800083858871B1F4848D958DA68DB78D8B8BE9
:102190009C8BAD8BBE8B81E08D831F701C831E8258
:1021A0001F82188619861A861B861C861D8681E06A
:1021B000B8CF803109F0B4CF9E012D5E3F4F8B8D9B
:1021C0009C8D0E94BF09882309F4AACF84E0E4CF44
:1021D000CF93DF93EC0160E08E810E94BD0161E04E
:1021E0008E810E94BD0160E08E810E94BD018BE85E
:1021F00091E00197F1F7DF91CF910895CF92DF92AF
:10220000EF92FF920F931F93CF93DF936C017C01AA
:1022100087E0E80EF11CD0E0C0E0062F10E0B80126
:102220000C2E02C0759567950A94E2F76170F7016C
:1022300081917F010E94BD012196C430D10579F7BB
:10224000C601DF91CF911F910F91FF90EF90DF902A
:10225000CF900C94E810CF92DF92EF92FF920F9301
:102260001F93CF93DF93EC01F62E642F8C810E9495
:10227000BD018D818F3F19F060E00E94BD010F2DDF
:1022800010E08F8584FF25C06E0187E0C80ED11C49
:10229000F12CE12CB8010E2C02C0759567950A94BB
:1022A000E2F76170F60181916F010E94BD01FFEFBD
:1022B000EF1AFF0A88E0E816F10461F7CE01DF911A
:1022C000CF911F910F91FF90EF90DF90CF900C94E2
:1022D000E810B80184E0759567958A95E1F7CE011D
:1022E0000E94FE106F2DCE01DF91CF911F910F91B3
:1022F000FF90EF90DF90CF900C94FE1040E0682F9D
:102300008CE299E00C942B1181E00E947E118BE30A
:102310009FE10197F1F70895CF93DF93823029F47D
:1023200090913B09986090933B0980933F091092EC
:10233000400980E48093410980E18093420980E56F
:102340008093430961E0809130090E9449028091A5
:1023500031098F3F19F061E00E94490261E08091EC
:1023600032090E944902CCE2D9E09E012C52394048
:1023700080913B0984FD0BC084E090E021962817F2
:10238000390744F461E08E810E944902EECF88E073
:1023900090E0F4CF8BE39DE00197F1F760E080914E
:1023A00030090E94BD0160E0809132090E94BD01A8
:1023B000809131098F3F19F060E00E94BD0180914A
:1023C0003B0984FD34C063E08CE299E00E94FE107A
:1023D000CBE4D6E4CE010197F1F763E08CE299E01B
:1023E0000E94FE102197F1F763E08CE299E00E94D1
:1023F000FE1083E592E00197F1F762E08CE299E04C
:102400000E94FE1080913B0980620E947E1184E050
:1024100080933C098CE00E947E110E94841182E02E
:1024200080933D0986E0DF91CF910C947E1180620C
:102430000E947E118BE496E40197F1F780913B09AD
:1024400080620E947E1183E592E00197F1F780910E
:102450003B0980620E947E11D5CF90913F09891778
:1024600010F08FEF890FE82FF0E0E45DF64F8489DC
:1024700080680C947E1141E00E942B1181E090E075
:102480000895FB0101900020E9F73197AF01461B49
:10249000570BDC01ED91FC910280F381E02D199442
:1024A0008F929F92AF92BF92EF92FF920F931F93E2
:1024B000CF93DF93CDB7DEB7A1970FB6F894DEBF09
:1024C0000FBECDBF7C01FA01CB0119A2223008F466
:1024D0002AE08E010F5D1F4F822E912CB12CA12C72
:1024E000BF01A50194010E94C021F901CA016A300F
:1024F0000CF5605DD8016E938D01232B242B252BC9
:1025000079F790E080E0109721F0BD01C7010E94AB
:102510004112A1960FB6F894DEBF0FBECDBFDF917A
:10252000CF911F910F91FF90EF90BF90AF909F9030
:102530008F900895695CDECF2F923F924F925F9209
:102540006F927F928F929F92AF92BF92CF92DF92C3
:10255000EF92FF921F93CF93DF93EC016A017B010F
:10256000722EAB019601CB01B6010E94BB2161E640
:1025700072E0811126C046015701E894B7F82FEFA9
:102580003FEF4FE75FE7C501B4010E94BB21811116
:102590000CC02FEF3FEF4FE75FE7C501B4010E948A
:1025A000F11F65E672E0181664F02FEF3FEF4FE77A
:1025B0005FE4C701B6010E9449211816B4F469E628
:1025C00072E0CE01DF91CF911F91FF90EF90DF90ED
:1025D000CF90BF90AF909F908F907F906F905F90C3
:1025E0004F903F902F900C9441122FEF3FEF4FE709
:1025F0005FECC701B6010E94F11F87FDE0CF20E02C
:1026000030E0A901C701B6010E94F11F312C212C35
:1026100087FF0DC0E881F9810190F081E02D6DE226
:10262000CE0119951C01F7FAF094F7F8F09410E038
:1026300060E070E080E09FE3711641F020E030E060
:1026400040E251E40E94F61F1F5FF6CFA7019601FA
:102650000E94851F2B013C010E9468204B015C01F8
:102660002AE0BC01A401CE010E9450127C01E20CC0
:10267000F31C1123E1F1C501B4010E9497209B01D5
:10268000AC01C301B2010E94841F4B015C01E881CF
:10269000F9810190F081E02D6EE2CE011995E80EEE
:1026A000F91E115020F120E030E040E251E4C50174
:1026B000B4010E944E212B013C010E9468204B0175
:1026C000B12CA12C2AE0B501A401CE010E94501228
:1026D000E80EF91EC501B4010E9497209B01AC01D0
:1026E000C301B2010E94841F4B015C01DACFC70114
:1026F000DF91CF911F91FF90EF90DF90CF90BF902F
:10270000AF909F908F907F906F905F904F903F9091
:102710002F90089522E00C949C120F931F93CF9357
:10272000DF93EC0122E00E949C128C016DE672E0C6
:10273000CE010E944112800F911FDF91CF911F9116
:102740000F9108950F931F93CF93DF93EC010E9495
:1027500041128C016DE672E0CE010E944112800FA1
:10276000911FDF91CF911F910F9108950C94411209
:102770004F925F926F927F928F929F92AF92BF9291
:10278000CF92DF92EF92FF920F931F932B013C01A8
:1027900049015A0167016EE474E08DE099E00E94FE
:1027A000B613B301A2018DE099E00E948A1360E79D
:1027B00072E08DE099E00E94B613B501A4018DE0AE
:1027C00099E00E948A136EE772E08DE099E00E9422
:1027D000B613B801A6018DE099E00E948A136AE859
:1027E00072E08DE099E00E94A2136DE872E085E24C
:1027F00098E01F910F91FF90EF90DF90CF90BF90E6
:10280000AF909F908F907F906F905F904F900C94BF
:10281000A2133F924F925F926F927F928F929F92FC
:10282000AF92BF92CF92DF92EF92FF920F931F93DE
:10283000CF93DF9300D000D000D01F921F92CDB76E
:10284000DEB77C01FE013196CE010C966F0130E2BD
:102850003193E817F907E1F7DA0130E087E09D915D
:10286000B92E992309F43CC09E32F1F48A30C9F4A0
:1028700080E02B960FB6F894DEBF0FBECDBFDF9180
:10288000CF911F910F91FF90EF90DF90CF90BF906D
:10289000AF909F908F907F906F905F904F903F9000
:1028A000089538E08AE0DBCFE0E9F1E04491442389
:1028B00021F031969413FACFDBCF8317C8F24FED96
:1028C000490F4E35A8F64FE9490F4A3118F440EE4A
:1028D000B42EB90EF601E30FF11DB0823F5FBFCFFA
:1028E0008981803229F2322E8B01DB015B968D913A
:1028F0009C915C97F701948F838F16961D921D9281
:102900001D921C921997FB01128613861486158658
:10291000F80182859385A485B585438954896589A5
:10292000768984179507A607B70708F04DC025E0FC
:10293000B695A795979587952A95D1F7F82FFF70AB
:10294000AF2ED80115968C91823008F491CFC80132
:102950000E942B0F97FD8CCFF80182859385A4856B
:10296000B5854F96A11DB11D82879387A487B58732
:10297000F0E2AF9EB00111246D5D794F61157105D4
:1029800009F476CFDB018C91882341F0853E09F074
:1029900062C0BB2029F0BB24B394BACFB1100EC0E3
:1029A000F701A28A8091000290910102A091020297
:1029B000B091030286879787A08BB18BDB018C9146
:1029C0008111E9CFBB24B394832D8271823109F048
:1029D0004FCFBB2009F44DC0F7016685778580890C
:1029E000918941E00E942907882309F441CFD7014A
:1029F00052968C91B0E28B9FC00111248D5D994F4E
:102A0000009709F435CFFC013A9626E1DF011D92CB
:102A10002A95E9F72BE0F601DC0101900D922A9549
:102A2000E1F721E238E2FC01318B208B40E058E0F5
:102A300057874687338B228B318F208F578B468B5E
:102A400081E00E94FE06882309F412CF432DD701AE
:102A500052966C910AC04BE050E0C6010E942923B7
:102A6000892B09F055CF432D6A2DC7010E947C1098
:102A700000CFF8018581823009F4FACEC8010E94A6
:102A8000120B882309F4F4CED8015B96ED91FC91EA
:102A90005C9716968D909D90AD90BC901997B2E082
:102AA0008B1A9108A108B108858504C0880C991C6F
:102AB000AA1CBB1C8A95D2F786859785A089B18907
:102AC000880E991EAA1EBB1E848124013501480E62
:102AD000511C611C711C84149504A604B70409F1EF
:102AE000E1E04E1A51086108710881E00E94FE067B
:102AF000882309F4BDCEE3E2F6E0119283E298E088
:102B00008E179F07D1F74092000250920102609207
:102B10000202709203028091CC0581608093CC0503
:102B2000DACFD8015B96ED91FC91258580E092E0AB
:102B3000A0E0B0E004C0880F991FAA1FBB1F2A9510
:102B4000D2F7F8014389548965897689840F951FE6
:102B5000A61FB71F838B948BA58BB68BD70152967C
:102B60001C9283E296E04FCFEF92FF920F931F9358
:102B7000CF93DF93EC017B018A011B821A8288EEDE
:102B800093E0A0E0B0E08C839D83AE83BF8387E1B8
:102B900092E0998388838DE190E00E9404229A8FCD
:102BA000898F009779F02DE1F701DC0101900D92FA
:102BB0002A95E1F74CE050E0B801CE010C960E9456
:102BC0003623188EDF91CF911F910F91FF90EF90D8
:102BD0000895EF92FF920F931F93CF93DF93CDB79A
:102BE000DEB7C755D1090FB6F894DEBF0FBECDBF13
:102BF0008C011C821B828BE3E82E82E0F82EFA8285
:102C0000E9821E82CE0101960E942A0ABE016F5FF0
:102C10007F4FCE01CB960E946F0E19A218A2FF8E95
:102C2000EE8E1BA221968FAD2197811121C0F80154
:102C30001382128288EE93E0A0E0B0E08483958353
:102C4000A683B78387E192E091838083128E118EF1
:102C50001486C801C95ADF4F0FB6F894DEBF0FBE05
:102C6000CDBFDF91CF911F910F91FF90EF9008950D
:102C700027E14AE854E0BE01655C7F4FCE014E96E5
:102C80000E940914882399F2CE01CB960E94B60CBB
:102C900049A95AA96BA97CA9CE014E960E947E0A29
:102CA000BE01625E7F4FCE0101960E946F0E4AE820
:102CB00054E0BE016F5F7F4FC8010E94B415C9CFB9
:102CC0001F920F920FB60F9211242F933F938F9361
:102CD0009F93AF93BF9380911B0690911C06A09188
:102CE0001D06B0911E0630911A0623E0230F2D37E2
:102CF00058F50196A11DB11D20931A0680931B065D
:102D000090931C06A0931D06B0931E0680911F068B
:102D100090912006A0912106B09122060196A11D56
:102D2000B11D80931F0690932006A0932106B093B7
:102D30002206BF91AF919F918F913F912F910F905C
:102D40000FBE0F901F90189526E8230F0296A11D25
:102D5000B11DD2CF1F920F920FB60F9211240BB656
:102D60000F922F933F934F935F936F937F938F9324
:102D70009F93AF93BF93EF93FF9385E298E00E94F8
:102D8000B203FF91EF91BF91AF919F918F917F918E
:102D90006F915F914F913F912F910F900BBE0F90CC
:102DA0000FBE0F901F9018951F920F920FB60F92A3
:102DB00011240BB60F922F938F939F93EF93FF9352
:102DC000E0913508F09136088081E0913B08F09160
:102DD0003C0882FD1DC0908180913E088F5F8F73FB
:102DE00020913F08821741F0E0913E08F0E0EB5D52
:102DF000F74F958F80933E08FF91EF919F918F91B0
:102E00002F910F900BBE0F900FBE0F901F90189533
:102E10008081F2CF1F920F920FB60F9211240BB642
:102E20000F922F933F934F935F936F937F938F9363
:102E30009F93AF93BF93EF93FF93E0911406F091AC
:102E40001506309749F0A685B7858585968D91FF43
:102E500016C09C918923B1F4FF91EF91BF91AF917E
:102E60009F918F917F916F915F914F913F912F91A2
:102E70000F900BBE0F900FBE0F901F9018959C9156
:102E8000892351F7A389B4899C91858980958923E9
:102E90008C93868997890197F1F7608D718DA6854E
:102EA000B785558538E020E0CB010197F1F7822FF7
:102EB00090E095958795282F4C91452309F020683F
:102EC000315091F7868D81FD20958091130690E019
:102ED00001968F73992730911206381799F0A091B7
:102EE0001306B0E0AF52BA4F2C9380931306828D35
:102EF000938D0197F1F7A389B4898C919589892BDA
:102F00008C93AACF868D8160868FF1CFCF92DF928E
:102F1000EF92FF92109228081092270898EEC92E7F
:102F200093E0D92EE12CF12CC0922908D0922A08E6
:102F3000E0922B08F0922C0889E292E09093260808
:102F40008093250885EC90E09093320880933108B7
:102F500084EC90E0909334088093330880EC90E008
:102F6000909336088093350881EC90E09093380870
:102F70008093370882EC90E090933A088093390868
:102F800086EC90E090933C0880933B0810923E08BA
:102F900010923F08109240081092410880E58093FB
:102FA000C2081092C3081092C9081092CA08109261
:102FB000CD081092CF0882E090E0A0E0B0E08093CE
:102FC000D0089093D108A093D208B093D308109260
:102FD000E7081092F1081092F0088BE392E09093CA
:102FE000EF088093EE081092F30810922F091092C8
:102FF0002E0989E592E090932D0980932C098CE0AD
:10300000809330098FEF809331098BE080933209F0
:1030100085E08093330984E08093340983E08093D2
:10302000350982E0809336091092370910923809E9
:103030001092390910923A0910923B0981E00E94DE
:103040008C111092100910920F09C0921109D092A0
:103050001209E0921309F092140987E492E0909328
:103060000E0980930D0910922409109223091092E1
:10307000260910922509109228091092270910920A
:103080002A091092290960912B096E7F6D7F609348
:103090002B096695617081E068278BE00E94BD0175
:1030A00061E08BE00E944902E5E8F2E0E491E09300
:1030B0001D09EFE3F2E0E491F0E0EE0FFF1FE65EA2
:1030C000FD4F8591949190931F0980931E0960E0B4
:1030D0008AE00E94490280912B0981FD04C061E0D1
:1030E0008AE00E94BD018AE080931909E4E8F2E0D9
:1030F000E491E0931A09EEE3F2E0E491F0E0EE0FE0
:10310000FF1FE050FE4F8591949190931C0980938E
:103110001B09FF90EF90DF90CF900895CF93DF933E
:10312000CDB7DEB7A3970FB6F894DEBF0FBECDBF05
:10313000789484B5826084BD84B5816084BD85B592
:10314000826085BD85B5816085BD80916E0081609E
:1031500080936E0010928100809181008260809344
:103160008100809181008160809381008091800046
:103170008160809380008091B10084608093B10071
:103180008091B00081608093B00080919100826056
:103190008093910080919100816080939100809153
:1031A00090008160809390008091A1008260809364
:1031B000A1008091A10081608093A1008091A00076
:1031C00081608093A0008091210182608093210121
:1031D0008091210181608093210180912001816093
:1031E0008093200180917A00846080937A0080919E
:1031F0007A00826080937A0080917A008160809367
:103200007A0080917A00806880937A001092C100E1
:103210000E94950182E00E948C1167EA72E08CE2C4
:1032200099E00E94B61360ED77E080E090E00E94A4
:1032300000030E9484110E94950182E00E948C117B
:1032400067EA72E08CE299E00E94B61360ED77E0E5
:1032500080E090E00E9400030E9484118091F308B6
:10326000882321F08EEE98E00E94B60C1092CF08D1
:103270001092CD081092CA081092C90884E0809379
:10328000C8080E9432037B0161E08091C8080E9457
:10329000490261E08091C8080E94BD01DFB6F89440
:1032A00080911106811127C0E9E6F2E08491EFEAEE
:1032B000F2E09491E82FF0E0EE0FFF1FE056FE4F92
:1032C000A591B491EC91E92321F461E085E30E949A
:1032D000BD0161E085E30E9449028CB580618CBD2F
:1032E0008CB580648CBD61E084E30E94490261E09A
:1032F00083E30E944902809111068F5F809311063B
:10330000DFBE82E58093C2081092C3088091C20894
:103310009091C3080E9454051AE08FEF0E942F0578
:103320001150D9F784EC98E00E94570520E030E076
:10333000A90160E084EC98E00E946D05182F80934D
:10334000CE088130D9F00E9432036E197F09613DA9
:10335000774060F381E08093C90884EC98E00E9494
:10336000240568ED72E085E298E00E94A21367EF01
:1033700072E08CE299E00E94B6138CC02AEA31E038
:1033800040E050E068E084EC98E00E946D0582FF28
:103390002AC01093CF088091CF08812C912C540122
:1033A000823029F4812C912CA12C80E4B82E20E0CD
:1033B00030E0A90167E384EC98E00E946D05A50167
:1033C000940169E284EC98E00E946D058093CE0838
:1033D0008823C1F00E9432036E197F09613D774056
:1033E00030F388E0B8CF14E00E9436058093CE0811
:1033F0001150D1F78A3A11F082E0ADCF82E080938C
:10340000CF08C9CF8091CF088230D1F420E030E0DE
:10341000A9016AE384EC98E00E946D05882311F00D
:1034200086E099CF0E943605807C803C19F483E0C9
:103430008093CF080E9436050E9436050E9436050B
:1034400084EC98E00E94240580E58093C2081092E5
:10345000C30881E00E947307882309F4B3C48EEE89
:1034600098E00E942A0A882309F47BCF63EB72E07C
:1034700085E298E00E94A21368EC72E08CE299E089
:103480000E94B61360ED77E080E090E00E940003B8
:103490000E9484111092280910922709109226097F
:1034A0001092250910922409109223098DE991E0C8
:1034B00090932A09809329098091190996EF980F12
:1034C000943048F02EEC280F243028F022EC280FFE
:1034D000283008F061C02DEB30E0309324092093B0
:1034E00023092BE931E030932609209325092CE2AA
:1034F00031E03093280920932709943050F02EECC6
:10350000280F243030F022EC280FF0E0E0E02830E3
:1035100010F4E8E6F0E02081943028F032EC380F27
:10352000383008F456C431E0232B943048F09EEC38
:10353000980F943028F08E53F0E0E0E0883010F4DB
:10354000E8E6F0E020832091190936EF320F34309D
:1035500008F441C48EEC820F843008F43CC482EC41
:10356000820F883008F43AC490E080E090932109FB
:1035700080932009343008F034C42650330B81E0A6
:1035800001C0880F2A95EAF78093220980912909C2
:1035900090912A090197F1F78091270990912809C4
:1035A000892B49F1E0911406F091150649E0ED30C0
:1035B000F40709F1309739F0A389B4899C91858982
:1035C000809589238C9380912B098E7F80932B0982
:1035D00010921306109212068DE099E09093150652
:1035E00080931406E0912009F09121098081909147
:1035F0002209892B808366E073E085E298E00E94CF
:10360000A21361E08DE00E94490260E08DE00E941B
:10361000BD016DE173E085E298E00E94A21368E3CA
:1036200073E085E298E00E94A2130E94841180E07A
:103630000E942D126FE673E08CE299E00E94B613AF
:1036400081E00E942D1261E873E08CE299E00E9413
:10365000B61368EB7BE080E090E00E94000320E07E
:1036600030E040E251E460910402709105028091E3
:103670000602909107020E94851F609304027093D6
:10368000050280930602909307020E9484116CE861
:1036900073E08CE299E00E94B613409104025091CD
:1036A000050260910602709107028CE299E00E9487
:1036B0008A1360ED77E080E090E00E94000368E903
:1036C00073E085E298E00E94A21367EC73E085E264
:1036D00098E00E94A2136AEF73E085E298E00E94EE
:1036E000A213332433940E9497024B015C010E9481
:1036F000C5026B017C01AC019B01C501B4010E94B4
:103700004E212B013C010E94320368A379A38AA3B6
:103710009BA38091160690911706A0911806B09170
:10372000190628A139A14AA15BA1281B390B4A0B14
:103730005B0B203D37404105510580F128A139A19F
:103740004AA15BA1209316063093170640931806F2
:10375000509319060E94841180910802882309F46D
:1037600055C380E00E942D126BE274E08CE299E078
:103770000E94B61381E00E942D12B301A2018CE2D7
:1037800099E00E948A136AE872E08CE299E00E9454
:10379000B6138091080283258093080264E772E0E3
:1037A00085E298E00E94B613B501A40185E298E095
:1037B0000E948A136AE474E085E298E00E94B613DE
:1037C000B701A60185E298E00E948A1368E574E0DB
:1037D00085E298E00E94B613B301A20185E298E069
:1037E0000E948A136AE872E085E298E00E94A213C0
:1037F0000E9497024B015C010E94C5026B017C0193
:10380000AC019B01C501B4010E944E212B013C017A
:10381000CE0101960E94E915EA8DFB8D309709F4DF
:103820001CC38581882309F418C36EE474E0CE01BB
:1038300001960E94B613B701A601CE0101960E941F
:103840008A1360E772E0CE0101960E94B613B501BB
:10385000A401CE0101960E948A136EE772E0CE01A8
:1038600001960E94B613B301A201CE0101960E94F7
:103870008A136AE872E0CE0101960E94A2138A8D33
:103880009B8D009741F00E94B60C8A8D9B8D0E9403
:10389000A0221B8E1A8E64E674E085E298E00E94F6
:1038A000A2130E94320368A379A38AA39BA38091E9
:1038B000160690911706A0911806B091190628A136
:1038C00039A14AA15BA1281B390B4A0B5B0B203D98
:1038D00037404105510580F128A139A14AA15BA1DA
:1038E0002093160630931706409318065093190636
:1038F0000E94841180910802882309F4B1C280E0FB
:103900000E942D126BE274E08CE299E00E94B613E3
:1039100081E00E942D12B301A2018CE299E00E9485
:103920008A136AE872E08CE299E00E94B6138091F3
:10393000080283258093080264E772E085E298E03C
:103940000E94B613B501A40185E298E00E948A1393
:103950006AE474E085E298E00E94B613B701A6011C
:1039600085E298E00E948A1368E574E085E298E0B9
:103970000E94B613B301A20185E298E00E948A1367
:103980006AE872E085E298E00E94A2130E94970222
:103990002B013C010E94C5024B015C01AC019B0163
:1039A000C301B2010E944E217B018C01A30192014F
:1039B000C501B4010E94B8130E9497022B013C017B
:1039C0000E94C5024B015C01AC019B01C301B20125
:1039D0000E944E216B017C0162E872E085E298E072
:1039E0000E94B613B701A60185E298E00E948D13EC
:1039F00087017601A3019201C501B4010E94B813A9
:103A00000E94970220E030E040EF51E40E944E21F6
:103A10002B013C010E94C5022FE832E44AE653E440
:103A20000E944E214B015C01AC019B01C301B2011C
:103A30000E944E216B017C0162E872E085E298E011
:103A40000E94B613B701A60185E298E00E948D138B
:103A500087017601A3019201C501B4010E94B81348
:103A60000E9497026B017C010E94C5029B01AC0180
:103A7000C701B6010E944E2120E030E048EC52E43C
:103A80000E94492118160CF012C261E08DE00E94DC
:103A9000BD0166E974E085E298E00E94A21361EC42
:103AA00074E085E298E00E94A2130E9497024B0105
:103AB0005C010E94C5022B013C01AC019B01C501C8
:103AC000B4010E944E216B017C010E9432036C8F75
:103AD0007D8F8E8F9F8F6AED74E085E298E00E9463
:103AE000B6132AE04C8D5D8D6E8D7F8D85E298E05A
:103AF0000E9450126CE474E085E298E00E94B613D4
:103B0000B301A20185E298E00E948A1360E772E0A7
:103B100085E298E00E94B613B501A40185E298E021
:103B20000E948A136EE772E085E298E00E94B61365
:103B3000B701A60185E298E00E948A136AE872E064
:103B400085E298E00E94A213CE0101960E94E91539
:103B5000EA8DFB8D309709F4AFC18581882309F484
:103B6000ABC16AED74E0CE0101960E94B6132AE063
:103B70004C8D5D8D6E8D7F8DCE0101960E94501211
:103B80006CE474E0CE0101960E94B613B301A20169
:103B9000CE0101960E948A1360E772E0CE01019681
:103BA0000E94B613B501A401CE0101960E948A13AA
:103BB0006EE772E0CE0101960E94B613B701A6012E
:103BC000CE0101960E948D138A8D9B8D009731F056
:103BD0000E94B60C8A8D9B8D0E94A02220E030E0CE
:103BE00048EC52E4C701B6010E94492118160CF0B6
:103BF0006AC161E08DE00E94BD0166E974E085E282
:103C000098E00E94A21366EE74E085E298E00E94BC
:103C1000A2130E9497026B017C010E94C5024B0116
:103C20005C016FEF74E085E298E00E94B613A50195
:103C30009401C701B6010E944E2120E030E04AE71E
:103C400054E40E94F61F2FE832EC45EF5DE30E943A
:103C50004E21AB01BC0185E298E00E948D1361E129
:103C600075E085E298E00E94A2132AE037ED43EA6E
:103C70005CE36091090270910A0280910B029091BD
:103C80000C020E94851F6093090270930A028093C0
:103C90000B0290930C020E9484116AE275E08CE2A0
:103CA00099E00E94B6134091090250910A02609176
:103CB0000B0270910C028CE299E00E948A1360ED75
:103CC00077E080E090E00E94000366E375E085E223
:103CD00098E00E94A2130E9497026B017C010E944F
:103CE000C5024B015C01AC019B01C701B6010E94FA
:103CF0004E212B013C0160E575E085E298E00E94D1
:103D0000B613B501A40185E298E00E948A1360E72A
:103D100072E085E298E00E94B613B701A60185E241
:103D200098E00E948A136EE772E085E298E00E94B4
:103D3000B613B301A20185E298E00E948D136EE6EE
:103D400075E085E298E00E94A2130E9497026B0141
:103D50007C010E94C5024B015C01AC019B01C701C3
:103D6000B6010E944E212B013C0168E875E085E216
:103D700098E00E94B613B501A40185E298E00E9484
:103D80008A1360E772E085E298E00E94B613B701FB
:103D9000A60185E298E00E948A136EE772E085E250
:103DA00098E00E94B613B301A20185E298E00E9458
:103DB0008D1360EB75E085E298E00E94A2130E94EB
:103DC000410491CC80E00E947307882309F4C9CA9A
:103DD00046CB34E0A9CB8BE690E0C8CB8DE690E0F3
:103DE000C5CB88E0223309F4CFCB84E0233309F438
:103DF000CBCB82E0243309F4C7CB82EC820F88302E
:103E000018F42E53330BBBCB81E0BECB80E00E9475
:103E10002D1262E374E08CE299E00E94B613B701C0
:103E2000A6018CE299E00E948A136BE374E08CE2B5
:103E300099E00E94B61381E00E942D126EE374E0B7
:103E40008CE299E00E94B613B501A4018CE299E0DE
:103E50000E948A1367E474E098CC6CE774E01DCD8F
:103E600080E00E942D1262E374E08CE299E00E94EF
:103E7000B613B701A6018CE299E00E948A136BE3A6
:103E800074E08CE299E00E94B61381E00E942D124A
:103E90006EE374E08CE299E00E94B613B501A401D0
:103EA0008CE299E00E948A1367E474E03CCD60E004
:103EB0008DE00E94BD01F3CD6CE774E085E298E0EF
:103EC0000E94A2138BCE60E08DE00E94BD019BCECC
:103ED00087E492E090930E0980930D098091140677
:103EE000909115068D50994071F4E0912009F09160
:103EF00021099081809122098095892380831092E5
:103F000015061092140608955058BB27AA270E9440
:103F10009C1F0C940F210E94012138F00E9408215F
:103F200020F039F49F3F19F426F40C94FE200EF48F
:103F3000E095E7FB0C94F820E92F0E94202158F32C
:103F4000BA17620773078407950720F079F4A6F57E
:103F50000C9442210EF4E0950B2EBA2FA02D0B01EC
:103F6000B90190010C01CA01A0011124FF27591BBE
:103F700099F0593F50F4503E68F11A16F040A22FC4
:103F8000232F342F4427585FF3CF46953795279535
:103F9000A795F0405395C9F77EF41F16BA0B620B34
:103FA000730B840BBAF09150A1F0FF0FBB1F661F7B
:103FB000771F881FC2F70EC0BA0F621F731F841FBE
:103FC00048F4879577956795B795F7959E3F08F0E4
:103FD000B0CF9395880F08F09927EE0F97958795A6
:103FE00008950E94D42008F481E008950E940A20D8
:103FF0000C940F210E94082158F00E94012140F0EA
:1040000029F45F3F29F00C94F82051110C944321BE
:104010000C94FE200E94202168F39923B1F35523CC
:1040200091F3951B550BBB27AA27621773078407CB
:1040300038F09F5F5F4F220F331F441FAA1FA9F361
:1040400035D00E2E3AF0E0E832D091505040E6954F
:10405000001CCAF72BD0FE2F29D0660F771F881FB0
:10406000BB1F261737074807AB07B0E809F0BB0BA3
:10407000802DBF01FF2793585F4F3AF09E3F5105B7
:1040800078F00C94F8200C9443215F3FE4F3983EC1
:10409000D4F3869577956795B795F7959F5FC9F7A0
:1040A000880F911D9695879597F90895E1E0660F21
:1040B000771F881FBB1F621773078407BA0720F09A
:1040C000621B730B840BBA0BEE1F88F7E095089503
:1040D0000E94282188F09F5798F0B92F9927B7514F
:1040E000B0F0E1F0660F771F881F991F1AF0BA959C
:1040F000C9F714C0B13091F00E944221B1E0089597
:104100000C944221672F782F8827B85F39F0B93F88
:10411000CCF3869577956795B395D9F73EF490954E
:104120008095709561957F4F8F4F9F4F0895E894CC
:1041300009C097FB3EF490958095709561957F4FEF
:104140008F4F9F4F9923A9F0F92F96E9BB2793959D
:10415000F695879577956795B795F111F8CFFAF4AD
:10416000BB0F11F460FF1BC06F5F7F4F8F4F9F4FDE
:1041700016C0882311F096E911C0772321F09EE83C
:10418000872F762F05C0662371F096E8862F70E0A2
:1041900060E02AF09A95660F771F881FDAF7880F7C
:1041A0009695879597F90895990F0008550FAA0BD2
:1041B000E0E8FEEF16161706E807F907C0F012163A
:1041C0001306E407F50798F0621B730B840B950B3D
:1041D00039F40A2661F0232B242B252B21F4089592
:1041E0000A2609F4A140A6958FEF811D811D08952F
:1041F00097F99F6780E870E060E008959FEF80EC9A
:10420000089500240A94161617061806090608953C
:1042100000240A9412161306140605060895092EA2
:104220000394000C11F4882352F0BB0F40F4BF2B11
:1042300011F460FF04C06F5F7F4F8F4F9F4F089551
:1042400057FD9058440F551F59F05F3F71F0479547
:10425000880F97FB991F61F09F3F79F0879508952C
:10426000121613061406551FF2CF4695F1DF08C04B
:10427000161617061806991FF1CF86957105610568
:1042800008940895E894BB2766277727CB0197F910
:1042900008950E94D42008F48FEF08950E946121B0
:1042A0000C940F210E94012138F00E94082120F077
:1042B000952311F00C94F8200C94FE2011240C94FA
:1042C00043210E94202170F3959FC1F3950F50E088
:1042D000551F629FF001729FBB27F00DB11D639FB8
:1042E000AA27F00DB11DAA1F649F6627B00DA11D5E
:1042F000661F829F2227B00DA11D621F739FB00D04
:10430000A11D621F839FA00D611D221F749F332773
:10431000A00D611D231F849F600D211D822F762F0C
:104320006A2F11249F5750409AF0F1F088234AF0E9
:10433000EE0FFF1FBB1F661F771F881F9150504055
:10434000A9F79E3F510580F00C94F8200C9443216E
:104350005F3FE4F3983ED4F3869577956795B795DC
:10436000F795E7959F5FC1F7FE2B880F911D9695F6
:10437000879597F908950E94D420880B990B08958A
:10438000A1E21A2EAA1BBB1BFD010DC0AA1FBB1F59
:10439000EE1FFF1FA217B307E407F50720F0A21BCB
:1043A000B30BE40BF50B661F771F881F991F1A9438
:1043B00069F760957095809590959B01AC01BD0162
:1043C000CF010895EE0FFF1F881F8BBF0790F69156
:1043D000E02D19940E94F521A59F900DB49F900D9A
:1043E000A49F800D911D11240895A29FB001B39F39
:1043F000C001A39F700D811D1124911DB29F700DEE
:10440000811D1124911D08950F931F93CF93DF9366
:104410008230910510F482E090E0E0914609F0913D
:10442000470930E020E0B0E0A0E0309799F4211592
:10443000310509F44AC0281B390B24303105D8F561
:104440008A819B816115710589F1FB0193838283C8
:10445000FE0111C040815181028113814817590723
:10446000E0F04817590799F4109761F012960C93F1
:10447000129713961C933296CF01DF91CF911F9123
:104480000F9108950093460910934709F4CF211521
:10449000310551F04217530738F0A901DB019A01A9
:1044A000BD01DF01F801C1CFEF01F9CF90934709BA
:1044B00080934609CDCFFE01E20FF31F81939193C4
:1044C0002250310939832883D7CF20914409309174
:1044D0004509232B41F420910F02309110023093B3
:1044E00045092093440920910D0230910E022115B7
:1044F000310541F42DB73EB740911102509112029F
:10450000241B350BE0914409F0914509E217F307AC
:10451000A0F42E1B3F0B2817390778F0AC014E5F33
:104520005F4F2417350748F04E0F5F1F5093450922
:1045300040934409819391939FCFF0E0E0E09CCFBA
:10454000CF93DF930097E9F0FC0132971382128238
:10455000A0914609B0914709ED0130E020E01097A5
:10456000A1F420813181820F931F20914409309161
:1045700045092817390709F061C0F0934509E09310
:104580004409DF91CF910895EA01CE17DF07E8F5DE
:104590004A815B819E0141155105B1F7E901FB8319
:1045A000EA8349915991C40FD51FEC17FD0761F4B7
:1045B000808191810296840F951FE90199838883F8
:1045C000828193819B838A83F0E0E0E012968D9153
:1045D0009C9113970097B9F52D913C911197CD01BE
:1045E0000296820F931F20914409309145092817A4
:1045F000390739F6309751F510924709109246095C
:10460000B0934509A0934409BCCFD383C2834081B2
:104610005181840F951FC817D90761F44E5F5F4F12
:1046200088819981480F591F518340838A819B81DA
:10463000938382832115310509F0B0CFF0934709A8
:10464000E09346099ECFFD01DC01C0CF13821282A8
:10465000D7CFFB01DC0104C08D910190801921F4BA
:1046600041505040C8F7881B990B0895FB01DC01AD
:104670004150504048F001900D920020C9F701C010
:104680001D9241505040E0F7089511E0C1E6D1E09D
:1046900000E006C0802FFE010E94E2212196011D4C
:0E46A000C236D10780E00807A9F7F894FFCFD3
:1046AE00FFFFFFFF0000C842018FC2F53D0000482A
:1046BE0009800000000000150FF80EE80EBF0EC8AE
:1046CE000E4A10541000000000D4033E036B032169
:1046DE00049C037A038E03000000005E0E3E035816
:1046EE000C7810000000008B043E0379108A04E75A
:1046FE0004FD047204000000003B123E03791078A2
:10470E00106E616E00696E66006F7666000D0A00AF
:10471E0020562C2043757272656E743A200020412B
:10472E002C20506F7765723A200020570044617438
:10473E00612073656E74206F76657220426C7565AC
:10474E00746F6F74682E00506F776572204D6574AC
:10475E006572005344206361726420696E697469E6
:10476E00616C697A65642E00534420496E69742029
:10477E0053756363657373005344206361726420E1
:10478E00696E697469616C697A6174696F6E2066AD
:10479E0061696C65642100534420496E697420463A
:1047AE0061696C656400426C7565746F6F74682026
:1047BE00696E697469616C697A65642E00566572FA
:1047CE0073696F6E20372E302053657475702043D9
:1047DE006F6D706C6574650056657273696F6E20CF
:1047EE00392E3020536574757020436F6D706C6573
:1047FE007465207769746820456E65726779204309
:10480E006F737420457374696D6174696F6E0031D6
:10481E002E506F776572205468726573686F6C6482
:10482E0000322E436F73742F6B5768005468726595
:10483E0073686F6C643A200056657273696F6E20F0
:10484E0031302E3020536574757020436F6D706C4F
:10485E0065746520776974682053657474696E6732
:10486E0073204D656E750056657273696F6E2031DB
:10487E00312E3020536574757020436F6D706C65EA
:10488E007465207769746820436C6F756420496E77
:10489E00746567726174696F6E0056657273696FC5
:1048AE006E2031322E3020536574757020436F6D3B
:1048BE00706C657465207769746820496F5420495F
:1048CE006E746567726174696F6E00506F77657292
:1048DE003A00566F6C746167653A00205600437556
:1048EE007272656E743A0020410020412C20566F82
:1048FE006C746167653A200020562C20506F7765E6
:10490E00723A200044617461206C6F6767656420A1
:10491E00746F20534420636172642E004572726F6F
:10492E0072206F70656E696E6720646174616C6F62
:10493E00672E74787400506F776572207468726594
:10494E0073686F6C642065786365656465642120A7
:10495E00416C657274207472696767657265642E46
:10496E000056657273696F6E20372E30204C6F6F54
:10497E00702052756E6E696E670054696D65737442
:10498E00616D703A200056657273696F6E20382E15
:10499E0030204C6F6F702052756E6E696E670045D9
:1049AE007374696D6174656420436F73743A202467
:1049BE000056657273696F6E20392E30204C6F6F02
:1049CE00702052756E6E696E6700436F73742F6B35
:1049DE0057683A20240056657273696F6E20313025
:1049EE002E30204C6F6F702052756E6E696E6700A0
:1049FE0055706C6F6164696E6720746F20636C6FA5
:104A0E0075643A20566F6C746167653A200056657E
:104A1E007273696F6E2031312E30204C6F6F7020A3
:104A2E0052756E6E696E670053656E64696E6720AF
:104A3E006461746120746F20496F5420706C6174CE
:104A4E00666F726D3A20566F6C746167653A20001E
:104A5E0056657273696F6E2031322E30204C6F6F37
:0A4A6E00702052756E6E696E6700CD
:00000001FF
