:100000000C942E010C945F010C945F010C945F0121
:100010000C945F010C945F010C945F010C945F01E0
:100020000C945F010C945F010C945F010C945F01D0
:100030000C945F010C945F010C945F010C945F01C0
:100040000C945F010C945F010C945F010C945F01B0
:100050000C945F010C945F010C945F010C944806B2
:100060000C945F010C94BC060C9492060C945F01F6
:100070000C945F010C945F010C945F010C945F0180
:100080000C945F010C945F010C945F010C945F0170
:100090000C945F010C945F010C945F010C945F0160
:1000A0000C945F010C945F010C945F010C945F0150
:1000B0000C945F010C945F010C945F010C945F0140
:1000C0000C945F010C945F010C945F010C945F0130
:1000D0000C945F010C945F010C945F010C945F0120
:1000E0000C945F010C9463030C94AD020C944206D3
:1000F0000C94BC020C94D0020C9402020C94F801F3
:100100000C94D6010C94B0010C94F2060C94F401FA
:100110000C9416030C94C7010C94B4030C94B5030F
:100120000C94EA010C94E6010C94E0010C94DE02BC
:100130000C9406020C94DC010C9480020C94EE01E9
:100140000C94FC010C94CF010C94D3010C94B501D8
:100150000C94CB0100000A0B02090C0D0E080703DA
:10016000040100000000000000000000000000008A
:10017000000000000000000000000000000000007F
:10018000121110000000000000000000000000003C
:100190000000000000000000000000002200250018
:1001A00028002B002E003100340002010000050160
:1001B00008010B0100002100240027002A002D0067
:1001C0003000330001010000040107010A010505A8
:1001D0000505070508080808020202020A0A0808BD
:1001E00004040404010101010101010103030303EB
:1001F00003030303040707070C0C0C0C0C0C0C0C7A
:100200000202020206060606060606060B0B0B0B8A
:100210000B0B0B0B010210202008081020401020AF
:1002200040800201020108040201010204081020BA
:1002300040808040201008040201800402018040B8
:100240002010080402010804020101020408102021
:1002500040800102040810204080F20611241FBED5
:10026000CFEFD1E2DEBFCDBF00E00CBF12E0A0E0D7
:10027000B2E0E2E3F6E100E00BBF02C007900D92AE
:10028000AC36B107D9F723E0ACE6B2E001C01D926D
:10029000AA32B207E1F711E0CEE2D1E000E006C0F9
:1002A00021970109802FFE010E940F0BCD32D1074B
:1002B00080E00807A9F70E943C070C94170B0C94E8
:1002C000000090E0FC01EC5EFD4F249182539E4FB4
:1002D000FC018491882399F090E0880F991FFC011C
:1002E000EC54FE4FA591B491FC01E656FE4F85916A
:1002F00094918FB7F894EC91E22BEC938FBF089513
:10030000282F30E0F901EC5AFE4F9491F901EC5E90
:10031000FD4F449122533E4FF9012491222309F4C9
:1003200035C0992311F191509231F8F4E92FF0E0A2
:100330008827E256FE4F8F4F0C940F0BCF01D3014D
:10034000B001C701CB01B501D601DC01E001E60136
:10035000EA01EE01F401F801B501FC010202060216
:10036000809180008F7780938000E22FF0E0EE0F85
:10037000FF1FE656FE4FA591B4918FB7F894EC910C
:10038000611148C040954E234C938FBF08958091D2
:1003900080008F7DE8CF80918000877FE4CF84B597
:1003A0008F7784BDE2CF84B58F7DFBCF8091B00085
:1003B0008F778093B000D9CF8091B0008F7DF9CF37
:1003C000809190008F7780939000CFCF80919000A4
:1003D0008F7DF9CF80919000877FF5CF8091A0002D
:1003E0008F778093A000C1CF8091A0008F7DF9CF3F
:1003F0008091A000877FF5CF809120018F77809337
:100400002001B3CF809120018F7DF9CF8091200111
:10041000877FF5CF4E2BB8CF863308F086532091D7
:100420007B00982F9870277F922B90937B0087708A
:10043000806480937C0080917A00806480937A004D
:1004400080917A0086FDFCCF8091780090917900B0
:1004500008953FB7F8948091710290917202A09133
:100460007302B091740226B5A89B05C02F3F19F006
:100470000196A11DB11D3FBFBA2FA92F982F882724
:10048000BC01CD01620F711D811D911D42E0660FFF
:10049000771F881F991F4A95D1F708958F929F92D1
:1004A000AF92BF92CF92DF92EF92FF924B015C012D
:1004B0000E9429026B017C010E9429026C197D09AE
:1004C0008E099F09683E734081059105A8F321E0DC
:1004D000821A9108A108B10888EEC80E83E0D81EE0
:1004E000E11CF11C81149104A104B10429F7FF90CF
:1004F000EF90DF90CF90BF90AF909F908F90089536
:10050000AF92BF92CF92DF92EF92FF920F931F9321
:10051000CF93DF936C017B018B01040F151FEB015F
:100520005E01AE18BF08C017D10759F06991D60116
:10053000ED91FC910190F081E02DC6011995892B78
:1005400079F7C501DF91CF911F910F91FF90EF9047
:10055000DF90CF90BF90AF900895FC01538D448DF4
:10056000252F30E0842F90E0821B930B541710F05E
:10057000CF96089501970895FC01918D828D98176B
:1005800061F0A28DAE0FBF2FB11D5D968C91928D43
:100590009F5F9F73928F90E008958FEF9FEF089574
:1005A000FC01918D828D981731F0828DE80FF11D3D
:1005B000858D90E008958FEF9FEF0895FC01918D58
:1005C000228D892F90E0805C9F4F821B91098F7351
:1005D0009927089585E792E00E94DE0221E0892BA9
:1005E00009F420E0822F0895FC01A48DA80FB92FF3
:1005F000B11DA35ABF4F2C91848D90E001968F734B
:100600009927848FA689B7892C93A089B1898C9169
:10061000837080648C93938D848D981306C00288B8
:10062000F389E02D80818F7D80830895EF92FF9282
:100630000F931F93CF93DF93EC0181E0888F9B8D05
:100640008C8D98131AC0E889F989808185FF15C0BF
:100650009FB7F894EE89FF896083E889F9898081E2
:100660008370806480839FBF81E090E0DF91CF91B1
:100670001F910F91FF90EF900895F62E0B8D10E0D3
:100680000F5F1F4F0F731127E02E8C8D8E110CC042
:100690000FB607FCFACFE889F989808185FFF5CF8D
:1006A000CE010E94F402F1CFEB8DEC0FFD2FF11D76
:1006B000E35AFF4FF0829FB7F8940B8FEA89FB89CA
:1006C00080818062CFCFCF93DF93EC01888D882328
:1006D000B9F0AA89BB89E889F9898C9185FD03C0A5
:1006E000808186FD0DC00FB607FCF7CF8C9185FF8A
:1006F000F2CF808185FFEDCFCE010E94F402E9CFD9
:10070000DF91CF91089580E090E0892B29F00E943D
:10071000EA0281110E94000080E090E0892B49F0FC
:1007200080E090E0892B29F00E94000081110E9456
:10073000000080E090E0892B49F080E090E0892B78
:1007400029F00E94000081110E94000080E090E0EA
:10075000892B49F080E090E0892B29F00E9400006D
:1007600081110C9400000895089590E080E00895B0
:10077000FB0101900020E9F73197AF01461B570BB1
:10078000DC01ED91FC910280F381E02D19948F92B0
:100790009F92AF92BF92EF92FF920F931F93CF93CE
:1007A000DF93CDB7DEB7A1970FB6F894DEBF0FBECB
:1007B000CDBF7C01FA01CB0119A2223008F42AE056
:1007C0008E010F5D1F4F822E912CB12CA12CBF01E9
:1007D000A50194010E94ED0AF901CA016A300CF5E5
:1007E000605DD8016E938D01232B242B252B79F787
:1007F00090E080E0109721F0BD01C7010E94B8038E
:10080000A1960FB6F894DEBF0FBECDBFDF91CF919A
:100810001F910F91FF90EF90BF90AF909F908F909E
:100820000895695CDECF2F923F924F925F926F9254
:100830007F928F929F92AF92BF92CF92DF92EF9270
:10084000FF921F93CF93DF93EC016A017B01722E1D
:10085000AB019601CB01B6010E94E80A6EE172E09D
:10086000811126C046015701E894B7F82FEF3FEFFA
:100870004FE75FE7C501B4010E94E80A81110CC08F
:100880002FEF3FEF4FE75FE7C501B4010E941E095C
:1008900062E272E0181664F02FEF3FEF4FE75FE47B
:1008A000C701B6010E94760A1816B4F466E272E037
:1008B000CE01DF91CF911F91FF90EF90DF90CF900D
:1008C000BF90AF909F908F907F906F905F904F9070
:1008D0003F902F900C94B8032FEF3FEF4FE75FEC62
:1008E000C701B6010E941E0987FDE0CF20E030E07D
:1008F000A901C701B6010E941E09312C212C87FFD6
:100900000DC0E881F9810190F081E02D6DE2CE010A
:1009100019951C01F7FAF094F7F8F09410E060E0F4
:1009200070E080E09FE3711641F020E030E040E2AB
:1009300051E40E9423091F5FF6CFA70196010E9490
:10094000B2082B013C010E9495094B015C012AE091
:10095000BC01A401CE010E94C7037C01E20CF31C80
:100960001123E1F1C501B4010E94C4099B01AC014E
:10097000C301B2010E94B1084B015C01E881F98119
:100980000190F081E02D6EE2CE011995E80EF91E7E
:10099000115020F120E030E040E251E4C501B40103
:1009A0000E947B0A2B013C010E9495094B01B12C4E
:1009B000A12C2AE0B501A401CE010E94C703E80ED4
:1009C000F91EC501B4010E94C4099B01AC01C30119
:1009D000B2010E94B1084B015C01DACFC701DF917F
:1009E000CF911F91FF90EF90DF90CF90BF90AF908D
:1009F0009F908F907F906F905F904F903F902F903F
:100A00000895CF93DF93EC0160E08E810E94800116
:100A100061E08E810E94800160E08E810E948001F1
:100A20008BE891E00197F1F7DF91CF910895CF9294
:100A3000DF92EF92FF920F931F93CF93DF936C019E
:100A40007C0187E0E80EF11CD0E0C0E0062F10E04A
:100A5000B8010C2E02C0759567950A94E2F7617093
:100A6000F70181917F010E9480012196C430D10558
:100A700079F7C601DF91CF911F910F91FF90EF9011
:100A8000DF90CF900C940105CF92DF92EF92FF920E
:100A90000F931F93CF93DF93EC01F62E642F8C817D
:100AA0000E9480018D818F3F19F060E00E948001DB
:100AB0000F2D10E08F8584FF25C06E0187E0C80EE2
:100AC000D11CF12CE12CB8010E2C02C07595679554
:100AD0000A94E2F76170F60181916F010E94800132
:100AE000FFEFEF1AFF0A88E0E816F10461F7CE0184
:100AF000DF91CF911F910F91FF90EF90DF90CF90FA
:100B00000C940105B80184E0759567958A95E1F725
:100B1000CE010E9417056F2DCE01DF91CF911F915D
:100B20000F91FF90EF90DF90CF900C94170540E06D
:100B3000682F82E193E00C94440581E00E949705C0
:100B40008BE39FE10197F1F70895CF93DF93823014
:100B500029F49091210398609093210380932503B9
:100B60001092260380E48093270380E1809328037A
:100B700080E580932903809116030E946101809192
:100B800017038F3F11F00E946101809118030E94AA
:100B90006101C2E1D3E09E012251334080912103E3
:100BA00084FD0AC084E090E02196281739073CF4C0
:100BB0008E810E946101EFCF88E090E0F5CF8BE35A
:100BC0009DE00197F1F760E0809116030E9480019B
:100BD00060E0809118030E948001809117038F3F8D
:100BE00019F060E00E9480018091210384FD34C0EF
:100BF00063E082E193E00E941705CBE4D6E4CE01E6
:100C00000197F1F763E082E193E00E9417052197D5
:100C1000F1F763E082E193E00E94170583E592E03B
:100C20000197F1F762E082E193E00E94170580915D
:100C3000210380620E94970584E0809322038CE068
:100C40000E9497050E949D0582E08093230386E021
:100C5000DF91CF910C94970580620E9497058BE4F9
:100C600096E40197F1F78091210380620E94970535
:100C700083E592E00197F1F78091210380620E9461
:100C80009705D5CF41E00E94440581E090E00895AA
:100C90001F920F920FB60F9211242F933F938F93B1
:100CA0009F93AF93BF9380916D0290916E02A0913C
:100CB0006F02B091700230916C0223E0230F2D3748
:100CC00058F50196A11DB11D20936C0280936D0211
:100CD00090936E02A0936F02B093700280917102A4
:100CE00090917202A0917302B09174020196A11DBD
:100CF000B11D8093710290937202A0937302B0931E
:100D00007402BF91AF919F918F913F912F910F905E
:100D10000FBE0F901F90189526E8230F0296A11D75
:100D2000B11DD2CF1F920F920FB60F9211240BB6A6
:100D30000F922F933F934F935F936F937F938F9374
:100D40009F93AF93BF93EF93FF9385E792E00E9449
:100D5000F402FF91EF91BF91AF919F918F917F919D
:100D60006F915F914F913F912F910F900BBE0F901C
:100D70000FBE0F901F9018951F920F920FB60F92F3
:100D800011240BB60F922F938F939F93EF93FF93A2
:100D9000E0918502F09186028081E0918B02F091D2
:100DA0008C0282FD1DC0908180918E028F5F8F73B7
:100DB00020918F02821741F0E0918E02F0E0EB5813
:100DC000FD4F958F80938E02FF91EF919F918F91B0
:100DD0002F910F900BBE0F900FBE0F901F90189584
:100DE0008081F2CFE5E7F2E01382128288EE93E091
:100DF000A0E0B0E084839583A683B78384E092E08B
:100E00009183808385EC90E09587848784EC90E0E3
:100E10009787868780EC90E0918B808B81EC90E0C7
:100E2000938B828B82EC90E0958B848B86EC90E0A8
:100E3000978B868B118E128E138E148EE2E1F3E067
:100E40001382128286E192E0918380838CE0848316
:100E50008FEF85838BE0868385E0878384E08087BE
:100E600083E0818782E08287138614861586168642
:100E7000178681E00C94A505789484B5826084BDC2
:100E800084B5816084BD85B5826085BD85B581608E
:100E900085BD80916E00816080936E00109281000C
:100EA00080918100826080938100809181008160C7
:100EB0008093810080918000816080938000809188
:100EC000B10084608093B1008091B0008160809314
:100ED000B000809191008260809391008091910098
:100EE0008160809391008091900081608093900058
:100EF0008091A10082608093A1008091A100816017
:100F00008093A1008091A00081608093A0008091D7
:100F10002101826080932101809121018160809371
:100F200021018091200181608093200180917A00CD
:100F3000846080937A0080917A00826080937A0046
:100F400080917A00816080937A0080917A00806835
:100F500080937A001092C100E0918502F0918602A0
:100F600082E08083E0918102F09182021082E09120
:100F70008302F09184028FEC808310928D02E091C5
:100F80008902F0918A0286E08083E0918702F091E5
:100F90008802808180618083E0918702F0918802DD
:100FA000808188608083E0918702F091880280814F
:100FB00080688083E0918702F091880280818F7D34
:100FC000808382E00E94A5056AE272E082E193E0FC
:100FD0000E94B80360ED77E080E090E00E944E024E
:100FE0000E949D0586E30E940C029250BC01990F5D
:100FF000880B990B0E94C60920E030E040EA5BE3D1
:101000000E947B0A20E030E040EF51E40E94230977
:101010004B015C0120E030E0A9010E94760A18161D
:1010200024F0B7FAB094B7F8B09487E30E940C02AA
:10103000BC01990F880B990B0E94C60920E030E093
:1010400040EA5BE30E947B0A2FE832E44AE653E47D
:101050000E947B0A2B013C01A50194010E947B0A9E
:101060006B017C0166E372E085E792E00E94B803C1
:1010700022E0B501A40185E792E00E94130460E438
:1010800072E085E792E00E94B80322E0B301A2017A
:1010900085E792E00E9413046EE472E085E792E037
:1010A0000E94B80322E0B701A60185E792E00E9402
:1010B00013046AE572E085E792E00E94B8036DE5EB
:1010C00072E085E792E00E94B8030E949D05E1E08E
:1010D000809125038111E0E0E195F0E0EE5EFC4FA8
:1010E000848980680E94970560E672E082E193E05F
:1010F0000E94B80322E0B501A40182E193E00E94BE
:10110000130464E672E082E193E00E94B803E09188
:101110002503E23020F5E150F0E0EE5EFC4F8489DB
:1011200080680E94970567E672E082E193E00E9482
:10113000B80322E0B701A60182E193E00E94130404
:101140006AE572E082E193E00E94B80368EE73E022
:1011500080E090E00E944E020E94830343CFE1E0D2
:10116000DBCF5058BB27AA270E94C9080C943C0A21
:101170000E942E0A38F00E94350A20F039F49F3F71
:1011800019F426F40C942B0A0EF4E095E7FB0C946A
:10119000250AE92F0E944D0A58F3BA176207730710
:1011A0008407950720F079F4A6F50C946F0A0EF4E5
:1011B000E0950B2EBA2FA02D0B01B90190010C0167
:1011C000CA01A0011124FF27591B99F0593F50F47F
:1011D000503E68F11A16F040A22F232F342F4427D7
:1011E000585FF3CF469537952795A795F0405395CF
:1011F000C9F77EF41F16BA0B620B730B840BBAF09F
:101200009150A1F0FF0FBB1F661F771F881FC2F709
:101210000EC0BA0F621F731F841F48F4879577951D
:101220006795B795F7959E3F08F0B0CF9395880FD7
:1012300008F09927EE0F9795879508950E94010A67
:1012400008F481E008950E9437090C943C0A0E943A
:10125000350A58F00E942E0A40F029F45F3F29F029
:101260000C94250A51110C94700A0C942B0A0E94BC
:101270004D0A68F39923B1F3552391F3951B550B50
:10128000BB27AA2762177307840738F09F5F5F4F59
:10129000220F331F441FAA1FA9F335D00E2E3AF098
:1012A000E0E832D091505040E695001CCAF72BD0B0
:1012B000FE2F29D0660F771F881FBB1F2617370701
:1012C0004807AB07B0E809F0BB0B802DBF01FF2733
:1012D00093585F4F3AF09E3F510578F00C94250AE1
:1012E0000C94700A5F3FE4F3983ED4F386957795AB
:1012F0006795B795F7959F5FC9F7880F911D9695EC
:10130000879597F90895E1E0660F771F881FBB1F47
:10131000621773078407BA0720F0621B730B840BF4
:10132000BA0BEE1F88F7E09508950E94550A88F0E1
:101330009F5798F0B92F9927B751B0F0E1F0660F99
:10134000771F881F991F1AF0BA95C9F714C0B130DA
:1013500091F00E946F0AB1E008950C946F0A672F14
:10136000782F8827B85F39F0B93FCCF38695779509
:101370006795B395D9F73EF49095809570956195F2
:101380007F4F8F4F9F4F0895E89409C097FB3EF41D
:1013900090958095709561957F4F8F4F9F4F9923C2
:1013A000A9F0F92F96E9BB279395F6958795779540
:1013B0006795B795F111F8CFFAF4BB0F11F460FF00
:1013C0001BC06F5F7F4F8F4F9F4F16C0882311F058
:1013D00096E911C0772321F09EE8872F762F05C06C
:1013E000662371F096E8862F70E060E02AF09A9507
:1013F000660F771F881FDAF7880F9695879597F9FC
:101400000895990F0008550FAA0BE0E8FEEF161695
:101410001706E807F907C0F012161306E407F507E8
:1014200098F0621B730B840B950B39F40A2661F05C
:10143000232B242B252B21F408950A2609F4A140FF
:10144000A6958FEF811D811D089597F99F6780E80C
:1014500070E060E008959FEF80EC089500240A9406
:101460001616170618060906089500240A9412167F
:101470001306140605060895092E0394000C11F4B2
:10148000882352F0BB0F40F4BF2B11F460FF04C05F
:101490006F5F7F4F8F4F9F4F089557FD9058440FB8
:1014A000551F59F05F3F71F04795880F97FB991FC3
:1014B00061F09F3F79F08795089512161306140680
:1014C000551FF2CF4695F1DF08C01616170618060D
:1014D000991FF1CF86957105610508940895E894E8
:1014E000BB2766277727CB0197F908950E94010A49
:1014F00008F48FEF08950E948E0A0C943C0A0E9413
:101500002E0A38F00E94350A20F0952311F00C9431
:10151000250A0C942B0A11240C94700A0E944D0A7F
:1015200070F3959FC1F3950F50E0551F629FF00136
:10153000729FBB27F00DB11D639FAA27F00DB11D4F
:10154000AA1F649F6627B00DA11D661F829F2227D8
:10155000B00DA11D621F739FB00DA11D621F839F5F
:10156000A00D611D221F749F3327A00D611D231F35
:10157000849F600D211D822F762F6A2F11249F5783
:1015800050409AF0F1F088234AF0EE0FFF1FBB1F86
:10159000661F771F881F91505040A9F79E3F510545
:1015A00080F00C94250A0C94700A5F3FE4F3983E97
:1015B000D4F3869577956795B795F795E7959F5FEF
:1015C000C1F7FE2B880F911D9695879597F9089581
:1015D0000E94010A880B990B0895A1E21A2EAA1BFA
:1015E000BB1BFD010DC0AA1FBB1FEE1FFF1FA217D3
:1015F000B307E407F50720F0A21BB30BE40BF50BD0
:10160000661F771F881F991F1A9469F76095709558
:10161000809590959B01AC01BD01CF010895EE0F1F
:10162000FF1F881F8BBF0790F691E02D1994F89447
:02163000FFCFEA
:101632000000000016038002AD026303DE02BC025A
:10164200D0020000000042068002B503B4036E61BE
:101652006E00696E66006F766600506F7765722065
:101662004D657465720043757272656E743A20003E
:1016720020412C20566F6C746167653A2000205619
:101682002C20506F7765723A20002057000D0A0017
:0C169200493A2000204100503A2000009E
:00000001FF
